:100000000C94BB020C9402030C9402030C940203A4
:100010000C9402030C9402030C9402030C9402034C
:100020000C9402030C9402030C94D1250C94A52685
:100030000C94BB200C9402030C9402030C94020356
:100040000C9402030C9402030C9402030C9402031C
:100050000C9402030C9412210C9402030C940203DE
:100060000C9402030C9402030C9402030C940203FC
:100070000C9402030C9402030C9402030C940203EC
:100080000C9402030C9402030C9402030C940203DC
:100090000C9402030C9402030C9402030C940203CC
:1000A0000C9402030C9402030C940203165C1E00D1
:1000B0001F0020002100220023002400250026002C
:1000C00027002D002E002A0000002B0014001A002B
:1000D0000800150017001C0018000C001200130087
:1000E0002F00300031004A003900040016000700DC
:1000F00009000A000B000D000E000F003300340051
:10010000280000004D00E1001D001B000600190042
:10011000050011001000360037003800E50000002F
:1001200052004C00E0000000E20000002C000151F1
:1001300000002C000000E60000000000500051000C
:100140004F0001003A003B003C003D003E003F00F4
:100150004000410042004300440045004C000000C4
:100160000100010001000100005C0100010001002C
:100170000100010046000100010001004B000100E8
:10018000C35CC45CC65CC85CCA5C010001000100C1
:10019000010001000100010000004E00010001000B
:1001A000C55CC75CC95CCB5C0100010001000100BB
:1001B0000100010000000100010001000000E30057
:1001C000000001000100000001000000010000002B
:1001D00000000100010001001E0F0500047F3F1F09
:1001E000643214643214783C1E1E140A052223253E
:1001F0002628292A2C2D2F3032333536383A3B3DEC
:100200003E4042434547494A4C4E50515355575939
:100210005A5C5E6062646668696B6D6F7173757756
:10022000797B7D7F81838587898A8C8E9092949655
:10023000989A9C9E9FA1A3A5A7A8AAACAEAFB1B364
:10024000B4B6B8B9BBBCBEBFC1C2C3C5C6C7C9CAB4
:10025000CBCCCDCED0D1D2D2D3D4D5D6D7D7D8D976
:10026000D9DADADBDBDBDCDCDCDCDCDDDDDDDDDCD4
:10027000DCDCDCDCDBDBDBDADAD9D9D8D7D7D6D5E6
:10028000D4D3D2D2D1D0CECDCCCBCAC9C7C6C5C3A8
:10029000C2C1BFBEBCBBB9B8B6B4B3B1AFAEACAAF5
:1002A000A8A7A5A3A19F9E9C9A98969492908E8CA5
:1002B0008A89878583817F7D7B79777573716F6D7F
:1002C0006B6968666462605E5C5A59575553515059
:1002D0004E4C4A4947454342403E3D3B3A3836350D
:1002E0003332302F2D2C2A292826252322FFAA7FBE
:1002F0005540000101010101010101010202020258
:1003000002020202020303030303030303040404BF
:100310000404040405050505050606060606070788
:1003200007070708080808090909090A0A0A0B0B40
:100330000B0C0C0C0D0D0D0E0E0E0F0F0F101011DF
:100340001111121213131414151516161717181865
:1003500019191A1A1B1B1C1D1D1E1E1F20202122CD
:1003600022232424252626272829292A2B2C2D2D13
:100370002E2F30313232333435363738393A3B3C30
:100380003D3E3F404142434445464748494A4C4D23
:100390004E4F50515354555658595A5B5D5E5F61EC
:1003A0006264656668696B6C6D6F7072737577787F
:1003B0007A7B7D7E8082838587888A8C8E8F9193DD
:1003C0009596989A9C9EA0A2A3A5A7A9ABADAFB104
:1003D000B3B5B7BABCBEC0C2C4C6C9CBCDCFD1D4E9
:1003E000D6D8DBDDDFE2E4E7E9EBEEF0F3F5F8FA8F
:1003F000FDFF240341007200690073007500740062
:10040000650061002D005200470042002D0076007B
:1004100030002E0033000000140333007800360053
:1004200020006B006500650062007300000004039B
:10043000090409023B00020100A0FA0904000001BE
:10044000030101000921110100012240000705817B
:100450000308000A0904010001030000000921113A
:1004600001000122B6000705820320000A120110D4
:10047000010000000866A6650003000102000105F6
:10048000010902A10185020901A10005091901293B
:10049000081500250195087501810205010930093B
:1004A000311581257F95027508810609381581254A
:1004B0007F950175088106050C0A38021581257F94
:1004C000950175088106C0C005010980A101850359
:1004D00019012AB700150126B70095017510810092
:1004E000C0050C0901A101850419012AA00215010A
:1004F00026A002950175108100C005010906A10121
:100500008505050719E029E71500250195087501FE
:1005100081020507190029EF1500250195F07501E5
:1005200081020508190129059505750191029501BA
:1005300075039101C005010906A101050719E0290C
:10054000E71500250195087501810295017508815F
:10055000010507190029FF150026FF0095067508FB
:10056000810005081901290595057501910295017C
:1005700075039101C00011241FBECFEFDAE0DEBF8A
:10058000CDBF04B603FE27C0809171039091720322
:10059000A0917303B09174038730904BA740B04B88
:1005A000D1F410927103109272031092730310929F
:1005B000740314BE84B7877F84BF0FB6F894A895E0
:1005C00080916000886180936000109260000FBE8F
:1005D000E0E0F8E3099511E0A0E0B1E0E4EEF3E536
:1005E00002C005900D92AE3CB107D9F723E0AEEC06
:1005F000B1E001C01D92A137B207E1F70E940B23C1
:100600000C94B4290C9400000C942103849A8C98C7
:10061000859A8D98869A8E980895CF92DF92EF9260
:10062000FF926B017C010E94DA03813041F48C9AC5
:10063000C701B601FF90EF90DF90CF9008958C989E
:10064000F7CF80FF05C08E9A81FF04C08D9A089570
:100650008E98FACF8D98089581E0089581E00895ED
:100660000C942E0308950C9432031F93CF93DF93C1
:1006700000D000D00F92CDB7DEB749835A836B8389
:100680003091590289819A8131111DC06623B9F0D8
:100690002223A9F00E94B51D182F682F89819A8105
:1006A0000E94611D69817A81812F0F900F900F90B8
:1006B0000F900F90DF91CF911F910C9437040E94FF
:1006C0008D1D182FEFCF0E94B51D69817A81EDCF66
:1006D000FC01262F408151816281738184810C94B9
:1006E0003503CF93DF93EC0160E00E946803BE0105
:1006F000DF91CF910C9433030E9461210E94011F6E
:10070000811102C00E94A51F0C9442060C9445065C
:1007100008950E94CD180E9488032FEF84E39CE087
:10072000215080409040E1F700C000000C94362139
:100730000F931F93CF93DF93EC0161E00E94680356
:100740008C01BE010E943003882359F1BE01C8010B
:100750000E941F12882329F1BE01C8010E94711254
:100760008823F9F0BE01C8010E9494138823C9F0C0
:10077000BE01C8010E941711882399F08A8188233D
:1007800039F001158CE5180751F00F3D1C4579F043
:10079000CE01DF91CF911F910F910C942C030E94F9
:1007A000890380E0DF91CF911F910F9108950E94FE
:1007B000A51FF7CFCF92DF92EF92FF926C01EE244C
:1007C000FF2420E0C114D104E104F10419F0C701B1
:1007D000B60120E1C72ED82EE92EFF24C114D10482
:1007E000E104F10419F0285FC701B6016B017C0137
:1007F00054E0F694E794D794C7945A95D1F7C1146E
:10080000D104E104F10419F02C5FC701B6016B01BA
:100810007C0142E0F694E794D794C7944A95D1F7C7
:10082000C114D104E104F10419F02E5FC701B6012F
:100830009695879577956795672B682B692B09F0B7
:100840002F5F822FFF90EF90DF90CF90089581E08F
:1008500008950C942704CF93C82F0E9404038C2F73
:10086000CF910C94290490E080E008950895972F8B
:1008700070E02FE0929F600D711D1124FB019BE43D
:10088000899FE00DF11D1124EE0FFF1FE455FF4F6E
:10089000859194910895FC01EE0FFF1FE852FE4FE1
:1008A000859194910895CF93DF930E9437040E941D
:1008B0006805EC01811520E5920708F042C081151A
:1008C00030E4930708F0BDC0883E910528F5803ECE
:1008D000910508F09DC0883A910588F4853A910504
:1008E00008F08FC08130910509F492C0009709F497
:1008F0008FC0049708F08CC0D0E0C0E089C08F3B67
:10090000910508F489C0805C9109C03CD105A0F331
:100910000E944B04EC017CC08115904250F4C1153B
:1009200081E0D80708F074C0CD3ED10528F3D0652A
:100930006FC0C11590E3D90708F079C0CE019F7050
:10094000E7CF811525E5920758F5811534E5930722
:1009500008F0A6C0811542E5940750F4C11581E561
:10096000D80708F471C0DC2FCC27C16FD06A50C003
:10097000982F969596959E0123703327C115D345E0
:1009800008F07FC0C1E0D0E002C0CC0FDD1F2A9587
:10099000E2F720E2929FC0011124C82BD92B6FC02F
:1009A000C11589E5D807A8F4C11598E5D90708F05D
:1009B0007CC0C11526E5D20708F09ECF8C2F0E947F
:1009C000FF05C82FD0E0DC2FCC27CC27DF71D06209
:1009D0001FC0C1153AE5D30708F46CC0CE0190568C
:1009E0008115904208F088CF8D2F8F710E94FF05EE
:1009F00090E0982F882788279F719C012C2BE90174
:100A0000E6CFC55AD0E0C65ADE4FC881D0E0D064E8
:100A1000CE01DF91CF910895C85AD0E0CC0FDD1FF1
:100A2000C45DDE4F0990D881C02DD464F1CFCE01D2
:100A30009927D3FF03C0EC01D86CEACFEC01D06C4E
:100A4000E7CFDF70D06AE4CFCE01E4E096958795DA
:100A5000EA95E1F783702C2F26952695237090E276
:100A6000299F90011124382B8C2F8370C1E0D0E096
:100A700002C0CC0FDD1F8A95E2F7C22BD32BDC68B6
:100A8000C7CFC1E0D0E002C0CC0FDD1F2A95E2F74E
:100A900030E2939FC0011124C82BD92BDA68B8CF5C
:100AA000D82FCC27C46FD06AB3CFDC2FCC27C06F30
:100AB000D06AAECF8C2F8F700E94FF0534E0D695A0
:100AC000C7953A95E1F7CF709C2FEC01D069A0CF84
:100AD00082389105B1F1B0F48133910509F475C004
:100AE00048F48932910509F469C08A32910509F404
:100AF00073C008958533910509F459C08933910570
:100B000001F10895833E9105A9F138F4803E9105E5
:100B1000F9F0823E910549F10895863E9105A9F1CB
:100B2000873E9105C9F1843E910519F52091630333
:100B300021FF1FC08091620384FD14C087EE90E006
:100B40000895209162032370A1F080EE90E0089553
:100B50002091620320FD47C03091630330FF09C03C
:100B600024FF44C090E080E004C02091620322FD95
:100B7000F7CF08952091620322FD3BC030916303BB
:100B800030FDE3CF24FFF5CFEDCF2091620323FFAB
:100B9000F0CF24FDE7CFD2CF2091620323FD2CC0FC
:100BA0003091630331FFEECF84EE90E00895209101
:100BB000620325FFDECF89E290E008952091620371
:100BC00025FFD7CF85E390E008952091620326FFAB
:100BD000D0CF8AE290E008952091620326FFC9CF2A
:100BE00081E390E0089589E390E0089583EE90E03A
:100BF000089582EE90E0089586EE90E00895909139
:100C0000620392FF06C0282F28712830F9F4877FED
:100C1000846093FF06C0282F28712831F1F4877E65
:100C200084612091630320FF06C0382F387138306B
:100C3000D9F4877F816021FF06C0282F28712831D1
:100C4000D1F4877E816194FD877E0895282F2471D9
:100C50002430F9F68B7F8860DCCF282F2471243173
:100C600001F78B7E8861DDCF382F3171313019F774
:100C70008E7F8860E0CF282F2171213121F78E7E71
:100C80008861E1CF0C94060308950C944406E82F84
:100C9000F0E0EE0FFF1FE15EFC4F8081918108952F
:100CA000089580EA8A95F1F7089500C008950C949C
:100CB0005106F894E82FE295EF70F0E031A1282F6B
:100CC0002F7081E090E001C0880F2A95EAF7982FF5
:100CD0009095932391A392A1892B82A37894089550
:100CE0000F931F93CF93DF9380E90E94590681E908
:100CF0000E94590682E90E94590683E90E9459061A
:100D000085E90E945906CDE5D1E00CE611E0899114
:100D10000E9459060C171D07D1F710921603109266
:100D200015031092200310921F03109218031092C3
:100D30001703109222031092210310921A031092AB
:100D40001903109224031092230310921C03109293
:100D50001B03109226031092250310921E0310927B
:100D60001D03109228031092270385E00E9442077A
:100D7000DF91CF911F910F910C947C03AF92BF92A2
:100D8000CF92DF92EF92FF920F931F93CF93DF9357
:100D90000CE611E0C5E1D3E0C12CD12CEE24E394A4
:100DA000F12CF80181918F01F894E82FE295EF7012
:100DB000F0E021A18F70A70102C0440F551F8A9552
:100DC000E2F7CA01922F982B91A392A180958923D3
:100DD00082A378940E945506EDE5F1E030E020E032
:100DE000B12CA12C4191A42FA295AF70B0E09096A8
:100DF0008C9190E04F7002C0959587954A95E2F7E7
:100E000080FD3BC0C701022E02C0880F991F0A94C3
:100E1000E2F7A82AB92A2F5F3F4F2F30310511F78B
:100E2000F801319780810E94590654E0C5120E9452
:100E3000570688819981A816B90611F1B982A8824E
:100E400081E0D82AC394229685E0C812AACF2D2D1E
:100E500045E06FE173E085E193E00E9443070E9463
:100E600086038D2DDF91CF911F910F91FF90EF9011
:100E7000DF90CF90BF90AF90089590E080E0C9CF11
:100E800080E0DFCF0895FF920F931F93CF93DF93FE
:100E9000F82E092F162FD72FC42F222349F081E0D7
:100EA0008093D2010E94EB209093D1018093D001D6
:100EB0008091D2018823A1F08091D0019091D1013D
:100EC0000E940321069760F0EF2DF02FA12FBD2F78
:100ED00090E080E0D0E08C179D0744F01092D201A2
:100EE000DF91CF911F910F91FF9008952191319142
:100EF0002D933D930196EFCF8091D90180FF12C0D1
:100F00006091090185E0689FB0011124759567958E
:100F10007595679560387105A8F561157105A1F1A2
:100F2000862F089581FF09C06091090185E0689FBF
:100F3000B001112475956795EDCF6091090182FD8F
:100F40000AC08091D8018823D1F090910801609166
:100F50000901891728F085E0689FB0011124DACFD4
:100F6000869FB001112485E0869F9001879F300DF8
:100F70001124692F70E0C9010E947728CBCF65E06A
:100F800070E0CECF8FE7089581E008958091D90178
:100F900080FF0CC06091050170E0759567957595AF
:100FA00067956115710549F1862F089581FF06C087
:100FB0006091050170E075956795F3CF609105012B
:100FC00082FD0BC09091D7019923A1F0609104019B
:100FD00080910501961738F0682F70E06038710530
:100FE00000F38FE70895899FC001112470E00E94EB
:100FF0007728F4CF61E070E0D7CF81E008958D3E8F
:1010000031F40E947C0781958093DD0108958E3E26
:1010100019F40E947C07F8CF8F3E31F40E947C07C0
:1010200081958093DC010895803F19F40E947C072C
:10103000F8CF893F29F40E94C6078093DE01089506
:101040008A3F21F40E94C6078195F7CF8B3F31F488
:101050000E94C60781958093DF0108958C3F19F4A3
:101060000E94C607F8CF9FE0980F983070F4815F18
:10107000990B21E030E001C0220F8A95EAF78091B8
:10108000DB01822B8093DB0108958D3F31F4809149
:10109000D90181608093D90108958E3F21F4809118
:1010A000D9018260F7CF8F3FB9F78091D901846071
:1010B000F1CF4091DC018D3E59F48091DD0187FF35
:1010C0000DC01092DD0141110BC01092D80108C073
:1010D0008E3E81F48091DD0118169CF3442381F04B
:1010E0008091DE019091DF01892B09F05AC01092A6
:1010F000D70108958F3E49F447FFF0CF1092DC01ED
:101100008091DD018111ECCFE0CF803F19F41416FE
:10111000ACF3E4CF9091DE01893F29F41916F4F67F
:101120001092DE01DBCF8A3F19F497FFD7CFF8CFBB
:101130009091DF018B3F29F497FFD0CF1092DF0110
:10114000CDCF8C3F19F41916CCF3C8CF9FE0980F80
:10115000983090F4815F990B21E030E0B90102C032
:10116000660F771F8A95E2F7CB0180959091DB019E
:1011700089238093DB01B2CF8D3F31F48091D90177
:101180008E7F8093D901AACF8E3F21F48091D9011F
:101190008D7FF7CF8F3F09F0A1CF8091D9018B7F51
:1011A000F0CF08950E94EB209C019091DC0180918A
:1011B000DD01982B21F03093D6012093D501909139
:1011C000DE018091DF01982B21F03093D401209330
:1011D000D3018AED91E00C94E913EF92FF920F9303
:1011E0001F93CF93DF9300D000D000D0CDB7DEB7F0
:1011F00086E0EAEDF1E0DE01119601900D928A950C
:10120000E1F7E090DC01F090DD010091DE0110914A
:10121000DF011092DC011092DD011092DE011092CC
:10122000DF018E2D8F2991F08091D5019091D6010B
:101230000E940321AC019091D801992309F43FC089
:1012400080910A018417150608F447C0802F812B6E
:1012500091F08091D3019091D4010E940321AC01BF
:101260009091D701992309F477C0809106018417E2
:10127000150608F47FC08091DC019091DD01892B77
:101280009091DE01892B9091DF01892B11F00E9452
:10129000D20886E0FE013196AAEDB1E001900D92F0
:1012A0008A95E1F726960FB6F894DEBF0FBECDBF44
:1012B000DF91CF911F910F91FF90EF9008952091B2
:1012C0000B018AE0289F900111242417350708F0AC
:1012D000BDCF9F5F9093D80102C09F3FD1F7EE2012
:1012E00059F00E947C079FEF1E140CF491E0899F37
:1012F000802D11248093DC01FF2059F00E947C078F
:101300009FEF1F140CF491E0899F802D112480938E
:10131000DD013091DC01332309F498CF2091DD0108
:10132000222309F493CF45EB3403C0011124992300
:1013300059F09093DC0145EB2403900111243323F1
:1013400039F03093DD0182CF81E08093DC01F3CF6F
:1013500081E08093DD017ACF209107018AE0289F08
:10136000900111242417350708F085CF9F5F9093D3
:10137000D70102C09F3FD1F7002359F00E94C60752
:101380009FEF10160CF491E0899F802D112480931B
:10139000DE01112359F00E94C6079FEF11160CF4CD
:1013A00091E0899F802D11248093DF013091DE012F
:1013B000332309F460CF2091DF01222309F45BCFAE
:1013C00045EB3403C0011124992359F09093DE01B9
:1013D00045EB240390011124332339F03093DF01CE
:1013E0004ACF81E08093DE01F3CF81E08093DF017B
:1013F00042CF86E0EAEDF1E0DF011D928A95E9F740
:101400001092D8011092D7011092D9010895EF924D
:10141000FF920F931F93CF93DF93EB01E82FD1112E
:1014200010C0442321F0F0E0EE50FD4FE4916E2F08
:101430007E2F8E2FDF91CF911F910F91FF90EF9014
:1014400008950D2F10E0282F30E0442329F02E506E
:101450003D4FF901249130E0F6E0CF9FC001112407
:10146000EFEFF0E0BF010E946328AB018C2F90E00A
:10147000880F991FA5E5A49FB001A59F700D1124A9
:10148000861B970B982F990F980FBF01601B710B4C
:10149000629FD001639FB00D729FB00D11248B2FFE
:1014A0009D9FB0011124672F7727EF01C61BD70B33
:1014B000BE01629FE001639FD00D729FD00D112489
:1014C0007F01E91AF108E09EB001E19E700DF09EE7
:1014D000700D1124672F7727E61BF70BE29F800121
:1014E000E39F100DF29F100D1124E12F722F423057
:1014F000510599F048F44115510569F04130510505
:1015000081F0EB2F8D2F07C04430510569F080F03A
:1015100046305105B1F76E2F8DCFE22F7B2F812FF3
:10152000FACFE22F7D2FF7CFEB2F822F712FF3CF42
:101530007B2F822FED2FEFCF41E00C94070A089507
:101540000C949C0ACF93DF93762FE901682F842FA8
:101550000E94A00A798368838A83DF91CF910895DE
:1015600080912903982F9E7F29F481708260809357
:10157000290308958635E8F381708465F8CF88E003
:1015800090E00C945529CF92DF92EF92FF926B017D
:101590007C010E94B00AB701A60188E090E0FF90AC
:1015A000EF90DF90CF900C947329E9E2F3E083E0B1
:1015B000808311828FEF82838383148260817181A3
:1015C000828193810C94C30A8091290380FF02C019
:1015D0008695089580E0089590912D03933018F436
:1015E0009F5F90932D03882351F0609129037091A0
:1015F0002A0380912B0390912C030C94C30A089525
:1016000081E00C94EC0A90912D03992319F09150EC
:1016100090932D03882351F06091290370912A0340
:1016200080912B0390912C030C94C30A089581E0C0
:101630000C94030B70E00C94871160911001809161
:10164000290380FF0AC080910F0123E0829FC0011F
:101650001124825D9C4F0C941A0B80911101909182
:10166000120123E0829FF0011124E25DFC4F8917F3
:1016700050F71182108212828F5F3396F8CF9091CB
:10168000290390FF14C0909111012091120133E0C1
:10169000939FF0011124E25DFC4F921710F00C941F
:1016A0001D0B8183608342839F5F3396F6CF08953D
:1016B000CF93DF9300D00F92CDB7DEB7909129037F
:1016C00090FF0AC09E012F5F3F4F0E94A20A4B81EC
:1016D00069818A810E943F0B0F900F900F90DF91DC
:1016E000CF910895CF93DF93EC01EC81F0E0E351CB
:1016F000FE4F4491E9E2F3E0628181810E94580B40
:101700008C818F5F8C83DF91CF910895CF93DF938E
:10171000EC01E9E2F3E0438162818C810E94580B85
:101720008C818F5F8C83DF91CF9108950F931F93EE
:10173000CF93DF9300D00F92CDB7DEB78C018091AD
:10174000E00181110AC09E012F5F3F4F4FEF6FEF05
:101750000E94A20A8A818093E001F80164816130CD
:1017600069F08091E00140E0662361F040E0623082
:1017700011F44091E00180E060E004C06091E0017C
:1017800040E080E00E943F0BF801848190E00196E8
:1017900063E070E00E94772884830F900F900F9091
:1017A000DF91CF911F910F910895AF92BF92CF9289
:1017B000DF92EF92FF920F931F93CF93DF9300D0AE
:1017C0000F92CDB7DEB7182FF62E042FE22E909190
:1017D000290390FF29C0E92FE695AE2FB0E0AF585E
:1017E000BE4F8C9180933A029E7F923059F59E01B4
:1017F0002F5F3F4F812F0E94A20A4B8169818A810E
:101800000E943F0B10932A03F0922B0300932C03AA
:10181000EE2051F06091290370912A0380912B03EF
:1018200090912C030E94C30A0F900F900F90DF91AC
:10183000CF911F910F91FF90EF90DF90CF90BF90CD
:10184000AF900895823019F400912C03DBCF8630DD
:1018500019F410912A03D6CF8930D9F3893191F642
:10186000E9518E2F8170D82EE695F0E0E351FD4FBF
:10187000A590B490C12CBB2460911301C61618F03A
:101880000E941D0BBFCF2C2D30E0A29EC001A39E55
:10189000900DB29E900D112470E00E946328812F5C
:1018A000D11013C0860F40911101420F532F511DCB
:1018B0009A01220F331F240F351F225D3C4F402F0A
:1018C0006F2D0E94A20AC394D7CF861BECCFE9E20A
:1018D000F3E09181282F4381628188E0890F0C9485
:1018E000D50B81E00C94670CE9E2F3E09181282F9D
:1018F0004381628188EF890F0C94D50B81E00C94B1
:10190000740CE9E2F3E0628121E1620F08F46FEF09
:10191000282F438181810C94D50B81E00C94810C9C
:10192000E9E2F3E0628121E1621B08F460E0282F24
:10193000438181810C94D50B81E00C94900CE9E2F9
:10194000F3E0438121E1420F08F44FEF282F628139
:1019500081810C94D50B81E00C949F0CE9E2F3E0BB
:10196000438121E1421B08F440E0282F62818181FC
:101970000C94D50B81E00C94AE0C20E00C94D50BAC
:10198000EF92FF921F93CF93DF93EC0110E0EE24D0
:10199000EA94F12C60911301161770F00E941D0B50
:1019A0009A818C8190FF27C08F5F8C83DF91CF91CC
:1019B0001F91FF90EF90089520911101422F410F48
:1019C0005527551FCA019A01220F331F280F391FAF
:1019D000225D3C4F70E0C7010E947728962F8C81D2
:1019E00040912C0360912B03199F800D11240E94BC
:1019F000A20A1F5FCFCF8150D8CFBF92CF92DF9284
:101A0000EF92FF920F931F93CF93DF93FC0182819C
:101A10000FEF80FF01E010E0809113011817C0F074
:101A20000E941D0B8091E201013009F051C081112B
:101A300002C08091130181508093E201DF91CF9128
:101A40001F910F91FF90EF90DF90CF90BF9008957E
:101A5000C0911101C12ED12CCC0DDD2DD11DCE0197
:101A6000880F991FC80FD91FC25DDC4F19821882D9
:101A70001A8234E0E32EF12CB12C8091E2018B0D1F
:101A8000813104F18F70082E000C990BC816D9060D
:101A900091F480912C038E9DA0018F9D500D1124F7
:101AA00055954795559547959E0160912B038091DB
:101AB0002A030E94A20AB00EF1E0EF1AF108E9F63B
:101AC0001F5FAACF87FFDFCF90911301890FDBCF74
:101AD00090E001966091130170E00E947728ACCFEE
:101AE0000F931F93CF93DF93809111019091120177
:101AF00023E0829FF0011124E25DFC4F891740F141
:101B0000C0E0D3E060911301C61740F10E941D0BA5
:101B100020910D018091E101820F8093E10190916C
:101B20000E01920F90930E01191654F4082E000C1A
:101B3000990B409113014150550B841795071CF0E8
:101B4000219520930D01DF91CF911F910F91089561
:101B50001182108212828F5F3396D0CF0C2F10E04B
:101B600070E0C8010E94772820911101820F482F50
:101B700050E02091E101022E000C330B02171307F5
:101B8000BCF020910E01022E000C330B2017310700
:101B90007CF08D9F90011124225D3C4F40912C03DD
:101BA00060912B0380912A030E94A20ACF5FAACFE3
:101BB000FA01EE0FFF1FE40FF51FE25DFC4F1182EB
:101BC00010821282F3CF8F929F92AF92BF92CF92E8
:101BD000DF92EF92FF920F931F93CF93DF93EC016D
:101BE0004C81042F10E09801D8010E94BB289B0172
:101BF000AC010E94D1284B015C01E0E2F0E0E01B67
:101C0000F10BA5E5B0E0AC019B010E94D1286B016E
:101C10007C019F01DF010E94B3289B01AC010E945F
:101C2000DC289B01AC01280D391D4A1D5B1DC70135
:101C3000B6010E948B28F22E822F90E039E23F15E8
:101C400060F143E0249F9001112435952795122FD0
:101C5000109500E085E5E82EEF1880911301081734
:101C600058F10E941D0B9C8181E0992319F090325C
:101C700019F48FEF80930C0180910C01890F8C83F4
:101C8000DF91CF911F910F91FF90EF90DF90CF9058
:101C9000BF90AF909F908F90089525E530E0B901F7
:101CA000681B790B9B01220F331F260F371F37FF4D
:101CB000CCCF2F5F3F4FC9CF8E2D01FD8F2D2091AF
:101CC0001101622F600F7727771F9B01220F331FAF
:101CD000260F371F225D3C4F412F60912B030E943E
:101CE000A20A0F5FBACF0F931F93CF93DF93EC013C
:101CF00010E000E0909113019017110609F06CF4C8
:101D00000E941D0B8C8190E00196817099278C8335
:101D1000DF91CF911F910F91089520911101A8019A
:101D2000420F511D9A01220F331F240F351F225DD0
:101D30003C4F4C8160912B0380912A03969590171C
:101D4000110651F04CF0442349F040912C030E94BD
:101D5000A20A0F5F1F4FCECF4423B9F340E0F7CF65
:101D60004F925F926F927F928F929F92AF92BF92AB
:101D7000CF92DF92EF92FF920F931F93CF93DF9357
:101D8000FC016280448081E08483EDEEF1E0749098
:101D9000ECE6F2E0E491812C75E0972EF2E0CF2E94
:101DA000DD24D394AA24AA94B12C55245A94E7197B
:101DB0000E2F10E080911301881690F0DF91CF91E3
:101DC0001F910F91FF90EF90DF90CF90BF90AF9059
:101DD0009F908F907F906F905F904F900C941D0B11
:101DE000E82CF12C82E0861568F09E9CF0019F9C07
:101DF000F00D1124ED51FE4F80912A0380838091D4
:101E00002B038183411023C09E9CF0019F9CF00D09
:101E10001124ED51FE4F1382128220911101C7014E
:101E2000820F911D9C01220F331F280F391F225D45
:101E30003C4F9E9CF0019F9CF00D1124ED51FE4FF4
:101E40004281618180810E94A20A8394B3CF9E9CCB
:101E5000E0019F9CD00D1124CD51DE4F8B81882352
:101E6000E9F081508B83859DC00111246C8170E065
:101E70000E946328FB01FF27E351FE4F8491E82F66
:101E8000E719E59DC0011124B8010E9463288091E3
:101E90002C03689FB00111247A83BFCF0E943029A0
:101EA00020912C03269521582C9DA0012D9D500D8D
:101EB0001124452F5527841795070CF0AECF82E0EB
:101EC000861588F40E943029B5010E9477288883FE
:101ED0000E94302920912B032695622F70E00E94EA
:101EE0007728280F29839E9CF0019F9CF00D1124D8
:101EF000ED51FE4F128280912C03893C58F088EC02
:101F00009E9CF0019F9CF00D1124ED51FE4F8483A7
:101F1000838383CF8431A0F784E1F2CFE9E2F3E059
:101F200080818E7F808360817181828193810E9414
:101F3000C30A10923B022FEF80E792E021508040CD
:101F40009040E1F700C000000C941D0B6091290344
:101F5000669570E04BE050E084E191E00E944029FA
:101F6000892B19F481E080933B020E94EB2090932F
:101F700034028093330208959091290390FF35C075
:101F80009170811128C0926090932903662351F0CB
:101F90006091290370912A0380912B0390912C0367
:101FA0000E94C30A60912903669570E04BE050E0FF
:101FB00084E191E00E944029892BA1F010923B021C
:101FC00081E08093360240912C0360912B03809135
:101FD0002A030C94BD0C8B3210F09465D5CF880F7A
:101FE000982BD2CF0E94A60FEBCF0895682F909127
:101FF0002903969581E0890F8B3208F081E00C94DB
:10200000BC0F81E00C94F60F682F909129039695F0
:102010008FEF890F09F48AE20C94BC0F81E00C94D5
:10202000041061E00C94BC0FE9E2F3E08081816070
:10203000808386950C9411108091290380FD0C9467
:102040008E0F0C94141060E00C94BC0F8091390238
:1020500081112EC00E94011F811104C00E94A51F82
:102060000E94D50A0E94BF0A6093290370932A0335
:1020700080932B0390932C036E7F61F40E94D50A0A
:102080000E94BF0A6093290370932A0380932B0355
:1020900090932C030E94B00A10923B028091290376
:1020A00080FF03C086950E94231081E0809339024F
:1020B00008950F931F93CF93DF9380913B02882362
:1020C00009F496C080913A02E0912903E695E81B55
:1020D000E0933502823091F5F0E0E751FE4FE49154
:1020E000CE2FD0E002E71BE080913602882361F01A
:1020F000109236020E94EB209093340280933302B8
:1021000010923802109237020E94EB20E0913302C5
:10211000F09134028E1B9F0B8F3F9F4708F068C0E1
:10212000EC0FFD1FF0933402E093330283E392E05F
:10213000F801DF91CF911F910F910994863049F4F6
:10214000F0E0EA51FE4FE491CE2FD0E006E81BE02C
:10215000CBCF893051F4E695F0E0ED51FE4FE4919C
:10216000CE2FD0E000EC1CE0BFCF8F3051F4E695CD
:10217000F0E0E052FE4FE491CE2FD0E00DEF1CE0F6
:10218000B3CF853149F4F0E0E352FE4FE491CE2F16
:10219000D0E000E71DE0A8CFC8E2D0E003EE1DE0EC
:1021A000883109F4A1CF833239F4EBEDF1E0C59128
:1021B000D49106E91BE098CFC4EFD1E003E71EE01D
:1021C000843209F491CFC0EDD7E00FE91AE08532EF
:1021D00009F08ACF8E2F63E00E945728E92FF0E0A4
:1021E000E852FE4FE491CE2FD0E000EB1EE07CCF12
:1021F000DF91CF911F910F910895FA01811101C0D4
:10220000FB010994CF93DF93C82FD62F0E94E40AD5
:102210008C1740F00E94E40A8D1720F4DF91CF91D3
:102220000C9401108C2FDF91CF910C9411100F930F
:102230001F93CF938C01FB01C281CC2309F465C0AD
:102240000E944A1E8272F801E35CFC45E431F1050C
:1022500038F4EA54F64D0C94AD280E941C10C0E0EE
:102260008C2FCF911F910F9108954EE050E161E0C6
:1022700070E10E94FD10F3CF41E050E16EE070E1AB
:10228000F8CF4EE75CE061E77CE0F3CF41E75CE04C
:102290006EE77CE0EECF4CE95CE06DE87CE0E9CFF6
:1022A0004DE85CE06CE97CE0E4CF4AEB5CE06BEA93
:1022B0007CE0DFCF4BEA5CE06AEB7CE0DACF47E121
:1022C0005BE060E07BE0D5CF40E05BE067E17BE096
:1022D000D0CF81E00E941110C2CF65E082E00E9461
:1022E0000211BDCF68E086E0FACF6EE089E0F7CF5B
:1022F00064E18FE0F4CF67E185E1F1CF88E1EACFD7
:1023000062E289E1ECCF83E2E5CFC1E0A9CF879A11
:1023100041B34F7751B35068EFB7F8949B01220F48
:10232000331F260F371F280F391F2817390741F48D
:10233000EFBF8FE594E00197F1F700C0000008952A
:10234000DC016D91CD0178E051BB000000C067FF5A
:1023500041BB660F000000C000C000C041BB00C010
:102360007A9591F7E2CF0F931F93CF93DF93C42F0A
:10237000D22FFC0182818823C9F040933E020E9443
:10238000EB2090933D0280933C0280E28C0F8830DA
:1023900008F050C0C77081E001C0880FCA95EAF705
:1023A000DF91CF911F910F910C94541610913E0222
:1023B000141335C080913C0290913D020E9403218C
:1023C000883C910560F5C0E2CD0F1D17B9F080E2A1
:1023D000810F883040F4177081E001C0880F1A9592
:1023E000EAF70E945B16C83048F481E09D2F977091
:1023F00001C0880F9A95EAF70E945416802F0E9418
:102400004C16C830B8F4D77081E001C0880FDA9557
:10241000EAF7DF91CF911F910F910C945B1680E248
:102420008C0F883038F4C77081E001C0880FCA95DE
:10243000EAF7EFCFDF91CF911F910F9108950F939E
:102440009C01CB01243F4CE5340759F1A8F4293D08
:10245000FCE53F0701F12A3D4CE53407D1F1283D69
:102460003C4591F406E221EE41EE68ED7CE50E94E8
:10247000B31180E00F910895263FFCE53F07E9F096
:10248000B0F0273F3C45F9F0FC018281882339F107
:1024900010923E02EFCF07E225EE45EE69ED7CE5B6
:1024A000E6CF06E221EE40EE64EF7CE5E0CF07E206
:1024B00025EE44EE65EF7CE5DACF06E221EE42EE52
:1024C00066EF7CE5D4CF07E225EE46EE67EF7CE5CC
:1024D000CECF08E221E045EE6AED7CE5C8CF81E091
:1024E000C9CFCF93DF93EC01FB018281882309F4EC
:1024F00019C1C230FCE5DF07C0F1C6319CE5D90740
:1025000030F09E012B5F3C452930310570F50E946B
:10251000141F9093630380936203C031ECE5DE07E0
:1025200009F4CFC008F05BC0C8308CE5D80709F4C7
:10253000B6C088F5C430ECE5DE0709F4A8C0C0F4E5
:10254000C2308CE5D80709F49CC080916203826098
:10255000C330DC4509F498C0809162039091630315
:102560000E94221F0E94CD1880E0DF91CF91089534
:10257000809162038061C630ECE5DE0709F484C017
:10258000809162038860C730DC4508F47DC080918B
:102590006203806279C0CC308CE5D80709F489C029
:1025A00070F4809162038C60CA30ECE5DE0709F4B8
:1025B0006BC008F478C0809162038E7F65C0CE3016
:1025C0008CE5D80709F479C0809162038B7FCF3006
:1025D000DC4508F459C0809162038F7E55C0CC3F22
:1025E000ECE5DE0709F457C030F5C3318CE5D807B8
:1025F00009F46FC078F4C131ECE5DE0709F465C079
:10260000C231DC4509F0A8CF0E94CD188091620349
:102610008F773AC0C5318CE5D80709F462C008F459
:1026200076C0809163038160CB3FDC4509F094CF95
:102630008093630391CFC115FDE5DF0709F44DC019
:1026400088F4809163038D7FCE3F9CE5D90781F3A9
:10265000809163038E7FCF3FDC4550F3809163030D
:102660008360E6CFC230FDE5DF0709F459C008F406
:1026700044C080E0C330DD4509F06ECF0E94A71F43
:102680006BCF8091620381608093620365CF8091FC
:1026900062038460F9CF809163038260C9CF809127
:1026A00062038064F1CF0E94CD188091620380683C
:1026B000EBCF809162038D7FE7CF80916203877FAC
:1026C000E3CF809162038F7DDFCF809162038F7BA8
:1026D000DBCF80916203837FD7CF809163038C7FB0
:1026E000A7CF8091620382FB992790F921E092277E
:1026F00090FB82F990FB83F9C7CF80916303982FF9
:10270000909591708E7F892B90FB81F991CF0E94DB
:10271000CD1890916203892F97FB87F98058B4CF29
:1027200081E0ACCF81E021CFCF93DF93EB01863105
:102730009C4511F50E944A1E9A81992399F08A7A44
:1027400091E009F490E090933F02811109C089E281
:102750000E94251E0E94961E80E0DF91CF91089571
:1027600085E3F6CF80913F02811104C089E20E9487
:102770002C1EF0CF85E3FBCF81E0EFCF9093450295
:10278000809344020895E0914402F091450230970D
:1027900021F00190F081E02D099480E00895E0910E
:1027A0004402F0914502309799F020912B012223A9
:1027B00059F02091620327FF07C0DC012C9111968C
:1027C0002C93119725E02C930280F381E02D09943E
:1027D0000895E0914402F0914502309739F022E0EB
:1027E000DC012C930480F581E02D0994089520915B
:1027F0004202309143022817390771F09093430247
:1028000080934202E0914402F0914502309721F01A
:102810000680F781E02D09940895209140023091BF
:1028200041022817390771F09093410280934002CA
:10283000E0914402F0914502309721F00084F18547
:10284000E02D099408950E94F7206093550270933B
:1028500056028093570290935802609351027093EE
:1028600052028093530290935402089585B7806872
:1028700085BF85B7806885BF0895089508950C9435
:102880003D1408950C9441140E94361489EF9EE182
:102890000E945A210E943E140C943F1481E0089536
:1028A0000C944E14089508950E94E2200E94700630
:1028B0000E9475210E9426100C9442148F929F92C0
:1028C000AF92BF92CF92DF92EF92FF920F931F933E
:1028D000CF93DF93CDB7DEB72A970FB6F894DEBF5C
:1028E0000FBECDBF0E9452140E9453140E94BE0618
:1028F00081110E94231457E4852E52E0952E10E09A
:1029000000E0A02E802F0E9447066C01F401E190A8
:10291000F1904F01E816F90609F45EC08091F102CA
:1029200081FD0E945006C7018C259D25B12CEE2407
:10293000E394F12C9C012E213F21232B09F446C066
:102940000E9450148823A9F0BE82AF82CE20DF20DF
:1029500081E0CD2809F480E088870E94EB20816027
:10296000782F9A8789874E815F8168858A850E9442
:102970001615000F111FF801E95BFD4F8081918151
:10298000E826F926F182E0820E9459100E94ED08A3
:102990000E94C313909146028917A9F10E94C313A4
:1029A000809346022A960FB6F894DEBF0FBECDBFC5
:1029B000DF91CF911F910F91FF90EF90DF90CF901B
:1029C000BF90AF909F908F900C942B04B394EE0C1B
:1029D000FF1CFFE0BF12AECF0F5F1F4F0530110588
:1029E00009F08FCF8FEF89838A831B820E94EB20AF
:1029F0008160782F9D838C8349815A816B818D8181
:102A00000E941615C1CF2A960FB6F894DEBF0FBEEE
:102A1000CDBFDF91CF911F910F91FF90EF90DF908D
:102A2000CF90BF90AF909F908F900895DF92EF92DC
:102A3000FF920F931F93CF93DF93CDB7DEB72B9702
:102A40000FB6F894DEBF0FBECDBF7A878B87F42E0A
:102A5000052F162FE72ED82E61110E946A1E1E82A6
:102A60001D827E2DEC82DD824F2D502F612F8D2D0A
:102A70009E812B960FB6F894DEBF0FBECDBFDF91BF
:102A8000CF911F910F91FF90EF90DF900C94431B1B
:102A9000FC01808191810C94F71DCF93C82F88236E
:102AA00009F48BC08238C1F40E94C31381FD85C034
:102AB00089E30E94251E0E94961E2FEF81EE94E06E
:102AC000215080409040E1F700C0000089E30E945F
:102AD0002C1ECF910C94961E8338A1F40E94C31330
:102AE00080FD6BC083E50E94251E0E94961E2FEF7D
:102AF00081EE94E0215080409040E1F700C000005A
:102B000083E5E5CF8438A1F40E94C31382FD55C04C
:102B100087E40E94251E0E94961E2FEF81EE94E00E
:102B2000215080409040E1F700C0000087E4CFCF03
:102B30008CEF8C0F813A90F46C2F80911F01909153
:102B400020010E94C01F882329F08C2F0E942C1E78
:102B50000E94961E8C2F0E94251EBBCF80E28C0FF8
:102B6000883048F4C77081E001C0880FCA95EAF741
:102B70000E944D1EAECFEBE5EC0FE33040F4F0E0E9
:102B8000E653FE4F808190E0CF910C94F713E8E577
:102B9000EC0FE73150F4F0E0EE0FFF1FE456FE4F6C
:102BA00080819181CF910C940D14CD3E30F08C2F0B
:102BB0000E94FF07CF910C94D208CF9108958823EB
:102BC00009F452C0823871F40E94C31381FF4CC0D3
:102BD00089E30E94251E0E94961E89E30E942C1EF6
:102BE0000C94961E833859F40E94C31380FF3CC096
:102BF00083E50E94251E0E94961E83E5EFCF843850
:102C000059F40E94C31382FF2FC087E40E94251E3F
:102C10000E94961E87E4E2CF9CEF980F913AF0F263
:102C200090E2980F983050F4877091E001C0990FAE
:102C30008A95EAF7892F0E94531ED2CF9BE5980F01
:102C4000933020F490E080E00C94F71398E5980F0F
:102C5000973120F490E080E00C940D148D3E20F02C
:102C60000E9459080C94D20808951F93CF93DF93C4
:102C7000182FEB010E944D15209731F4812FDF9121
:102C8000CF911F910C94DF158FE99FE00197F1F729
:102C900000C000002197F0CF70E060E0893311F4AC
:102CA00060E570E00C943516882321F00E944D1EDB
:102CB0000C94961E0895882321F00E94531E0C94B4
:102CC000961E0895BF92CF92DF92EF92FF920F93DC
:102CD0001F93CF93DF936C01D62FC72FFC01128176
:102CE000058102950F700E94431EE82E8823A1F0F3
:102CF000E12E112389F08C2F807F803429F080E22F
:102D00008D0FE12C883040F082E00E94E11E0E948D
:102D1000431E91E0E82EE926BC2EB2949FE0B92232
:102D2000EB2DF0E0E653F64D0C94AD280C2F0F7010
:102D3000C07F11F00295007F1123A9F0002359F004
:102D400080E28D0F883010F0D11109C0802F0E94D1
:102D50004D1E0E94961E8D2F0E944D1514C0802F6F
:102D60000E945D1EF6CF8D2F0E94DF15002359F0C3
:102D700080E28D0F883010F0D1112CC0802F0E947E
:102D8000531E0E94961E2B2D2850330B24303105E4
:102D900020F40E94C3130E942B04EE2009F49EC16C
:102DA0000E943F1E80FD9AC1F60112820E94391EC8
:102DB0000E94C51CC6010E948F180E94391EDF9117
:102DC000CF911F910F91FF90EF90DF90CF90BF9028
:102DD0000C94E61C802F0E94631ED3CFFC2FFF7043
:102DE000FF2EC07FC03219F0F29480EFF822DD236D
:102DF00069F0D13049F1112391F1002351F1F6012D
:102E0000858180FFA8CF8F70858323C0112381F037
:102E1000011106C00E947D1E8F290E945416B3CF57
:102E20000130C1F70E947D1E8F290E94831EABCF07
:102E3000011106C00E948C1E8F2D0E945B16A3CF2D
:102E4000013009F4A0CFF6CF112329F0063008F0A5
:102E50009ACF8F2DE2CF053008F095CFEDCF00232C
:102E600059F3D93349F4FFEF27EE33E0F150204016
:102E70003040E1F700C000008D2F0E94DF1583CFA6
:102E80008C2F86958695837069F0813009F07BCF11
:102E90008D2F9C2F9370111102C090E080E00E9452
:102EA0000D1471CF8D2F9C2F9370111102C090E0E3
:102EB00080E00E94F71367CF8D2F112329F00E9425
:102EC000FF070E94D2085FCF0E945908FACF8C2FCB
:102ED000837009F041C0111156CF4D2F4295469590
:102EE0004770440F440F0D2F0F7010E030E020E0CA
:102EF000042E04C0000F111F221F331F0A94D2F7A3
:102F000060E070E0CB01D4FF0FC06FE070E080E0C4
:102F100090E004C0660F771F881F991F4A95D2F76B
:102F20006095709580959095C695C695C370602BF9
:102F3000712B822B932BC23049F058F4C13019F019
:102F40000E94791C20CF0E94671C1DCF0E948B1C01
:102F50001ACF0E94651C17CF8695112311F08C2F74
:102F60008170882309F40FCF4D2F42954695477005
:102F7000440F440F0D2F0F7010E030E020E0042EBE
:102F800004C0000F111F221F331F0A94D2F760E004
:102F900070E0CB01D4FF0FC06FE070E080E090E004
:102FA00004C0660F771F881F991F4A95D2F7609556
:102FB000709580959095C695C695C370602B712BC2
:102FC000822B932BC23049F058F4C13019F00E9483
:102FD0003C1DD9CE0E942A1DD6CE0E944E1DD3CEB6
:102FE0000E949F1CD0CECF70112329F08C2F0E94FD
:102FF000C51C8D2F12CF8D2F0E945B168C2F0E9427
:10300000E61CC1CED23F89F160F4D03FC9F0D13F78
:1030100029F1112309F442C001119DCE8C2F8F712B
:1030200021C0D33F39F1D43FA1F7112369F1CF710A
:103030008C2F0E94C51C63E08C2F0E94CC1EA3CE57
:10304000112341F0053008F09ECE8C2F8F710E9425
:10305000091D99CE063008F096CEF7CF8C2F8F71D0
:10306000112369F20E94C51C8ECE8C2F8F71112303
:10307000C9F3C5CF112329F08C2F8F710E94B01C8A
:1030800082CE0E94AB1C7FCE81E00E94E11E023006
:1030900008F479CE82E00E94E11E75CE002359F03B
:1030A000D93309F0E9CE8FEF97EEE3E081509040FD
:1030B000E040E1F7DFCE8C2F8F71A1CF4C2F4F7006
:1030C0006D2FC6010E9433040E94DD1B5CCE4C2F85
:1030D0004F706D2FC6010E94360455CEDF91CF91FF
:1030E0001F910F91FF90EF90DF90CF90BF900895C8
:1030F0000F931F93CF93DF93EC01688179818A81CD
:103100000E94011E8C010E94601D0E94641CB80177
:10311000CE01DF91CF911F910F910C946216CF9346
:10312000DF93EC018B819C81892B29F08881998127
:1031300089238F3F59F4DF91CF910895CE010E94EA
:103140007818CE01DF91CF910C947103CE010E94CB
:1031500098038111F3CF0E94431E882361F38A8173
:10316000882349F382E0DF91CF910C94E11E90E037
:1031700080E00E94F71390E080E00E940D140E940E
:103180006A1E0E947A1E0E94961E0E94F9090C94E3
:10319000D2080E94331E0C94B7180E945A1E0C9439
:1031A000C918E92FE295EF70E250EE3070F4F0E0CC
:1031B000E652F64D0C94AD28803F19F020F4883E7D
:1031C00020F481E00895843FE1F380E00895883E93
:1031D000C0F3813FD1F7F5CF93FB882780F908959D
:1031E0000E94F71D0C94D118CF93DF9300D000D02C
:1031F0000F92CDB7DEB70F900F900F900F900F90FA
:10320000DF91CF910895CF93DF9300D000D000D00D
:10321000CDB7DEB726960FB6F894DEBF0FBECDBF92
:10322000DF91CF9108951F93CF93DF93C0915A02FE
:1032300016E080915B028C1304C0DF91CF911F9147
:103240000895D0E01C9FF0011D9FF00D1124E45A59
:10325000FD4F4081518162817381848195810E94FB
:1032600003192196C770E5CF40918C0250918D02D1
:1032700060918E0270918F028091900290919102E4
:103280000C9403191F93CF93DF9380919102807F59
:10329000A9F480918E02882389F080915A02C0910E
:1032A0005B0260918C0270918D02A0918F02B091AF
:1032B0009002D62FD72316E0C81304C0DF91CF9118
:1032C0001F91089590E0109711F0DF3F19F40196D7
:1032D0008770F2CF189F9001199F300D1124F901CA
:1032E000E45AFD4F41814713F2CF40814613EFCF9F
:1032F00042814111ECCF438154814A1B5B0B483C16
:10330000510528F7809191028F708061809391021E
:10331000F901EF59FD4F80818F70806180838CE8C7
:1033200092E00E948F18DF91CF911F910C94131996
:10333000AF92BF92CF92DF92EF92FF920F931F93C3
:10334000CF93DF93CDB7DEB761970FB6F894DEBFAA
:103350000FBECDBF8C0185E0F801DE011D96019006
:103360000D928A95E1F7F80140815181E2808CE865
:10337000C82E82E0D82E60918F0270919002611564
:10338000710509F461C190918C0220918D02892F01
:1033900082238F3F09F458C1A380B480F0908E023D
:1033A000F501E61BF70BFF2009F4FCC080919102A8
:1033B000382F307FE83CF10508F0B2C0311179C0F8
:1033C000FE2C251323C0941321C0E1101FC08F7061
:1033D0008061809391020E943419C6010E948F1867
:1033E00080919102F80185838F2D61960FB6F89434
:1033F000DEBF0FBECDBFDF91CF911F910F91FF9028
:10340000EF90DF90CF90BF90AF900895AB2829F058
:10341000842F85238F3F09F033C180E0F82FF170AE
:10342000DF2E80FF3CC080915A0220915B0236E083
:10343000821315C04D875E878D859E850E94F71D7E
:10344000292F22952F702230F0F0243018F59F702C
:10345000F1F0F8019581907FD1F4D12C1EC090E05D
:10346000389FF001399FF00D1124E45AFD4F61811E
:10347000651306C06081641303C062816E110FC0C2
:1034800001968770D5CF9F7011F0882331F3805E4D
:10349000883018F3C8010E948F18FD2CA5CFEE20AC
:1034A00009F4A2CF80919102816080939102F12C66
:1034B0009BCF251306C0941304C0F801EE2009F435
:1034C0008DC04D875E878D859E850E94F01888236C
:1034D00019F1EE2009F180919102803270F0209173
:1034E0008C0230918D0238872F831986BB86AA867D
:1034F0008C87CE0107960E948F1886E0F801ACE811
:10350000B2E001900D928A95E1F70E9442190E9463
:103510003419FF24F39468CFC8010E948F18F9CFA3
:10352000311113C07A2DB98AA88A6E2D89890E941B
:10353000F4188CE892E00E948F1886E0F601119250
:103540008A95E9F70E943419B2CF25130FC094135E
:103550000DC0E1100BC0F8018583C8010E948F18CF
:1035600086E0F60111928A95E9F73ECF4D875E8796
:103570008D859E850E94F018882371F2EE2061F2FD
:1035800080919102803208F4B8CF20918C02309162
:103590008D023A8329831B82BD82AC828E83CE0149
:1035A0000196A9CFE83CF10508F041C0FE2CEE20C1
:1035B00009F4B2CF25132AC0941328C08091910238
:1035C00080FD1BC0982F907FC1F0F8018583903F4C
:1035D00031F0982F907F905F8F70892B8583C80181
:1035E0000E948F1886E0F801ACE8B2E001900D92DD
:1035F0008A95E1F70E943419F7CE86E0F801ACE82D
:10360000B2E001900D928A95E1F7EECE4D875E878C
:103610008D859E850E94F01881116FCF8091910257
:10362000816080939102C8010E948F18DDCE7A2DAF
:10363000B98AA88A6E2D89890E94F41886E0F6015D
:1036400011928A95E9F7D6CFEE2009F465CF4D8720
:103650005E878D859E850E94F018F82E882309F4D8
:103660005BCF86E0F801ACE8B2E001900D928A955C
:10367000E1F78CE892E00E9448150E944219BACF07
:1036800081E08E25CBCE1F93CF93DF93CDB7DEB7EE
:103690002C970FB6F894DEBF0FBECDBF4F8358876F
:1036A00069877A878B879C87CE0107960E94981935
:1036B000882369F08A859B85892B39F04F8158854D
:1036C000842F85238F3F09F071C016E05FC086E02C
:1036D000FE013796DE01119601900D928A95E1F771
:1036E0008A859B85892B89F38F81988589238F3FD4
:1036F00061F320915B0230E0C90101968770992740
:1037000040915A024817190671F40E94CD18109280
:103710005B0210925A0286E0ECE8F2E0DF011D92B3
:103720008A95E9F7D2CF96E0929FD001939FB00D92
:103730001124A45ABD4FFE01319601900D929A9525
:10374000E1F780935B020E941319BFCF819FC001F4
:103750001124845A9D4F0E9498198823E9F0E09122
:103760005A021E9FF0011124E45AFD4F40815181FD
:1037700062817381848195810E94031980915A022C
:1037800090E001968770992780935A0280915A029F
:1037900090915B028913DACF2C960FB6F894DEBFB6
:1037A0000FBECDBFDF91CF911F91089569857A85B6
:1037B0008B859C850E94031988CFEF92FF920F930F
:1037C0001F93CF93DF938C01892B81F0F12CEE2492
:1037D000E394E8012196F8018491843770F48430F1
:1037E00008F05FC08130B1F08230A1F1DF91CF915C
:1037F0001F910F91FF90EF900895853709F44CC009
:1038000008F43DC09CE7980F903780F78F770E94AF
:10381000DF1549C00E5F1F4FFE01849190E2980FA3
:10382000983060F48770FE2D01C0FF0F8A95EAF78B
:103830008F2F0E946D1E0E94961E02C00E944D1581
:103840008F2D815030F2EFE9FFE03197F1F700C0A2
:103850000000F7CF0E5F1F4FFE01849190E2980F9A
:10386000983050F48770FE2D01C0FF0F8A95EAF75B
:103870008F2F0E94731EDFCF0E94DF15E1CF0E5FF6
:103880001F4FFE01C491C150D8F28FE99FE001970C
:10389000F1F700C00000F7CF0E5F1F4FFE01F4905C
:1038A000CFCF0E944D158E01CBCF08950C94551C9F
:1038B0000E94561C6093C8027093C9028093CA028A
:1038C0009093CB020C94B71808950C94581C0F9346
:1038D0001F930091C8021091C9022091CA02309131
:1038E000CB02602B712B822B932B1F910F910C9489
:1038F000581C0F931F930091C8021091C902209188
:10390000CA023091CB0260237123822393231F913B
:103910000F910C94581C0F931F930091C8021091A3
:10392000C9022091CA023091CB02602771278227F9
:1039300093271F910F910C94581C0C940D030E9417
:103940009D1C6093C4027093C5028093C60290933D
:10395000C7020C94B71860E070E0CB010C949F1C78
:103960000F931F9341E050E060E070E08A019B01FB
:1039700004C0000F111F221F331F8A95D2F7C901FF
:10398000B8011F910F910C949F1C0F931F9341E05E
:1039900050E060E070E004C0440F551F661F771FC1
:1039A0008A95D2F78091C4029091C502A091C60277
:1039B000B091C7028A019B01082B192B2A2B3B2BA4
:1039C000C901B8011F910F910C949F1C0F931F9375
:1039D00041E050E060E070E004C0440F551F661FF6
:1039E000771F8A95D2F7CB01BA01609570958095C3
:1039F00090950091C4021091C5022091C6023091A9
:103A0000C70260237123822393231F910F910C948B
:103A10009F1C0F931F9341E050E060E070E004C0F2
:103A2000440F551F661F771F8A95D2F78091C402F5
:103A30009091C502A091C602B091C7028A019B0174
:103A4000082719272A273B27C901B8011F910F9181
:103A50000C949F1C0F931F930091C4021091C502F8
:103A60002091C6023091C702602B712B822B932BC1
:103A70001F910F910C949F1C0F931F930091C402F0
:103A80001091C5022091C6023091C70260237123B4
:103A9000822393231F910F910C949F1C0F931F93CC
:103AA0000091C4021091C5022091C6023091C70254
:103AB00060277127822793271F910F910C949F1CD9
:103AC00008952FE0929F800D1124982F977041E068
:103AD00001C0440F9A95EAF786958695869595E0FC
:103AE000899FF0011124EE56FD4F90E080E070E0D8
:103AF0005191DF0111979B01082E02C03695279541
:103B00000A94E2F7217021952527242325272C9359
:103B100001968530910561F708952FE0929F800D01
:103B20001124982F977086958695869525E0829F1B
:103B3000F0011124EE56FD4F50E040E080E021916D
:103B400030E0092E02C0369527950A94E2F72170DD
:103B50003327042E01C0220F0A94EAF7822B4F5F0D
:103B60005F4F4530510559F70895BF92CF92DF92CC
:103B7000EF92FF920F931F93CF93DF938C01C0902E
:103B8000C402D090C502E090C602F090C7028091B6
:103B9000C8029091C902A091CA02B091CB02C82A72
:103BA000D92AEA2AFB2ACFE1D0E0BC2ED701C601F0
:103BB0000C2E04C0B695A795979587950A94D2F7D1
:103BC00080FD0EC0219788F7B12C8B2DDF91CF910E
:103BD0001F910F91FF90EF90DF90CF90BF900895CD
:103BE000B8018C2F0E945304019761F3EECFCF935D
:103BF000DF93EC010E94B51DBE01DF91CF910C94C3
:103C000053041F93CF93DF93EB01909159029923B3
:103C100031F0CB01DF91CF911F910C94F71D8823D8
:103C200079F0CB010E94B51D182F682FCE010E949C
:103C3000611DBE01812FDF91CF911F910C94530420
:103C4000CB010E948D1D182FF4CF682F80911F018A
:103C5000909120010C944020682F80911F01909139
:103C600020010C944B2080911F01909120010C9415
:103C700056208091CC0285958595859508958091F3
:103C8000CC02877008959091CC02977081E009F47E
:103C900080E008958091F00208959091F002892BC0
:103CA0008093F002089580959091F002982390936C
:103CB000F00208951092F00208959091EF02892B7E
:103CC0008093EF02089580959091EF02982390934E
:103CD000EF0208951092EF0208959091EE02892B61
:103CE0008093EE02089580959091EE029823909330
:103CF000EE0208951092EE0208958091CD0208958B
:103D000008950C94801E9091CD02981721F0809315
:103D1000CD020C94811E08958091CD02882329F054
:103D20001092CD0280E00C94811E0895E0911F0155
:103D3000F09120018091F0028083E0911F01F091C9
:103D4000200180819091EF02892B8083E0911F01F7
:103D5000F091200180819091EE02892B80839091D7
:103D6000CD02992381F0E0911F01F0912001808123
:103D7000892B808380911F01909120010E94AC1FAC
:103D800081110E948C1E80911F01909120010C9442
:103D9000CF1308950C94C91E98E0899F90011124B7
:103DA000622B6093CC020E94C51C8091CC02859549
:103DB000859585950C94CA1E1092CC0280E00C94D7
:103DC000CA1E9091CC02809589238093CC02282F23
:103DD000277071F4282F082E000C330B921713064E
:103DE00039F08595859585950E94E61C0C94DC1E1E
:103DF000089580E008956FEF7FEF90E080E00C94ED
:103E00007F2990E080E00E945B2921E08B3E9E4F5D
:103E100009F020E0822F089582E090E00C944D2973
:103E200083E090E00C944D29CF9384E090E00E94D1
:103E30004D29C82F81E290E00E944D29982F8C2FA8
:103E4000CF910895CF93C92F682F84E090E00E940E
:103E500061296C2F81E290E0CF910C946129AB0134
:103E6000BC018FE090E00C947329AB01BC0183E1AD
:103E700090E00C94732960E070E0CB010C94351F46
:103E800060E070E0CB010E942F1F0C943B1F6BEE93
:103E90007EEF90E080E00E947F2960E082E090E089
:103EA0000E94612960E083E090E00E946129109205
:103EB000C8021092C9021092CA021092CB0260E0AE
:103EC00084E090E00E94612960E081E290E00E943D
:103ED000612960E085E090E00E94612960E086E071
:103EE00090E00E9461296FEF87E090E00E946129D5
:103EF00040E050E0BA0188E090E00E94732960E061
:103F00008DE090E00E94612940E050E0BA0188E134
:103F100090E00E94732960E087E190E00E946129AF
:103F200040E050E0BA018CE190E00E94732960E02B
:103F300080E290E00E94612940E050E0BA0188E10F
:103F400090E00E9473290C94401F0C94471F682F27
:103F50008EE090E00C946129FC01329680912B0157
:103F6000882321F0809162039EE187FF96E080E044
:103F7000915008F4089521912223D1F38F5FF8CF57
:103F8000662301F120912B012223F1F0209162039D
:103F900027FF1AC0462F4695469546954E3190F418
:103FA000677021E030E002C0220F331F6A95E2F70C
:103FB000840F911DFC01828190E02823392381E048
:103FC000232B69F480E00895FC0132960896219134
:103FD000261721F0E817F907D1F7F4CF81E008950B
:103FE0009C01FC0132969FEF80E04191461751F011
:103FF0009F3F19F4411101C0982F8F5F8630A9F7B8
:104000009F3F09F40895290F311D97FD3A95F90155
:1040100062830895FC01329608962191261303C00D
:10402000DF0111971C92E817F907B9F70895E62FF9
:10403000E695E695E695EE3168F4E80FF92FF11D67
:10404000677021E030E001C0220F6A95EAF78281B3
:10405000822B82830895E62FE695E695E695EE316C
:1040600070F4E80FF92FF11D677021E030E001C016
:10407000220F6A95EAF720958281282322830895EA
:1040800020912B01222329F02091620327FD0C941B
:1040900017200C94F01F20912B01222329F020914E
:1040A000620327FD0C942B200C940A20FC0132960D
:1040B00080912B01882351F08091620387FF06C015
:1040C0008EE1DF011D928A95E9F7089586E0F9CF28
:1040D000089508950C94692080916803843049F113
:1040E0000E946A2080E00E942B041092F20288E174
:1040F00090E020E40FB6F894A895809360000FBE7E
:104100002093600083B7817F846083BF83B7816021
:1041100083BF7894889583B78E7F83BF0FB6F8945A
:10412000A895809160008861809360001092600083
:104130000FBE08950895CF930E9468200E94BE0686
:104140000E949A20C0E08C2F0E944706892B31F4F0
:10415000CF5FC530C1F780E0CF91089581E0FCCFFB
:1041600008950C94B0200E94CD180E94C3130E94A1
:104170002B040C94B1201F921FB61F9211248F9311
:104180009F93AF93BF938091F202811113C08091EE
:104190005E0390915F03A0916003B091610341962B
:1041A000A11DB11D80935E0390935F03A0936003F4
:1041B000B0936103BF91AF919F918F911F901FBEEC
:1041C0001F90189582E084BD93E095BD9AEF97BD4E
:1041D00080936E0008952FB7F89480915E039091BC
:1041E0005F03A0916003B09161032FBF08952FB7C3
:1041F000F89460915E0370915F03809160039091E9
:1042000061032FBF08959C014FB7F89480915E031E
:1042100090915F03A0916003B09161034FBF821B37
:10422000930B089578941F921FB61F9211248F93B9
:104230009F93AF93BF9380915E0390915F03A09192
:104240006003B09161030196A11DB11D80935E03CF
:1042500090935F03A0936003B0936103BF91AF910C
:104260009F918F911F901FBE1F90189581E08093A2
:10427000E00080E28093D8001092C9008FE19EE4B4
:104280000197F1F700C0000087E090EBDC0180931C
:10429000710390937203A0937303B093740388E146
:1042A0009CE00FB6F894A895809360000FBE9093A1
:1042B0006000FFCF9093CF018093CE0108950C94BE
:1042C000FB1E0E94BE068FE39CE90197F1F700C038
:1042D00000000E94BE0680E00E94470680FF04C0E6
:1042E0000E945F210C94362108950E94011F8111C4
:1042F00002C00E94A51F0E940C1F8093F1020E9421
:10430000141F90936303809362030E94101F682F11
:1043100070E090E080E00E94651C6091C4027091A2
:10432000C5028091C6029091C7020C949D1C809199
:1043300013030895CF93DF9300D00F92CDB7DEB76C
:1043400090916803943019F589837B836A8382E0B6
:104350008093E9008FEF9091E800815095FD06C0B1
:1043600095ED9A95F1F700008111F5CF8091E80065
:1043700085FF0DC050E040E063E070E0CE010196A3
:104380000E94C6238091E8008E778093E8000F900A
:104390000F900F90DF91CF910895BC0184E00C94B1
:1043A0009A21BC0183E00C949A219C0182E08093C5
:1043B000E9009FEF8091E800915085FD06C085EDF2
:1043C0008A95F1F700009111F5CF8091E80085FF03
:1043D0000CC050E040E066E070E0C9010E94C623D6
:1043E0008091E8008E778093E8000895CF93DF9363
:1043F000EC0180912B018823B1F18091620387FF4A
:1044000032C060E282E08093E9008FEF9091E80093
:10441000815095FD06C095ED9A95F1F70000811148
:10442000F5CF8091E80085FF1BC080912B0170E0E3
:1044300050E040E0811104C050E040E068E070E0EE
:10444000CE010E94C6238091E8008E778093E80019
:1044500080E2FE01A3EFB2E001900D928A95E1F7B0
:10446000DF91CF91089568E081E0CDCF809167031F
:10447000811109C00E9456250E94B3258091E20057
:1044800084608093E2000895109267030895089570
:104490000895089542E061EC81E00E94D22442E256
:1044A00061EC82E00C94D22480916A03833009F499
:1044B0005FC030F48130C1F1823009F49BC00895AF
:1044C0008A3009F487C08B3009F46DC0893009F057
:1044D0004EC080916903813209F049C080916D031B
:1044E00090916E03029708F042C08091E800877FA8
:1044F0008093E8008091E80082FF35C09091F3003E
:104500008091F200029729F48091F1008B7F813035
:1045100021F48091F100809313038091E8008B7760
:104520008093E8000C94062580916903813AF9F4A0
:104530008091E800877F8093E80080916D039091DF
:104540006E03892B61F460E283EF92E070E00E94D9
:1045500015248091E8008B778093E800089560E04F
:1045600090E080E0F3CF809168038111C3CF08957C
:1045700080916903813AD9F780916D0390916E0320
:10458000892BA9F78091E800877F8093E8008091CC
:10459000E80080FFFCCF80912B018093F100809197
:1045A000E8008E77BDCF80916903813201F7809159
:1045B0006D0390916E03892BD1F68091E800877F7F
:1045C0008093E8000E94062580916B0380932B0165
:1045D0000C94CD1880916903813249F68091E800EE
:1045E000877F8093E8000E94062580916C0380936A
:1045F0001403089580916903813A09F0B8CF80913E
:10460000E800877F8093E8008091E80080FFFCCF7E
:1046100080911403C2CF84B7877F84BF0FB6F8940C
:10462000A89580916000886180936000109260007E
:104630000FBE80E890E00FB6F894809361009093ED
:1046400061000FBE0E9444140E9456250E94B325AB
:104650008091E20084608093E20078940E943C287C
:104660000E94541481E291E00E94BE13809168037D
:104670008530A9F00E945E140E9452140E945314C7
:10468000F5CF0E946C2080916603882341F00E9440
:104690009B20882321F00E94B0230E94CD18809196
:1046A0006803853071F30E94B320E4CF0C94582343
:1046B000292F33272330310519F168F421303105D2
:1046C00009F444C02230310509F445C090E080E08F
:1046D00030E020E025C02132310549F12232310598
:1046E000A9F780E490E025E335E061157105C1F09C
:1046F00086EB90E02FE734E06130710589F0E6CF7A
:1047000099278130910581F0009729F00297F1F601
:10471000E2EFF3E002C0EEE2F4E0849190E09F016A
:10472000FA01318320830895E8E1F4E0F6CF89E0CF
:1047300090E024E434E06115710591F389E090E0A4
:104740002DE534E06130710559F3C0CF82E190E08E
:104750002DE634E0E5CF8BE390E022E334E0E0CFD8
:1047600080E189BD82E189BD09B400FEFDCF809161
:10477000D8008F7D8093D8008091E0008260809384
:10478000E0008091E00081FDFCCF0895AF92BF92E0
:10479000CF92DF92FF920F931F93CF93DF936C0121
:1047A000EB018A010E942525F82E811123C00115F5
:1047B000110539F0F80180819181C81BD90BC80E11
:1047C000D91EB12CA12C2097A9F08091E80085FD7D
:1047D00022C08091E8008E778093E80001151105D2
:1047E000A1F0F80180819181A80EB91EB182A0824A
:1047F00085E0F82E8F2DDF91CF911F910F91FF90C3
:10480000DF90CF90BF90AF9008950E942525882318
:10481000D1F2F82EEFCFF60181916F018093F10074
:104820002197FFEFAF1ABF0ACECFFC0180916F0333
:104830009091700386179707A0F06115710529F410
:104840009091E8009E779093E80090E061157105E3
:1048500051F4911108C08091E80082FF34C080E0DB
:104860000895BC01F2CF809168038823C1F185309F
:10487000C1F18091E80083FD30C08091E80082FDA5
:10488000EACF8091E80080FFE1CF8091F300209192
:10489000F200382F6115710519F02830310558F0F4
:1048A00091E02830310509F090E02091E8002E7762
:1048B0002093E800CBCF81918093F1006150710982
:1048C0002F5F3F4FE7CF80916803882341F0853009
:1048D00041F08091E80083FFBECF81E0089582E03F
:1048E000089583E00895FC0180916F039091700317
:1048F00086179707A0F06115710529F48091E800EB
:104900008E778093E80090E06115710551F4911164
:1049100008C08091E80082FF35C080E00895BC01A6
:10492000F2CF809168038823C9F18530C9F1809165
:10493000E80083FD31C08091E80082FDEACF8091DC
:10494000E80080FFE1CF8091F3002091F200382F42
:104950006115710519F02830310558F091E02830C3
:10496000310509F090E08091E8008E778093E800AF
:10497000CBCF84918093F1003196615071092F5F04
:104980003F4FE6CF80916803882341F0853041F0A6
:104990008091E80083FFBDCF81E0089582E0089513
:1049A00083E00895982F973028F08F708093E90066
:1049B00081E008959093E900242F762F50E0981716
:1049C00031F07091EC002091ED005091F00021FD4C
:1049D00002C09F5FE8CF3091EB003E7F3093EB0049
:1049E0003091ED003D7F3093ED003091EB00316070
:1049F0003093EB007093EC002093ED005093F000A7
:104A00002091EE0027FDE5CF80E0089580916903B5
:104A100087FF13C08091E80082FF06C08091E80004
:104A20008B778093E80004C0809168038111F2CFF6
:104A30000895809168038823D9F38091E80080FF6E
:104A4000F8CF8091E8008E77ECCF2091E400309190
:104A5000E50095E6A9012091EC00822F817020FFEE
:104A600006C08091E80080FF06C080E00895209194
:104A7000E80022FD1AC080916803882389F0853000
:104A800089F08091EB0085FD0FC02091E40030910A
:104A9000E50042175307F9F29150E1F684E00895DA
:104AA00082E0089583E0089581E008950E94C4257E
:104AB0000E94CC25E0EEF0E0808181608083E8ED0B
:104AC000F0E080818F77808319BCA7EDB0E08C91F6
:104AD0008E7F8C9380818F7E8083109267030895F0
:104AE0000F931F93CF93DF930E94C4250E94CC2580
:104AF000C8EDD0E088818F7788838881806888833B
:104B000088818F7D888319BC10926803109264039A
:104B1000109266031092650300EE10E0F8018081A8
:104B20008B7F808388818160888342E060E080E0C1
:104B30000E94D224E1EEF0E080818E7F8083E2EE5D
:104B4000F0E0808181608083808188608083F801CB
:104B500080818E7F8083888180618883DF91CF917F
:104B60001F910F910895E8EDF0E080818F7E8083A2
:104B7000E7EDF0E080818160808384E082BF81E0A6
:104B8000809367030C947025E8EDF0E080818E7FC0
:104B900080831092E20008951092DA001092E100F2
:104BA00008951F920F920FB60F9211242F933F93E7
:104BB0004F935F936F937F938F939F93AF93BF9325
:104BC000EF93FF938091E10082FF0BC08091E200A0
:104BD00082FF07C08091E1008B7F8093E1000E94FB
:104BE0003B288091DA0080FF19C08091D80080FFB7
:104BF00015C08091DA008E7F8093DA008091D90011
:104C000080FF96C080E189BD82E189BD09B400FEC4
:104C1000FDCF81E0809368030E9436228091E100FD
:104C200080FF19C08091E20080FF15C08091E200F2
:104C30008E7F8093E2008091E20080618093E200A9
:104C40008091D80080628093D80019BC85E0809361
:104C500068030E9448228091E10084FF2BC080916C
:104C6000E20084FF27C080E189BD82E189BD89B56A
:104C7000982F917080FFFBCF8091D8008F7D80931B
:104C8000D8008091E1008F7E8093E1008091E20066
:104C90008F7E8093E2008091E20081608093E20049
:104CA00080916403882309F449C084E080936803F9
:104CB0000E9449228091E10083FF29C08091E20097
:104CC00083FF25C08091E100877F8093E10082E02F
:104CD00080936803109264038091E1008E7F80933B
:104CE000E1008091E2008E7F8093E2008091E200FB
:104CF00080618093E20042E060E080E00E94D22484
:104D00008091F00088608093F0000E944722FF911C
:104D1000EF91BF91AF919F918F917F916F915F9133
:104D20004F913F912F910F900FBE0F901F901895AC
:104D300019BC109268030E94442270CF8091E30056
:104D400087FD93E090936803B3CF1F920F920FB645
:104D50000F9211242F933F934F935F936F937F9301
:104D60008F939F93AF93BF93CF93DF93EF93FF9373
:104D7000D091E900DF708091EC00C82FC17080FDF8
:104D8000C0E81092E9008091F000877F8093F000E6
:104D900078940E94E9261092E9008091F0008860E2
:104DA0008093F000CD2BCF70C093E900FF91EF917D
:104DB000DF91CF91BF91AF919F918F917F916F9133
:104DC0005F914F913F912F910F900FBE0F901F90C9
:104DD00018951F93CF93DF93CDB7DEB7AA970FB681
:104DE000F894DEBF0FBECDBF89E693E02091F100BD
:104DF000FC012193CF01F3E081379F07B9F70E94AF
:104E000054228091E80083FF1EC180916903909134
:104E10006A039A3008F017C1E92FF0E0E851F64D27
:104E20000C94AD28803899F0823809F00CC180913B
:104E30006D038F70873008F006C18093E900809180
:104E4000EB0085FB882780F91092E90006C080916D
:104E5000650390916603911182609091E800977FBD
:104E60009093E8008093F1001092F1008091E800A7
:104E70008E77E5C0882309F4D3C0823009F0E3C0FF
:104E800080916B038111D6C080916D038F702FEFDD
:104E9000280F263008F0D7C08093E9002091EB005E
:104EA00020FFC8C0933031F48091EB008062809382
:104EB000EB00C0C09091EB0090619093EB0021E07B
:104EC00030E001C0220F8A95EAF72093EA001092A1
:104ED000EA008091EB008860EACF8111B4C01091A4
:104EE0006B031F778091E3008078812B8093E30030
:104EF0008091E800877F8093E8000E9406258091DA
:104F0000E80080FFFCCF8091E30080688093E3009D
:104F100082E0111183E08093680395C0805882304D
:104F200008F091C080916B0390916C038C3D23E05D
:104F30009207A1F583E08A838AE289834FB7F894C8
:104F4000DE01139620E03EE051E2E32FF0E05093C3
:104F50005700E49120FF03C0E295EF703F5FEF70D0
:104F60008E2F90E0EA30C0F0C7968D939D932F5F0F
:104F7000243159F74FBF8091E800877F8093E80084
:104F80006AE270E0CE0101960E9415248091E8004B
:104F90008B778093E80057C0C096E7CF60916D0390
:104FA00070916E03AE014F5F5F4F0E945623BC01AC
:104FB000892B09F448C09091E800977F9093E8000E
:104FC00089819A810E947324E1CF8038E1F5809134
:104FD000E800877F8093E800809164038093F1006C
:104FE00045CF811130C090916B03923060F5809174
:104FF000E800877F8093E800909364030E94062571
:1050000080916403882311F084E005C08091E3005F
:1050100087FDFACF81E0809368030E944A2213C083
:1050200080916B03813079F481E0933009F080E066
:10503000809366031092E9008091E800877F809357
:10504000E8000E9406258091E80083FF0AC0809155
:10505000E800877F8093E8008091EB008062809376
:10506000EB00AA960FB6F894DEBF0FBECDBFDF915E
:10507000CF911F9108950895CF938091680388235D
:10508000A1F0C091E900CF709091EC00892F817060
:1050900090FD80E8C82B1092E9008091E80083FD24
:1050A0000E94E926CF70C093E900CF910895991B23
:1050B00079E004C0991F961708F0961B881F7A950F
:1050C000C9F780950895AA1BBB1B51E107C0AA1F11
:1050D000BB1FA617B70710F0A61BB70B881F991F99
:1050E0005A95A9F780959095BC01CD01089597FB3D
:1050F000072E16F4009407D077FD09D00E9463288C
:1051000007FC05D03EF4909581959F4F08957095CA
:1051100061957F4F0895A1E21A2EAA1BBB1BFD01CA
:105120000DC0AA1FBB1FEE1FFF1FA217B307E40786
:10513000F50720F0A21BB30BE40BF50B661F771FDE
:10514000881F991F1A9469F76095709580959095BE
:105150009B01AC01BD01CF010895EE0FFF1F05902B
:10516000F491E02D09940E94BB28332312F48A1B8A
:105170009B0B0C94CC28A29FB001B39FC001A39FAE
:10518000700D811D1124911DB29F700D811D112480
:10519000911D08950E94BB28B7FF0895821B930BB1
:1051A00008950E94BB28A59F900DB49F900DA49FC9
:1051B000800D911D11240895B7FF0C94D1280E94F1
:1051C000D128821B930B08958F929F92AF92BF922A
:1051D000CF92DF92EF92FF92CF93DF93EC01688141
:1051E00079818A819B81611571058105910521F481
:1051F00064E279ED8BE597E02DE133EF41E050E09B
:105200000E94952949015A019B01AC01A7EAB1E42A
:105210000E94D1286B017C01ACEEB4EFA501940192
:105220000E94DF28DC01CB018C0D9D1DAE1DBF1D32
:10523000B7FF03C00197A109B04888839983AA8367
:10524000BB839F77DF91CF91FF90EF90DF90CF905E
:10525000BF90AF909F908F9008950E94E42808958A
:1052600080E091E00E94E4280895B0E0A0E08093FF
:10527000000190930101A0930201B09303010895EE
:10528000FC014150504030F001900616D1F73197A3
:10529000CF010895882799270895F999FECF92BDE7
:1052A00081BDF89A992780B50895A6E1B0E044E061
:1052B00050E00C948729A8E1B0E042E050E00C9463
:1052C0008729262FF999FECF92BD81BDF89A0197C3
:1052D00000B4021639F01FBA20BD0FB6F894FA9A3E
:1052E000F99A0FBE08950396272F0E9462290E9403
:1052F0006129252F0E946229242F0C94622901968E
:10530000272F0E9462290C946129DC01CB01FC014A
:10531000F999FECF06C0F2BDE1BDF89A319600B40E
:105320000D9241505040B8F70895052E97FB1EF49A
:1053300000940E94AC2957FD07D00E948B2807FCDF
:1053400003D04EF40C94AC2950954095309521959E
:105350003F4F4F4F5F4F08959095809570956195A1
:105360007F4F8F4F9F4F0895F894FFCF2D11351128
:105370003C11411146114B11501155115A115F1139
:10538000641169116D117211751178117B117E1103
:105390008011831196169616EE16EE1640175C17BE
:1053A000C316C3166717F317021802185E18C31640
:1053B000C3166718DC18DC18E518E518E718E518B7
:1053C000E518E518DC18DC18EC18E518E518EC18F9
:1053D00012273A2723283A2723286D278E272328A8
:0453E000E527F127A5
:1053E400010000002808641E140A321E0101020094
:1053F4001000101001191A1B1C1D1E1F202122CE83
:10540400029721F621D521D121CD2101E200E90025
:10541400EA00B500B600B700CD008301CC008A01D4
:10542400920194012102230224022502260227026A
:105434002A02B300B4006F007000818283F0F1C6C9
:10544400676636943130373534979633909192931A
:105454009500010202020206060609090909090962
:105464000F0F0F0F0F0F15151518191919191919F1
:10547400191919192324252525252525E200E900D4
:10548400EA00B500B600B700CD008301CC008A0164
:1054940092019401210223022402250226022702FA
:0E54A4002A02B300B4006F0070008182830002
:00000001FF
