:100000000C94B8020C94FF020C94FF020C94FF02B3
:100010000C94FF020C94FF020C94FF020C94FF025C
:100020000C94FF020C94FF020C94D5250C94A92685
:100030000C94BF200C94FF020C94FF020C94FF025E
:100040000C94FF020C94FF020C94FF020C94FF022C
:100050000C94FF020C9416210C94FF020C94FF02E6
:100060000C94FF020C94FF020C94FF020C94FF020C
:100070000C94FF020C94FF020C94FF020C94FF02FC
:100080000C94FF020C94FF020C94FF020C94FF02EC
:100090000C94FF020C94FF020C94FF020C94FF02DC
:1000A0000C94FF020C94FF020C94FF02165C1E00DD
:1000B0001F0020002100220023002400250026002C
:1000C00027002D002E002A0000002B0014001A002B
:1000D0000800150017001C0018000C001200130087
:1000E0002F00300031004A003900040016000700DC
:1000F00009000A000B000D000E000F003300340051
:10010000280000004D00E1001D001B000600190042
:10011000050011001000360037003800E50000002F
:1001200052004C00E0000000E20000002C000151F1
:1001300000002C000000E60000000000500051000C
:100140004F0001003A003B003C003D003E003F00F4
:100150004000410042004300440045004C000000C4
:100160000100010001000100005C0100010001002C
:100170000100010001000100010001004B0001002D
:100180000100010001000100010001000100010067
:10019000010001000100010000004E00010001000B
:1001A0000100010001000100010001000100010047
:1001B0000100010000000100010001000000E30057
:1001C000000001000100000001000000010000002B
:1001D00000000100010001001E0F0500047F3F1F09
:1001E000643214643214783C1E1E140A052223253E
:1001F0002628292A2C2D2F3032333536383A3B3DEC
:100200003E4042434547494A4C4E50515355575939
:100210005A5C5E6062646668696B6D6F7173757756
:10022000797B7D7F81838587898A8C8E9092949655
:10023000989A9C9E9FA1A3A5A7A8AAACAEAFB1B364
:10024000B4B6B8B9BBBCBEBFC1C2C3C5C6C7C9CAB4
:10025000CBCCCDCED0D1D2D2D3D4D5D6D7D7D8D976
:10026000D9DADADBDBDBDCDCDCDCDCDDDDDDDDDCD4
:10027000DCDCDCDCDBDBDBDADAD9D9D8D7D7D6D5E6
:10028000D4D3D2D2D1D0CECDCCCBCAC9C7C6C5C3A8
:10029000C2C1BFBEBCBBB9B8B6B4B3B1AFAEACAAF5
:1002A000A8A7A5A3A19F9E9C9A98969492908E8CA5
:1002B0008A89878583817F7D7B79777573716F6D7F
:1002C0006B6968666462605E5C5A59575553515059
:1002D0004E4C4A4947454342403E3D3B3A3836350D
:1002E0003332302F2D2C2A292826252322FFAA7FBE
:1002F0005540000101010101010101010202020258
:1003000002020202020303030303030303040404BF
:100310000404040405050505050606060606070788
:1003200007070708080808090909090A0A0A0B0B40
:100330000B0C0C0C0D0D0D0E0E0E0F0F0F101011DF
:100340001111121213131414151516161717181865
:1003500019191A1A1B1B1C1D1D1E1E1F20202122CD
:1003600022232424252626272829292A2B2C2D2D13
:100370002E2F30313232333435363738393A3B3C30
:100380003D3E3F404142434445464748494A4C4D23
:100390004E4F50515354555658595A5B5D5E5F61EC
:1003A0006264656668696B6C6D6F7072737577787F
:1003B0007A7B7D7E8082838587888A8C8E8F9193DD
:1003C0009596989A9C9EA0A2A3A5A7A9ABADAFB104
:1003D000B3B5B7BABCBEC0C2C4C6C9CBCDCFD1D4E9
:1003E000D6D8DBDDDFE2E4E7E9EBEEF0F3F5F8FA8F
:1003F000FDFF1E0341007200690073007500740068
:10040000650061002D007200650076003000360046
:100410000000140333007800360020006B006500F4
:1004200065006200730000000403090409023B0038
:10043000020100A0FA0904000001030101000921E2
:10044000110100012240000705810308000A090488
:100450000100010300000009211101000122B60082
:100460000705820320000A1201100100000008663F
:10047000A6600006000102000105010902A1018534
:10048000020901A100050919012908150025019596
:1004900008750181020501093009311581257F9513
:1004A000027508810609381581257F950175088137
:1004B00006050C0A38021581257F9501750881060D
:1004C000C0C005010980A101850319012AB70015E3
:1004D0000126B700950175108100C0050C0901A126
:1004E00001850419012AA002150126A002950175B3
:1004F000108100C005010906A1018505050719E065
:1005000029E71500250195087501810205071900E5
:1005100029EF1500250195F07501810205081901E3
:100520002905950575019102950175039101C00595
:10053000010906A101050719E029E7150025019524
:1005400008750181029501750881010507190029C7
:10055000FF150026FF0095067508810005081901A2
:100560002905950575019102950175039101C0005A
:1005700011241FBECFEFDAE0DEBFCDBF04B603FE0D
:1005800027C08091B1039091B203A091B303B091C1
:10059000B4038730904BA740B04BD1F41092B10315
:1005A0001092B2031092B3031092B40314BE84B736
:1005B000877F84BF0FB6F894A8958091600088610A
:1005C00080936000109260000FBEE0E0F8E30995B0
:1005D00011E0A0E0B1E0E8E0F4E502C005900D9282
:1005E000AE3CB107D9F723E0AEECB1E001C01D92FB
:1005F000A13BB207E1F70E940F230C94C6290C948B
:1006000000000C941E03849A8C98859A8D98869A83
:100610008E980895CF92DF92EF92FF926B017C014A
:100620000E94D703813041F48C9AC701B601FF9034
:10063000EF90DF90CF9008958C98F7CF80FF05C0A2
:100640008E9A81FF04C08D9A08958E98FACF8D9866
:10065000089581E0089581E008950C942B03089596
:100660000C942F031F93CF93DF9300D000D00F92F1
:10067000CDB7DEB749835A836B833091810289817C
:100680009A8131111DC06623B9F02223A9F00E947E
:10069000B91D182F682F89819A810E94651D698173
:1006A0007A81812F0F900F900F900F900F90DF9114
:1006B000CF911F910C9434040E94911D182FEFCFFD
:1006C0000E94B91D69817A81EDCFFC01262F4081FE
:1006D00051816281738184810C943203CF93DF93C3
:1006E000EC0160E00E946503BE01DF91CF910C94A4
:1006F00030030E9465210E94051F811102C00E94E3
:10070000A91F0C943F060C94420608950E94D1182C
:100710000E9485032FEF84E39CE0215080409040AD
:10072000E1F700C000000C943A210F931F93CF9380
:10073000DF93EC0161E00E9465038C01BE010E9421
:100740002D03882359F1BE01C8010E94231288237A
:1007500029F1BE01C8010E9475128823F9F0BE017B
:10076000C8010E9498138823C9F0BE01C8010E94E5
:100770001B11882399F08A81882339F001158CE5B3
:10078000180751F00F3D1C4579F0CE01DF91CF9154
:100790001F910F910C9429030E94860380E0DF9142
:1007A000CF911F910F9108950E94A91FF7CFCF926B
:1007B000DF92EF92FF926C01EE24FF2420E0C1143F
:1007C000D104E104F10419F0C701B60120E1C72EFC
:1007D000D82EE92EFF24C114D104E104F10419F04C
:1007E000285FC701B6016B017C0154E0F694E794E1
:1007F000D794C7945A95D1F7C114D104E104F104F8
:1008000019F02C5FC701B6016B017C0142E0F69440
:10081000E794D794C7944A95D1F7C114D104E10461
:10082000F10419F02E5FC701B6019695879577956B
:100830006795672B682B692B09F02F5F822FFF903C
:10084000EF90DF90CF90089581E008950C942404F8
:10085000CF93C82F0E9401038C2FCF910C942604B4
:1008600090E080E008950895972F70E02FE0929F28
:10087000600D711D1124FB019BE4899FE00DF11DAA
:100880001124EE0FFF1FE455FF4F859194910895B9
:10089000FC01EE0FFF1FE852FE4F859194910895E1
:1008A000CF93DF930E9434040E946505EC0181150B
:1008B00020E5920708F042C0811530E4930708F064
:1008C000BDC0883E910528F5803E910508F09DC089
:1008D000883A910588F4853A910508F08FC08130F7
:1008E000910509F492C0009709F48FC0049708F0AD
:1008F0008CC0D0E0C0E089C08F3B910508F489C06E
:10090000805C9109C03CD105A0F30E944804EC0131
:100910007CC08115904250F4C11581E0D80708F0E1
:1009200074C0CD3ED10528F3D0656FC0C11590E3EA
:10093000D90708F079C0CE019F70E7CF811525E572
:10094000920758F5811534E5930708F0A6C0811584
:1009500042E5940750F4C11581E5D80708F471C049
:10096000DC2FCC27C16FD06A50C0982F96959695F2
:100970009E0123703327C115D34508F07FC0C1E025
:10098000D0E002C0CC0FDD1F2A95E2F720E2929F53
:10099000C0011124C82BD92B6FC0C11589E5D80718
:1009A000A8F4C11598E5D90708F07CC0C11526E563
:1009B000D20708F09ECF8C2F0E94FC05C82FD0E0F4
:1009C000DC2FCC27CC27DF71D0621FC0C1153AE5E0
:1009D000D30708F46CC0CE0190568115904208F000
:1009E00088CF8D2F8F710E94FC0590E0982F88276B
:1009F00088279F719C012C2BE901E6CFC55AD0E0D6
:100A0000C65ADE4FC881D0E0D064CE01DF91CF91CD
:100A10000895C85AD0E0CC0FDD1FC45DDE4F0990A9
:100A2000D881C02DD464F1CFCE019927D3FF03C064
:100A3000EC01D86CEACFEC01D06CE7CFDF70D06A64
:100A4000E4CFCE01E4E096958795EA95E1F78370CF
:100A50002C2F26952695237090E2299F9001112432
:100A6000382B8C2F8370C1E0D0E002C0CC0FDD1F8B
:100A70008A95E2F7C22BD32BDC68C7CFC1E0D0E068
:100A800002C0CC0FDD1F2A95E2F730E2939FC00130
:100A90001124C82BD92BDA68B8CFD82FCC27C46F34
:100AA000D06AB3CFDC2FCC27C06FD06AAECF8C2FEB
:100AB0008F700E94FC0534E0D695C7953A95E1F712
:100AC000CF709C2FEC01D069A0CF82389105B1F195
:100AD000B0F48133910509F475C048F48932910569
:100AE00009F469C08A32910509F473C00895853309
:100AF000910509F459C08933910501F10895833EA8
:100B00009105A9F138F4803E9105F9F0823E9105F6
:100B100049F10895863E9105A9F1873E9105C9F1F5
:100B2000843E910519F52091A30321FF1FC08091F8
:100B3000A20384FD14C087EE90E008952091A203E3
:100B40002370A1F080EE90E008952091A20320FD93
:100B500047C03091A30330FF09C024FF44C090E098
:100B600080E004C02091A20322FDF7CF08952091D8
:100B7000A20322FD3BC03091A30330FDE3CF24FF4D
:100B8000F5CFEDCF2091A20323FFF0CF24FDE7CFD7
:100B9000D2CF2091A20323FD2CC03091A30331FFBB
:100BA000EECF84EE90E008952091A20325FFDECFE2
:100BB00089E290E008952091A20325FFD7CF85E335
:100BC00090E008952091A20326FFD0CF8AE290E022
:100BD00008952091A20326FFC9CF81E390E00895F4
:100BE00089E390E0089583EE90E0089582EE90E02E
:100BF000089586EE90E008959091A20392FF06C0BA
:100C0000282F28712830F9F4877F846093FF06C06D
:100C1000282F28712831F1F4877E84612091A30365
:100C200020FF06C0382F38713830D9F4877F8160B3
:100C300021FF06C0282F28712831D1F4877E8161D9
:100C400094FD877E0895282F24712430F9F68B7F38
:100C50008860DCCF282F2471243101F78B7E8861D6
:100C6000DDCF382F3171313019F78E7F8860E0CFBA
:100C7000282F2171213121F78E7E8861E1CF0C94DC
:100C8000030308950C944106E82FF0E0EE0FFF1FD8
:100C9000E95BFC4F808191810895089580EA8A95EF
:100CA000F1F7089500C008950C944E06F894E82FCB
:100CB000E295EF70F0E031A1282F2F7081E090E0F5
:100CC00001C0880F2A95EAF7982F9095932391A356
:100CD00092A1892B82A3789408950F931F93CF93A9
:100CE000DF9380E90E94560681E90E94560682E958
:100CF0000E94560683E90E94560685E90E94560620
:100D0000CDE5D1E00CE611E089910E9456060C1762
:100D10001D07D1F710923E0310923D031092480335
:100D2000109247031092400310923F0310924A031F
:100D300010924903109242031092410310924C0307
:100D400010924B03109244031092430310924E03EF
:100D500010924D03109246031092450310925003D7
:100D600010924F0385E00E943F07DF91CF911F91C2
:100D70000F910C947903AF92BF92CF92DF92EF92D2
:100D8000FF920F931F93CF93DF930CE611E0CDE317
:100D9000D3E0C12CD12CEE24E394F12CF801819105
:100DA0008F01F894E82FE295EF70F0E021A18F70A9
:100DB000A70102C0440F551F8A95E2F7CA01922F7E
:100DC000982B91A392A18095892382A378940E9465
:100DD0005206EDE5F1E030E020E0B12CA12C41918C
:100DE000A42FA295AF70B0E090968C9190E04F70D8
:100DF00002C0959587954A95E2F780FD3BC0C701F3
:100E0000022E02C0880F991F0A94E2F7A82AB92A75
:100E10002F5F3F4F2F30310511F7F8013197808157
:100E20000E94560654E0C5120E945406888199819A
:100E3000A816B90611F1B982A88281E0D82AC39414
:100E4000229685E0C812AACF2D2D45E067E473E015
:100E50008DE393E00E9440070E9483038D2DDF9174
:100E6000CF911F910F91FF90EF90DF90CF90BF90A7
:100E7000AF90089590E080E0C9CF80E0DFCF089583
:100E8000FF920F931F93CF93DF93F82E092F162F06
:100E9000D72FC42F222349F081E08093D2010E94F2
:100EA000EF209093D1018093D0018091D2018823CB
:100EB000A1F08091D0019091D1010E940721099762
:100EC00060F0EF2DF02FA12FBD2F90E080E0D0E05B
:100ED0008C179D0744F01092D201DF91CF911F91A2
:100EE0000F91FF900895219131912D933D9301969B
:100EF000EFCF8091D90180FF12C06091090185E098
:100F0000689FB00111247595679575956795603850
:100F10007105A8F561157105A1F1862F089581FF6E
:100F200009C06091090185E0689FB00111247595A1
:100F30006795EDCF6091090182FD0AC08091D801CB
:100F40008823D1F09091080160910901891728F058
:100F500085E0689FB0011124DACF869FB00111248B
:100F600085E0869F9001879F300D1124692F70E0E6
:100F7000C9010E948928CBCF65E070E0CECF8FE712
:100F8000089581E008958091D90180FF0CC060919F
:100F9000050170E075956795759567956115710503
:100FA00049F1862F089581FF06C06091050170E028
:100FB00075956795F3CF6091050182FD0BC0909107
:100FC000D7019923A1F06091040180910501961742
:100FD00038F0682F70E06038710500F38FE70895EE
:100FE000899FC001112470E00E948928F4CF61E03C
:100FF00070E0D7CF81E008958D3E31F40E947907EB
:1010000081958093DD0108958E3E19F40E94790741
:10101000F8CF8F3E31F40E94790781958093DC01EF
:101020000895803F19F40E947907F8CF893F29F489
:101030000E94C3078093DE0108958A3F21F40E9435
:10104000C3078195F7CF8B3F31F40E94C307819589
:101050008093DF0108958C3F19F40E94C307F8CFF5
:101060009FE0980F983070F4815F990B21E030E099
:1010700001C0220F8A95EAF78091DB01822B8093D1
:10108000DB0108958D3F31F48091D9018160809317
:10109000D90108958E3F21F48091D9018260F7CF64
:1010A0008F3FB9F78091D9018460F1CF4091DC0185
:1010B0008D3E59F48091DD0187FF0DC01092DD0156
:1010C00041110BC01092D80108C08E3E81F480916E
:1010D000DD0118169CF3442381F08091DE0190918C
:1010E000DF01892B09F05AC01092D70108958F3E75
:1010F00049F447FFF0CF1092DC018091DD018111AE
:10110000ECCFE0CF803F19F41416ACF3E4CF90910C
:10111000DE01893F29F41916F4F61092DE01DBCFC7
:101120008A3F19F497FFD7CFF8CF9091DF018B3F1B
:1011300029F497FFD0CF1092DF01CDCF8C3F19F467
:101140001916CCF3C8CF9FE0980F983090F4815FC8
:10115000990B21E030E0B90102C0660F771F8A9534
:10116000E2F7CB0180959091DB0189238093DB012D
:10117000B2CF8D3F31F48091D9018E7F8093D90118
:10118000AACF8E3F21F48091D9018D7FF7CF8F3F79
:1011900009F0A1CF8091D9018B7FF0CF08950E94F3
:1011A000EF209C019091DC018091DD01982B21F0D2
:1011B0003093D6012093D5019091DE018091DF011B
:1011C000982B21F03093D4012093D3018AED91E044
:1011D0000C94ED13EF92FF920F931F93CF93DF9335
:1011E00000D000D000D0CDB7DEB786E0EAEDF1E068
:1011F000DE01119601900D928A95E1F7E090DC01F5
:10120000F090DD010091DE011091DF011092DC0110
:101210001092DD011092DE011092DF018E2D8F29D8
:1012200091F08091D5019091D6010E940721AC01E7
:101230009091D801992309F43FC080910A01841745
:10124000150608F447C0802F812B91F08091D301BF
:101250009091D4010E940721AC019091D70199236C
:1012600009F477C0809106018417150608F47FC041
:101270008091DC019091DD01892B9091DE01892B19
:101280009091DF01892B11F00E94CF0886E0FE01CA
:101290003196AAEDB1E001900D928A95E1F726967C
:1012A0000FB6F894DEBF0FBECDBFDF91CF911F9177
:1012B0000F91FF90EF90089520910B018AE0289FF5
:1012C000900111242417350708F0BDCF9F5F90933C
:1012D000D80102C09F3FD1F7EE2059F00E94790754
:1012E0009FEF1E140CF491E0899F802D11248093B0
:1012F000DC01FF2059F00E9479079FEF1F140CF4C6
:1013000091E0899F802D11248093DD013091DC01D3
:10131000332309F498CF2091DD01222309F493CFE0
:1013200045EB3403C0011124992359F09093DC015B
:1013300045EB240390011124332339F03093DD0170
:1013400082CF81E08093DC01F3CF81E08093DD01E7
:101350007ACF209107018AE0289F90011124241759
:10136000350708F085CF9F5F9093D70102C09F3F5C
:10137000D1F7002359F00E94C3079FEF10160CF419
:1013800091E0899F802D11248093DE01112359F073
:101390000E94C3079FEF11160CF491E0899F802DE6
:1013A00011248093DF013091DE01332309F460CFF3
:1013B0002091DF01222309F45BCF45EB3403C00108
:1013C0001124992359F09093DE0145EB24039001F9
:1013D0001124332339F03093DF014ACF81E0809329
:1013E000DE01F3CF81E08093DF0142CF86E0EAEDBA
:1013F000F1E0DF011D928A95E9F71092D801109271
:10140000D7011092D9010895EF92FF920F931F9385
:10141000CF93DF93EB01E82FD11110C0442321F0CB
:10142000F0E0EE50FD4FE4916E2F7E2F8E2FDF9176
:10143000CF911F910F91FF90EF9008950D2F10E025
:10144000282F30E0442329F02E503D4FF9012491FC
:1014500030E0F6E0CF9FC0011124EFEFF0E0BF01D4
:101460000E947528AB018C2F90E0880F991FA5E58D
:10147000A49FB001A59F700D1124861B970B982F78
:10148000990F980FBF01601B710B629FD001639F82
:10149000B00D729FB00D11248B2F9D9FB0011124B0
:1014A000672F7727EF01C61BD70BBE01629FE001B4
:1014B000639FD00D729FD00D11247F01E91AF108AE
:1014C000E09EB001E19E700DF09E700D1124672F1B
:1014D0007727E61BF70BE29F8001E39F100DF29F39
:1014E000100D1124E12F722F4230510599F048F46C
:1014F0004115510569F04130510581F0EB2F8D2FD9
:1015000007C04430510569F080F046305105B1F70D
:101510006E2F8DCFE22F7B2F812FFACFE22F7D2FE1
:10152000F7CFEB2F822F712FF3CF7B2F822FED2F51
:10153000EFCF41E00C94040A08950C94990ACF93DC
:10154000DF93762FE901682F842F0E949D0A79830B
:1015500068838A83DF91CF91089580915103982FFA
:101560009E7F29F4817082608093510308958635AF
:10157000E8F381708465F8CF88E090E00C946729E7
:10158000CF92DF92EF92FF926B017C010E94AD0A35
:10159000B701A60188E090E0FF90EF90DF90CF9038
:1015A0000C948529E1E5F3E083E0808311828FEFDD
:1015B00082838383148260817181828193810C9400
:1015C000C00A8091510380FF02C08695089580E093
:1015D000089590915503933018F49F5F90935503AD
:1015E000882351F06091510370915203809153030D
:1015F000909154030C94C00A089581E00C94E90A78
:1016000090915503992319F0915090935503882395
:1016100051F0609151037091520380915303909166
:1016200054030C94C00A089581E00C94000B70E000
:101630000C948B11609110018091510380FF0AC0BE
:1016400080910F0123E0829FC00111248A5A9C4F90
:101650000C94170B809111019091120123E0829F4D
:10166000F0011124EA5AFC4F891750F711821082B9
:1016700012828F5F3396F8CF9091510390FF14C080
:10168000909111012091120133E0939FF0011124F8
:10169000EA5AFC4F921710F00C941A0B8183608366
:1016A00042839F5F3396F6CF0895CF93DF9300D0A8
:1016B0000F92CDB7DEB79091510390FF0AC09E0103
:1016C0002F5F3F4F0E949F0A4B8169818A810E9450
:1016D0003C0B0F900F900F90DF91CF910895CF9317
:1016E000DF93EC01EC81F0E0E351FE4F4491E1E542
:1016F000F3E0628181810E94550B8C818F5F8C8326
:10170000DF91CF910895CF93DF93EC01E1E5F3E012
:10171000438162818C810E94550B8C818F5F8C8309
:10172000DF91CF9108950F931F93CF93DF9300D054
:101730000F92CDB7DEB78C018091E00181110AC014
:101740009E012F5F3F4F4FEF6FEF0E949F0A8A81EC
:101750008093E001F8016481613069F08091E001DB
:1017600040E0662361F040E0623011F44091E00116
:1017700080E060E004C06091E00140E080E00E9411
:101780003C0BF801848190E0019663E070E00E94D8
:10179000892884830F900F900F90DF91CF911F9134
:1017A0000F910895AF92BF92CF92DF92EF92FF9286
:1017B0000F931F93CF93DF9300D00F92CDB7DEB777
:1017C000182FF62E042FE22E9091510390FF29C07E
:1017D000E92FE695AE2FB0E0AF58BE4F8C918093C5
:1017E00062029E7F923059F59E012F5F3F4F812FFD
:1017F0000E949F0A4B8169818A810E943C0B109351
:101800005203F092530300935403EE2051F0609181
:1018100051037091520380915303909154030E949D
:10182000C00A0F900F900F90DF91CF911F910F91F1
:10183000FF90EF90DF90CF90BF90AF9008958230EF
:1018400019F400915403DBCF863019F41091520340
:10185000D6CF8930D9F3893191F6E9518E2F817035
:10186000D82EE695F0E0E351FD4FA590B490C12C41
:10187000BB2460911301C61618F00E941A0BBFCF4B
:101880002C2D30E0A29EC001A39E900DB29E900D23
:10189000112470E00E947528812FD11013C0860F8B
:1018A00040911101420F532F511D9A01220F331FF6
:1018B000240F351F2A5A3C4F402F6F2D0E949F0A3C
:1018C000C394D7CF861BECCFE1E5F3E09181282FBD
:1018D0004381628188E0890F0C94D20B81E00C94E3
:1018E000640CE1E5F3E09181282F4381628188EF68
:1018F000890F0C94D20B81E00C94710CE1E5F3E0BC
:10190000628121E1620F08F46FEF282F438181810A
:101910000C94D20B81E00C947E0CE1E5F3E0628143
:1019200021E1621B08F460E0282F438181810C943F
:10193000D20B81E00C948D0CE1E5F3E0438121E1D1
:10194000420F08F44FEF282F628181810C94D20B53
:1019500081E00C949C0CE1E5F3E0438121E1421B22
:1019600008F440E0282F628181810C94D20B81E041
:101970000C94AB0C20E00C94D20BEF92FF921F93CF
:10198000CF93DF93EC0110E0EE24EA94F12C609108
:101990001301161770F00E941A0B9A818C8190FF28
:1019A00027C08F5F8C83DF91CF911F91FF90EF90C5
:1019B000089520911101422F410F5527551FCA014B
:1019C0009A01220F331F280F391F2A5A3C4F70E00B
:1019D000C7010E948928962F8C8140915403609101
:1019E0005303199F800D11240E949F0A1F5FCFCFC0
:1019F0008150D8CFAF92BF92CF92DF92EF92FF92F9
:101A00000F931F93CF93DF93FC0182810FEF80FF31
:101A100001E010E048E1A42E809113011817C8F0EE
:101A20000E941A0B8091E201013009F055C081112A
:101A300002C08091130181508093E201DF91CF9128
:101A40001F910F91FF90EF90DF90CF90BF90AF90DC
:101A50000895C0911101C12ED12CCC0DDD2DD11DC9
:101A6000CE01880F991FC80FD91FCA5ADC4F19829F
:101A700018821A8234E0E32EF12CB12C8091E2011D
:101A80008B0D89311CF16A2D0E946728892F082E41
:101A9000000C990BC816D90691F4809154038E9DC1
:101AA000A0018F9D500D112455954795559547954B
:101AB0009E0160915303809152030E949F0AB00ED1
:101AC000F1E0EF1AF108D1F61F5FA6CF87FFDFCF55
:101AD00090911301890FDBCF90E001966091130183
:101AE00070E00E948928A8CF0F931F93CF93DF93B4
:101AF000809111019091120123E0829FF001112445
:101B0000EA5AFC4F891740F1C0E0D3E0609113011D
:101B1000C61740F10E941A0B20910D018091E1013E
:101B2000820F8093E10190910E01920F90930E012C
:101B3000191654F4082E000C990B409113014150D2
:101B4000550B841795071CF0219520930D01DF910B
:101B5000CF911F910F9108951182108212828F5F91
:101B60003396D0CF0C2F10E070E0C8010E94892876
:101B700020911101820F482F50E02091E101022EA7
:101B8000000C330B02171307BCF020910E01022E3C
:101B9000000C330B201731077CF08D9F900111242E
:101BA0002A5A3C4F40915403609153038091520351
:101BB0000E949F0ACF5FAACFFA01EE0FFF1FE40F2A
:101BC000F51FEA5AFC4F118210821282F3CF8F92D6
:101BD0009F92AF92BF92CF92DF92EF92FF920F93BC
:101BE0001F93CF93DF93EC014C81042F10E09801F9
:101BF000D8010E94CD289B01AC010E94E3284B0133
:101C00005C01E0E2F0E0E01BF10BA5E5B0E0AC0127
:101C10009B010E94E3286B017C019F01DF010E9470
:101C2000C5289B01AC010E94EE289B01AC01280D48
:101C3000391D4A1D5B1DC701B6010E949D28F22E69
:101C4000822F90E039E23F1560F143E0249F90013C
:101C5000112435952795122F109500E085E5E82E83
:101C6000EF1880911301081758F10E941A0B9C81FC
:101C700081E0992319F0903219F48FEF80930C01D1
:101C800080910C01890F8C83DF91CF911F910F916F
:101C9000FF90EF90DF90CF90BF90AF909F908F908C
:101CA000089525E530E0B901681B790B9B01220FEF
:101CB000331F260F371F37FFCCCF2F5F3F4FC9CFC2
:101CC0008E2D01FD8F2D20911101622F600F77273E
:101CD000771F9B01220F331F260F371F2A5A3C4FB5
:101CE000412F609153030E949F0A0F5FBACF0F9359
:101CF0001F93CF93DF93EC0110E000E0909113016C
:101D00009017110609F06CF40E941A0B8C8190E078
:101D10000196817099278C83DF91CF911F910F914C
:101D2000089520911101A801420F511D9A01220F1F
:101D3000331F240F351F2A5A3C4F4C8160915303A7
:101D40008091520396959017110651F04CF0442360
:101D500049F0409154030E949F0A0F5F1F4FCECF5E
:101D60004423B9F340E0F7CF4F925F926F927F9296
:101D70008F929F92AF92BF92CF92DF92EF92FF929B
:101D80000F931F93CF93DF93FC016280448081E027
:101D90008483EDEEF1E07490ECE6F2E0E491812CC6
:101DA00075E0972EF2E0CF2EDD24D394AA24AA94D6
:101DB000B12C55245A94E7190E2F10E0809113018D
:101DC000881690F0DF91CF911F910F91FF90EF90C7
:101DD000DF90CF90BF90AF909F908F907F906F904B
:101DE0005F904F900C941A0BE82CF12C82E0861532
:101DF00068F09E9CF0019F9CF00D1124ED51FE4F68
:101E0000809152038083809153038183411023C0CA
:101E10009E9CF0019F9CF00D1124ED51FE4F13820A
:101E2000128220911101C701820F911D9C01220F86
:101E3000331F280F391F2A5A3C4F9E9CF0019F9C4C
:101E4000F00D1124ED51FE4F4281618180810E948D
:101E50009F0A8394B3CF9E9CE0019F9CD00D1124D8
:101E6000CD51DE4F8B818823E9F081508B83859D96
:101E7000C00111246C8170E00E947528FB01FF27CE
:101E8000E351FE4F8491E82FE719E59DC00111242D
:101E9000B8010E94752880915403689FB0011124F5
:101EA0007A83BFCF0E94422920915403269521585E
:101EB0002C9DA0012D9D500D1124452F55278417D1
:101EC00095070CF0AECF82E0861588F40E94422977
:101ED000B5010E94892888830E94422920915303DA
:101EE0002695622F70E00E948928280F29839E9CE6
:101EF000F0019F9CF00D1124ED51FE4F1282809154
:101F00005403893C58F088EC9E9CF0019F9CF00D96
:101F10001124ED51FE4F8483838383CF8431A0F756
:101F200084E1F2CFE1E5F3E080818E7F8083608100
:101F30007181828193810E94C00A109263022FEF07
:101F400080E792E0215080409040E1F700C000001F
:101F50000C941A0B60915103669570E04BE050E0D1
:101F600084E191E00E945229892B19F481E0809349
:101F700063020E94EF2090935C0280935B020895BD
:101F80009091510390FF35C09170811128C09260EB
:101F900090935103662351F0609151037091520365
:101FA00080915303909154030E94C00A60915103A1
:101FB000669570E04BE050E084E191E00E94522988
:101FC000892BA1F01092630281E080935E02409120
:101FD000540360915303809152030C94BA0C8B32DA
:101FE00010F09465D5CF880F982BD2CF0E94AA0FFE
:101FF000EBCF0895682F90915103969581E0890F5A
:102000008B3208F081E00C94C00F81E00C94FA0F41
:10201000682F9091510396958FEF890F09F48AE20A
:102020000C94C00F81E00C94081061E00C94C00F78
:10203000E1E5F3E080818160808386950C94151042
:102040008091510380FD0C94920F0C94181060E065
:102050000C94C00F8091610281112EC00E94051F57
:10206000811104C00E94A91F0E94D20A0E94BC0ACA
:1020700060935103709352038093530390935403DE
:102080006E7F61F40E94D20A0E94BC0A60935103E1
:102090007093520380935303909354030E94AD0AAC
:1020A000109263028091510380FF03C086950E94C5
:1020B000271081E08093610208950F931F93CF93BF
:1020C000DF9380916302882309F496C080916202B5
:1020D000E0915103E695E81BE0935D02823091F5B3
:1020E000F0E0E751FE4FE491CE2FD0E00FE61BE089
:1020F00080915E02882361F010925E020E94EF20C0
:1021000090935C0280935B021092600210925F02D7
:102110000E94EF20E0915B02F0915C028E1B9F0B0E
:102120008F3F9F4708F068C0EC0FFD1FF0935C02E3
:10213000E0935B028BE592E0F801DF91CF911F9174
:102140000F910994863049F4F0E0EA51FE4FE49192
:10215000CE2FD0E003E81BE0CBCF893051F4E695D9
:10216000F0E0ED51FE4FE491CE2FD0E00DEB1CE0FE
:10217000BFCF8F3051F4E695F0E0E052FE4FE4918E
:10218000CE2FD0E00AEF1CE0B3CF853149F4F0E068
:10219000E352FE4FE491CE2FD0E004E71DE0A8CF3C
:1021A000C8E2D0E007EE1DE0883109F4A1CF833208
:1021B00039F4EBEDF1E0C591D49103E91BE098CF40
:1021C000C4EFD1E007E71EE0843209F491CFC0EDFF
:1021D000D7E00CE91AE0853209F08ACF8E2F63E050
:1021E0000E945B28E92FF0E0E852FE4FE491CE2FE9
:1021F000D0E004EB1EE07CCFDF91CF911F910F91D7
:102200000895FA01811101C0FB010994CF93DF9376
:10221000C82FD62F0E94E10A8C1740F00E94E10AD5
:102220008D1720F4DF91CF910C9405108C2FDF9146
:10223000CF910C9415100F931F93CF938C01FB013A
:10224000C281CC2309F465C00E944E1E8272F8013F
:10225000E35CFC45E431F10538F4E853F64D0C94A9
:10226000BF280E942010C0E08C2FCF911F910F91AA
:10227000089542E150E165E070E10E940111F3CF61
:1022800045E050E162E170E1F8CF4BE75CE06EE6DB
:102290007CE0F3CF4EE65CE06BE77CE0EECF49E913
:1022A0005CE06AE87CE0E9CF4AE85CE069E97CE070
:1022B000E4CF47EB5CE068EA7CE0DFCF48EA5CE033
:1022C00067EB7CE0DACF44E15BE06DEF7AE0D5CFFD
:1022D0004DEF5AE064E17BE0D0CF81E00E94151021
:1022E000C2CF65E082E00E940611BDCF68E086E0C3
:1022F000FACF6EE089E0F7CF64E18FE0F4CF67E1D9
:1023000085E1F1CF88E1EACF62E289E1ECCF83E2B7
:10231000E5CFC1E0A9CF879A41B34F7751B3506859
:10232000EFB7F8949B01220F331F260F371F280F9A
:10233000391F2817390741F4EFBF8FE594E0019763
:10234000F1F700C000000895DC016D91CD0178E047
:1023500051BB000000C067FF41BB660F000000C01A
:1023600000C000C041BB00C07A9591F7E2CF0F9347
:102370001F93CF93DF93C42FD22FFC018281882338
:10238000C9F0409366020E94EF209093650280930B
:10239000640280E28C0F883008F050C0C77081E082
:1023A00001C0880FCA95EAF7DF91CF911F910F9175
:1023B0000C94581610916602141335C08091640273
:1023C000909165020E940721883C910560F5C0E26A
:1023D000CD0F1D17B9F080E2810F883040F41770DF
:1023E00081E001C0880F1A95EAF70E945F16C83095
:1023F00048F481E09D2F977001C0880F9A95EAF705
:102400000E945816802F0E945016C830B8F4D7701A
:1024100081E001C0880FDA95EAF7DF91CF911F9133
:102420000F910C945F1680E28C0F883038F4C770DF
:1024300081E001C0880FCA95EAF7EFCFDF91CF9115
:102440001F910F9108950F939C01CB01243F4CE500
:10245000340759F1A8F4293DFCE53F0701F12A3D75
:102460004CE53407D1F1283D3C4591F406E221EEDC
:1024700041EE68ED7CE50E94B71180E00F91089570
:10248000263FFCE53F07E9F0B0F0273F3C45F9F077
:10249000FC018281882339F110926602EFCF07E2B6
:1024A00025EE45EE69ED7CE5E6CF06E221EE40EE55
:1024B00064EF7CE5E0CF07E225EE44EE65EF7CE5D6
:1024C000DACF06E221EE42EE66EF7CE5D4CF07E2FA
:1024D00025EE46EE67EF7CE5CECF08E221E045EE43
:1024E0006AED7CE5C8CF81E0C9CFCF93DF93EC01E3
:1024F000FB018281882309F419C1C230FCE5DF07A2
:10250000C0F1C6319CE5D90730F09E012B5F3C45F8
:102510002930310570F50E94181F9093A303809312
:10252000A203C031ECE5DE0709F4CFC008F05BC0C0
:10253000C8308CE5D80709F4B6C088F5C430ECE59E
:10254000DE0709F4A8C0C0F4C2308CE5D80709F44E
:102550009CC08091A2038260C330DC4509F498C01E
:102560008091A2039091A3030E94261F0E94D1187C
:1025700080E0DF91CF9108958091A2038061C63001
:10258000ECE5DE0709F484C08091A2038860C730BF
:10259000DC4508F47DC08091A203806279C0CC3014
:1025A0008CE5D80709F489C070F48091A2038C608F
:1025B000CA30ECE5DE0709F46BC008F478C08091FE
:1025C000A2038E7F65C0CE308CE5D80709F479C0B0
:1025D0008091A2038B7FCF30DC4508F459C08091F5
:1025E000A2038F7E55C0CC3FECE5DE0709F457C04F
:1025F00030F5C3318CE5D80709F46FC078F4C131E8
:10260000ECE5DE0709F465C0C231DC4509F0A8CF6E
:102610000E94D1188091A2038F773AC0C5318CE512
:10262000D80709F462C008F476C08091A3038160E2
:10263000CB3FDC4509F094CF8093A30391CFC11524
:10264000FDE5DF0709F44DC088F48091A3038D7F79
:10265000CE3F9CE5D90781F38091A3038E7FCF3FC6
:10266000DC4550F38091A3038360E6CFC230FDE5E3
:10267000DF0709F459C008F444C080E0C330DD45E9
:1026800009F06ECF0E94AB1F6BCF8091A2038160D7
:102690008093A20365CF8091A2038460F9CF8091DB
:1026A000A3038260C9CF8091A2038064F1CF0E940E
:1026B000D1188091A2038068EBCF8091A2038D7F17
:1026C000E7CF8091A203877FE3CF8091A2038F7D24
:1026D000DFCF8091A2038F7BDBCF8091A203837F2A
:1026E000D7CF8091A3038C7FA7CF8091A20382FBD9
:1026F000992790F921E0922790FB82F990FB83F9CA
:10270000C7CF8091A303982F909591708E7F892BCE
:1027100090FB81F991CF0E94D1189091A203892F4B
:1027200097FB87F98058B4CF81E0ACCF81E021CF0F
:10273000CF93DF93EB0186319C4511F50E944E1E2D
:102740009A81992399F08A7A91E009F490E0909324
:102750006702811109C089E20E94291E0E949A1E07
:1027600080E0DF91CF91089585E3F6CF80916702F5
:10277000811104C089E20E94301EF0CF85E3FBCFB7
:1027800081E0EFCF90936D0280936C020895E09109
:102790006C02F0916D02309721F00190F081E02DF4
:1027A000099480E00895E0916C02F0916D023097F9
:1027B00099F020912B01222359F02091A20327FFA9
:1027C00007C0DC012C9111962C93119725E02C93D6
:1027D0000280F381E02D09940895E0916C02F0915C
:1027E0006D02309739F022E0DC012C930480F581F2
:1027F000E02D0994089520916A0230916B02281708
:10280000390771F090936B0280936A02E0916C0239
:10281000F0916D02309721F00680F781E02D099448
:10282000089520916802309169022817390771F0E4
:102830009093690280936802E0916C02F0916D02BE
:10284000309721F00084F185E02D099408950E94CD
:10285000FB2060937D0270937E0280937F029093B1
:1028600080026093790270937A0280937B02909346
:102870007C02089585B7806885BF85B7806885BF6D
:102880000895089508950C94411408950C944514E6
:102890000E943A148DEF9EE10E945E210E94421434
:1028A0000C94431481E008950C94521408950895F3
:1028B0000E94E6200E946D060E9479210E942A1043
:1028C0000C9446148F929F92AF92BF92CF92DF9258
:1028D000EF92FF920F931F93CF93DF93CDB7DEB7A5
:1028E0002A970FB6F894DEBF0FBECDBF0E945614D4
:1028F0000E9457140E94BB0681110E9427145FE6B4
:10290000852E52E0952E10E000E0A02E802F0E9430
:1029100044066C01F401E190F1904F01E816F906CC
:1029200009F45EC08091190381FD0E944D06C70124
:102930008C259D25B12CEE24E394F12C9C012E21B5
:102940003F21232B09F446C00E9454148823A9F088
:10295000BE82AF82CE20DF2081E0CD2809F480E066
:1029600088870E94EF208160782F9A8789874E811F
:102970005F8168858A850E941A15000F111FF80172
:10298000E159FD4F80819181E826F926F182E082AC
:102990000E945D100E94EA080E94C71390916E0287
:1029A0008917A9F10E94C71380936E022A960FB669
:1029B000F894DEBF0FBECDBFDF91CF911F910F9175
:1029C000FF90EF90DF90CF90BF90AF909F908F904F
:1029D0000C942804B394EE0CFF1CFFE0BF12AECFA2
:1029E0000F5F1F4F0530110509F08FCF8FEF8983DF
:1029F0008A831B820E94EF208160782F9D838C83C5
:102A000049815A816B818D810E941A15C1CF2A9606
:102A10000FB6F894DEBF0FBECDBFDF91CF911F91EF
:102A20000F91FF90EF90DF90CF90BF90AF909F906D
:102A30008F900895DF92EF92FF920F931F93CF93A1
:102A4000DF93CDB7DEB72B970FB6F894DEBF0FBE7E
:102A5000CDBF7A878B87F42E052F162FE72ED82E21
:102A600061110E946E1E1E821D827E2DEC82DD820F
:102A70004F2D502F612F8D2D9E812B960FB6F894E0
:102A8000DEBF0FBECDBFDF91CF911F910F91FF90A1
:102A9000EF90DF900C94471BFC01808191810C9496
:102AA000FB1DCF93C82F882309F48BC08238C1F453
:102AB0000E94C71381FD85C089E30E94291E0E94E0
:102AC0009A1E2FEF81EE94E0215080409040E1F774
:102AD00000C0000089E30E94301ECF910C949A1E22
:102AE0008338A1F40E94C71380FD6BC083E50E9468
:102AF000291E0E949A1E2FEF81EE94E02150804003
:102B00009040E1F700C0000083E5E5CF8438A1F4F0
:102B10000E94C71382FD55C087E40E94291E0E94AF
:102B20009A1E2FEF81EE94E0215080409040E1F713
:102B300000C0000087E4CFCF8CEF8C0F813A90F477
:102B40006C2F80911F01909120010E94C41F882347
:102B500029F08C2F0E94301E0E949A1E8C2F0E94FA
:102B6000291EBBCF80E28C0F883048F4C77081E00B
:102B700001C0880FCA95EAF70E94511EAECFEBE55F
:102B8000EC0FE33040F4F0E0E653FE4F808190E03C
:102B9000CF910C94FB13E8E5EC0FE73150F4F0E033
:102BA000EE0FFF1FE456FE4F80819181CF910C9470
:102BB0001114CD3E30F08C2F0E94FC07CF910C9465
:102BC000CF08CF910895882309F452C0823871F458
:102BD0000E94C71381FF4CC089E30E94291E0E94F6
:102BE0009A1E89E30E94301E0C949A1E833859F471
:102BF0000E94C71380FF3CC083E50E94291E0E94EB
:102C00009A1E83E5EFCF843859F40E94C71382FFE0
:102C10002FC087E40E94291E0E949A1E87E4E2CFFB
:102C20009CEF980F913AF0F290E2980F983050F4A0
:102C3000877091E001C0990F8A95EAF7892F0E9469
:102C4000571ED2CF9BE5980F933020F490E080E0A0
:102C50000C94FB1398E5980F973120F490E080E0F6
:102C60000C9411148D3E20F00E9456080C94CF084D
:102C700008951F93CF93DF93182FEB010E945115F6
:102C8000209731F4812FDF91CF911F910C94E315A0
:102C90008FE99FE00197F1F700C000002197F0CF86
:102CA00070E060E0893311F460E570E00C9439164F
:102CB000882321F00E94511E0C949A1E08958823A7
:102CC00021F00E94571E0C949A1E0895BF92CF9235
:102CD000DF92EF92FF920F931F93CF93DF936C01DC
:102CE000D62FC72FFC011281058102950F700E941B
:102CF000471EE82E8823A1F0E12E112389F08C2FA6
:102D0000807F803429F080E28D0FE12C883040F004
:102D100082E00E94E51E0E94471E91E0E82EE9260F
:102D2000BC2EB2949FE0B922EB2DF0E0E452F64DB8
:102D30000C94BF280C2F0F70C07F11F00295007FFC
:102D40001123A9F0002359F080E28D0F883010F094
:102D5000D11109C0802F0E94511E0E949A1E8D2FF2
:102D60000E94511514C0802F0E94611EF6CF8D2F36
:102D70000E94E315002359F080E28D0F883010F097
:102D8000D1112CC0802F0E94571E0E949A1E2B2DFD
:102D90002850330B2430310520F40E94C7130E94C1
:102DA0002804EE2009F49EC10E94431E80FD9AC1B2
:102DB000F60112820E943D1E0E94C91CC6010E949B
:102DC00093180E943D1EDF91CF911F910F91FF90AC
:102DD000EF90DF90CF90BF900C94EA1C802F0E9460
:102DE000671ED3CFFC2FFF70FF2EC07FC03219F0BB
:102DF000F29480EFF822DD2369F0D13049F11123FC
:102E000091F1002351F1F601858180FFA8CF8F70E9
:102E1000858323C0112381F0011106C00E94811E09
:102E20008F290E945816B3CF0130C1F70E94811E2E
:102E30008F290E94871EABCF011106C00E94901EF1
:102E40008F2D0E945F16A3CF013009F4A0CFF6CFDB
:102E5000112329F0063008F09ACF8F2DE2CF0530EC
:102E600008F095CFEDCF002359F3D93349F4FFEFA4
:102E700027EE33E0F15020403040E1F700C0000081
:102E80008D2F0E94E31583CF8C2F869586958370B6
:102E900069F0813009F07BCF8D2F9C2F9370111139
:102EA00002C090E080E00E94111471CF8D2F9C2F02
:102EB0009370111102C090E080E00E94FB1367CF75
:102EC0008D2F112329F00E94FC070E94CF085FCFAD
:102ED0000E945608FACF8C2F837009F041C011115F
:102EE00056CF4D2F429546954770440F440F0D2FF6
:102EF0000F7010E030E020E0042E04C0000F111F1E
:102F0000221F331F0A94D2F760E070E0CB01D4FF98
:102F10000FC06FE070E080E090E004C0660F771FA4
:102F2000881F991F4A95D2F7609570958095909566
:102F3000C695C695C370602B712B822B932BC23024
:102F400049F058F4C13019F00E947D1C20CF0E9436
:102F50006B1C1DCF0E948F1C1ACF0E94691C17CFBB
:102F60008695112311F08C2F8170882309F40FCFDF
:102F70004D2F429546954770440F440F0D2F0F700B
:102F800010E030E020E0042E04C0000F111F221FCB
:102F9000331F0A94D2F760E070E0CB01D4FF0FC07A
:102FA0006FE070E080E090E004C0660F771F881F3C
:102FB000991F4A95D2F76095709580959095C69522
:102FC000C695C370602B712B822B932BC23049F0B6
:102FD00058F4C13019F00E94401DD9CE0E942E1D18
:102FE000D6CE0E94521DD3CE0E94A31CD0CECF704D
:102FF000112329F08C2F0E94C91C8D2F12CF8D2FE9
:103000000E945F168C2F0E94EA1CC1CED23F89F12C
:1030100060F4D03FC9F0D13F29F1112309F442C037
:1030200001119DCE8C2F8F7121C0D33F39F1D43F38
:10303000A1F7112369F1CF718C2F0E94C91C63E0A5
:103040008C2F0E94D01EA3CE112341F0053008F032
:103050009ECE8C2F8F710E940D1D99CE063008F0E8
:1030600096CEF7CF8C2F8F71112369F20E94C91C65
:103070008ECE8C2F8F711123C9F3C5CF112329F068
:103080008C2F8F710E94B41C82CE0E94AF1C7FCE09
:1030900081E00E94E51E023008F479CE82E00E94B1
:1030A000E51E75CE002359F0D93309F0E9CE8FEF34
:1030B00097EEE3E081509040E040E1F7DFCE8C2FC7
:1030C0008F71A1CF4C2F4F706D2FC6010E9430041D
:1030D0000E94E11B5CCE4C2F4F706D2FC6010E94E9
:1030E000330455CEDF91CF911F910F91FF90EF9058
:1030F000DF90CF90BF9008950F931F93CF93DF93EE
:10310000EC01688179818A810E94051E8C010E94F0
:10311000641D0E94681CB801CE01DF91CF911F9100
:103120000F910C946616CF93DF93EC018B819C81F9
:10313000892B29F08881998189238F3F59F4DF9168
:10314000CF910895CE010E947C18CE01DF91CF91DE
:103150000C946E03CE010E9495038111F3CF0E945F
:10316000471E882361F38A81882349F382E0DF9137
:10317000CF910C94E51E90E080E00E94FB1390E05C
:1031800080E00E9411140E946E1E0E947E1E0E940A
:103190009A1E0E94F6090C94CF080E94371E0C94C8
:1031A000BB180E945E1E0C94CD18E92FE295EF70BB
:1031B000E250EE3070F4F0E0E451F64D0C94BF288C
:1031C000803F19F020F4883E20F481E00895843F88
:1031D000E1F380E00895883EC0F3813FD1F7F5CF59
:1031E00093FB882780F908950E94FB1D0C94D51845
:1031F000CF93DF9300D000D00F92CDB7DEB70F9002
:103200000F900F900F900F90DF91CF910895CF9373
:10321000DF9300D000D000D0CDB7DEB726960FB632
:10322000F894DEBF0FBECDBFDF91CF9108951F93FD
:10323000CF93DF93C091820216E0809183028C13BA
:1032400004C0DF91CF911F910895D0E01C9FF00141
:103250001D9FF00D1124EC57FD4F4081518162817B
:103260007381848195810E9407192196C770E5CFEB
:103270004091B4025091B5026091B6027091B702CC
:103280008091B8029091B9020C9407191F93CF93C3
:10329000DF938091B902807FA9F48091B6028823E0
:1032A00089F080918202C09183026091B402709192
:1032B000B502A091B702B091B802D62FD72316E07D
:1032C000C81304C0DF91CF911F91089590E010972B
:1032D00011F0DF3F19F401968770F2CF189F90012B
:1032E000199F300D1124F901EC57FD4F418147130F
:1032F000F2CF40814613EFCF42814111ECCF4381A1
:1033000054814A1B5B0B483C510528F78091B90258
:103310008F7080618093B902F901E757FD4F80817A
:103320008F708061808384EB92E00E949318DF911C
:10333000CF911F910C941719AF92BF92CF92DF9249
:10334000EF92FF920F931F93CF93DF93CDB7DEB72A
:1033500061970FB6F894DEBF0FBECDBF8C0185E03C
:10336000F801DE011D9601900D928A95E1F7F801B2
:1033700040815181E28084EBC82E82E0D82E60919A
:10338000B7027091B8026115710509F461C190919D
:10339000B4022091B502892F82238F3F09F458C1CE
:1033A000A380B480F090B602F501E61BF70BFF2076
:1033B00009F4FCC08091B902382F307FE83CF10558
:1033C00008F0B2C0311179C0FE2C251323C094132C
:1033D00021C0E1101FC08F7080618093B9020E94EC
:1033E0003819C6010E9493188091B902F8018583AB
:1033F0008F2D61960FB6F894DEBF0FBECDBFDF9163
:10340000CF911F910F91FF90EF90DF90CF90BF90E1
:10341000AF900895AB2829F0842F85238F3F09F0C2
:1034200033C180E0F82FF170DF2E80FF3CC0809127
:1034300082022091830236E0821315C04D875E8799
:103440008D859E850E94FB1D292F22952F7022308D
:10345000F0F0243018F59F70F1F0F8019581907F1D
:10346000D1F4D12C1EC090E0389FF001399FF00DAF
:103470001124EC57FD4F6181651306C06081641310
:1034800003C062816E110FC001968770D5CF9F7007
:1034900011F0882331F3805E883018F3C8010E9450
:1034A0009318FD2CA5CFEE2009F4A2CF8091B9028C
:1034B00081608093B902F12C9BCF251306C0941331
:1034C00004C0F801EE2009F48DC04D875E878D851C
:1034D0009E850E94F418882319F1EE2009F180914D
:1034E000B902803270F02091B4023091B502388771
:1034F0002F831986BB86AA868C87CE0107960E94E9
:10350000931886E0F801A4EBB2E001900D928A9541
:10351000E1F70E9446190E943819FF24F39468CFFE
:10352000C8010E949318F9CF311113C07A2DB98ABE
:10353000A88A6E2D89890E94F81884EB92E00E9477
:10354000931886E0F60111928A95E9F70E943819DE
:10355000B2CF25130FC094130DC0E1100BC0F801BA
:103560008583C8010E94931886E0F60111928A951E
:10357000E9F73ECF4D875E878D859E850E94F418C2
:10358000882371F2EE2061F28091B902803208F452
:10359000B8CF2091B4023091B5023A8329831B82BF
:1035A000BD82AC828E83CE010196A9CFE83CF105A5
:1035B00008F041C0FE2CEE2009F4B2CF25132AC03A
:1035C000941328C08091B90280FD1BC0982F907F72
:1035D000C1F0F8018583903F31F0982F907F905F84
:1035E0008F70892B8583C8010E94931886E0F801AB
:1035F000A4EBB2E001900D928A95E1F70E94381990
:10360000F7CE86E0F801A4EBB2E001900D928A9526
:10361000E1F7EECE4D875E878D859E850E94F4187A
:1036200081116FCF8091B90281608093B902C80186
:103630000E949318DDCE7A2DB98AA88A6E2D8989C9
:103640000E94F81886E0F60111928A95E9F7D6CF24
:10365000EE2009F465CF4D875E878D859E850E949B
:10366000F418F82E882309F45BCF86E0F801A4EB68
:10367000B2E001900D928A95E1F784EB92E00E940E
:103680004C150E944619BACF81E08E25CBCE1F93F0
:10369000CF93DF93CDB7DEB72C970FB6F894DEBF8C
:1036A0000FBECDBF4F83588769877A878B879C87EA
:1036B000CE0107960E949C19882369F08A859B8514
:1036C000892B39F04F815885842F85238F3F09F04E
:1036D00071C016E05FC086E0FE013796DE011196EC
:1036E00001900D928A95E1F78A859B85892B89F354
:1036F0008F81988589238F3F61F32091830230E089
:10370000C9010196877099274091820248171906CE
:1037100071F40E94D118109283021092820286E006
:10372000E4EBF2E0DF011D928A95E9F7D2CF96E053
:10373000929FD001939FB00D1124AC57BD4FFE0155
:10374000319601900D929A95E1F7809383020E9441
:103750001719BFCF819FC00111248C579D4F0E9424
:103760009C198823E9F0E09182021E9FF001112448
:10377000EC57FD4F40815181628173818481958135
:103780000E9407198091820290E001968770992724
:103790008093820280918202909183028913DACF12
:1037A0002C960FB6F894DEBF0FBECDBFDF91CF9140
:1037B0001F91089569857A858B859C850E940719DC
:1037C00088CFEF92FF920F931F93CF93DF938C01DB
:1037D000892B81F0F12CEE24E394E8012196F80185
:1037E0008491843770F4843008F05FC08130B1F088
:1037F0008230A1F1DF91CF911F910F91FF90EF9057
:103800000895853709F44CC008F43DC09CE7980F33
:10381000903780F78F770E94E31549C00E5F1F4FE6
:10382000FE01849190E2980F983060F48770FE2D2D
:1038300001C0FF0F8A95EAF78F2F0E94711E0E9428
:103840009A1E02C00E9451158F2D815030F2EFE96F
:10385000FFE03197F1F700C00000F7CF0E5F1F4F78
:10386000FE01849190E2980F983050F48770FE2DFD
:1038700001C0FF0F8A95EAF78F2F0E94771EDFCFD6
:103880000E94E315E1CF0E5F1F4FFE01C491C150AE
:10389000D8F28FE99FE00197F1F700C00000F7CF61
:1038A0000E5F1F4FFE01F490CFCF0E9451158E0185
:1038B000CBCF08950C94591C0E945A1C6093F002BF
:1038C0007093F1028093F2029093F3020C94BB1870
:1038D00008950C945C1C0F931F930091F0021091BB
:1038E000F1022091F2023091F302602B712B822BB6
:1038F000932B1F910F910C945C1C0F931F930091BD
:10390000F0021091F1022091F2023091F302602353
:103910007123822393231F910F910C945C1C0F93AE
:103920001F930091F0021091F1022091F202309168
:10393000F30260277127822793271F910F910C9420
:103940005C1C0C940A030E94A11C6093EC0270930F
:10395000ED028093EE029093EF020C94BB1860E0AE
:1039600070E0CB010C94A31C0F931F9341E050E037
:1039700060E070E08A019B0104C0000F111F221F4C
:10398000331F8A95D2F7C901B8011F910F910C948A
:10399000A31C0F931F9341E050E060E070E004C06F
:1039A000440F551F661F771F8A95D2F78091EC024E
:1039B0009091ED02A091EE02B091EF028A019B017D
:1039C000082B192B2A2B3B2BC901B8011F910F91F2
:1039D0000C94A31C0F931F9341E050E060E070E053
:1039E00004C0440F551F661F771F8A95D2F7CB017D
:1039F000BA0160957095809590950091EC021091B8
:103A0000ED022091EE023091EF02602371238223B8
:103A100093231F910F910C94A31C0F931F9341E0CC
:103A200050E060E070E004C0440F551F661F771F30
:103A30008A95D2F78091EC029091ED02A091EE026E
:103A4000B091EF028A019B01082719272A273B27FB
:103A5000C901B8011F910F910C94A31C0F931F93E0
:103A60000091EC021091ED022091EE023091EF02F4
:103A7000602B712B822B932B1F910F910C94A31C05
:103A80000F931F930091EC021091ED022091EE0232
:103A90003091EF0260237123822393231F910F91B2
:103AA0000C94A31C0F931F930091EC021091ED0254
:103AB0002091EE023091EF02602771278227932731
:103AC0001F910F910C94A31C08952FE0929F800DDD
:103AD0001124982F977041E001C0440F9A95EAF79E
:103AE00086958695869595E0899FF0011124E65488
:103AF000FD4F90E080E070E05191DF0111979B0154
:103B0000082E02C0369527950A94E2F72170219578
:103B10002527242325272C9301968530910561F7CD
:103B200008952FE0929F800D1124982F977086950D
:103B30008695869525E0829FF0011124E654FD4F7D
:103B400050E040E080E0219130E0092E02C036953F
:103B500027950A94E2F721703327042E01C0220F23
:103B60000A94EAF7822B4F5F5F4F4530510559F7B2
:103B70000895BF92CF92DF92EF92FF920F931F931F
:103B8000CF93DF938C01C090EC02D090ED02E090D7
:103B9000EE02F090EF028091F0029091F102A0917C
:103BA000F202B091F302C82AD92AEA2AFB2ACFE10D
:103BB000D0E0BC2ED701C6010C2E04C0B695A79547
:103BC000979587950A94D2F780FD0EC0219788F7C4
:103BD000B12C8B2DDF91CF911F910F91FF90EF9022
:103BE000DF90CF90BF900895B8018C2F0E945004B1
:103BF000019761F3EECFCF93DF93EC010E94B91DE3
:103C0000BE01DF91CF910C9450041F93CF93DF93AB
:103C1000EB0190918102992331F0CB01DF91CF919B
:103C20001F910C94FB1D882379F0CB010E94B91DD4
:103C3000182F682FCE010E94651DBE01812FDF91D4
:103C4000CF911F910C945004CB010E94911D182F0D
:103C5000F4CF682F80911F01909120010C94442093
:103C6000682F80911F01909120010C944F2080912A
:103C70001F01909120010C945A208091F4028595A7
:103C80008595859508958091F402877008959091A7
:103C9000F402977081E009F480E0089580911803A0
:103CA000089590911803892B8093180308958095A7
:103CB0009091180398239093180308951092180375
:103CC000089590911703892B809317030895809589
:103CD0009091170398239093170308951092170358
:103CE000089590911603892B80931603089580956B
:103CF000909116039823909316030895109216033B
:103D000008958091F502089508950C94841E909171
:103D1000F502981721F08093F5020C94851E089502
:103D20008091F502882329F01092F50280E00C942E
:103D3000851E0895E0911F01F091200180911803E4
:103D40008083E0911F01F091200180819091170301
:103D5000892B8083E0911F01F09120018081909157
:103D60001603892B80839091F502992381F0E091CD
:103D70001F01F09120018081892B808380911F0198
:103D8000909120010E94B01F81110E94901E80918D
:103D90001F01909120010C94D31308950C94CD1E13
:103DA00098E0899F90011124622B6093F4020E9495
:103DB000C91C8091F4028595859585950C94CE1E3D
:103DC0001092F40280E00C94CE1E9091F402809543
:103DD00089238093F402282F277071F4282F082E4E
:103DE000000C330B9217130639F085958595859550
:103DF0000E94EA1C0C94E01E089580E008956FEF85
:103E00007FEF90E080E00C94912990E080E00E94A8
:103E10006D2921E08B3E9E4F09F020E0822F08950E
:103E200082E090E00C945F2983E090E00C945F299D
:103E3000CF9384E090E00E945F29C82F81E290E058
:103E40000E945F29982F8C2FCF910895CF93C92F6F
:103E5000682F84E090E00E9473296C2F81E290E04B
:103E6000CF910C947329AB01BC018FE090E00C94CE
:103E70008529AB01BC0183E190E00C94852960E0C9
:103E800070E0CB010C94391F60E070E0CB010E9420
:103E9000331F0C943F1F6BEE7EEF90E080E00E949A
:103EA000912960E082E090E00E94732960E083E065
:103EB00090E00E9473291092F0021092F102109289
:103EC000F2021092F30260E084E090E00E94732915
:103ED00060E081E290E00E94732960E085E090E07C
:103EE0000E94732960E086E090E00E9473296FEFE2
:103EF00087E090E00E94732940E050E0BA0188E03A
:103F000090E00E94852960E08DE090E00E94732996
:103F100040E050E0BA0188E190E00E94852960E02D
:103F200087E190E00E94732940E050E0BA018CE103
:103F300090E00E94852960E080E290E00E94732971
:103F400040E050E0BA0188E190E00E9485290C949D
:103F5000441F0C944B1F682F8EE090E00C94732943
:103F6000FC01329680912B01882321F08091A203DD
:103F70009EE187FF96E080E0915008F4089521913A
:103F80002223D1F38F5FF8CF662301F120912B011B
:103F90002223F1F02091A20327FF1AC0462F469555
:103FA000469546954E3190F4677021E030E002C0AE
:103FB000220F331F6A95E2F7840F911DFC01828165
:103FC00090E02823392381E0232B69F480E00895D1
:103FD000FC01329608962191261721F0E817F9077F
:103FE000D1F7F4CF81E008959C01FC0132969FEF58
:103FF00080E04191461751F09F3F19F4411101C0F3
:10400000982F8F5F8630A9F79F3F09F40895290FF5
:10401000311D97FD3A95F90162830895FC013296AE
:1040200008962191261303C0DF0111971C92E8170F
:10403000F907B9F70895E62FE695E695E695EE318E
:1040400068F4E80FF92FF11D677021E030E001C03E
:10405000220F6A95EAF78281822B82830895E62FE8
:10406000E695E695E695EE3170F4E80FF92FF11D2F
:10407000677021E030E001C0220F6A95EAF72095D1
:10408000828128232283089520912B01222329F065
:104090002091A20327FD0C941B200C94F41F209167
:1040A0002B01222329F02091A20327FD0C942F201D
:1040B0000C940E20FC01329680912B01882351F044
:1040C0008091A20387FF06C08EE1DF011D928A95D1
:1040D000E9F7089586E0F9CF089508950C946D20CE
:1040E0008091A803843049F10E946E2080E00E94F4
:1040F000280410921A0388E190E020E40FB6F894A7
:10410000A895809360000FBE2093600083B7817FE5
:10411000846083BF83B7816083BF7894889583B7B9
:104120008E7F83BF0FB6F894A89580916000886158
:1041300080936000109260000FBE08950895CF93A1
:104140000E946C200E94BB060E949E20C0E08C2F23
:104150000E944406892B31F4CF5FC530C1F780E05F
:10416000CF91089581E0FCCF08950C94B4200E9473
:10417000D1180E94C7130E9428040C94B5201F92E6
:104180001FB61F9211248F939F93AF93BF9380917B
:104190001A03811113C080919E0390919F03A091F7
:1041A000A003B091A1034196A11DB11D80939E0370
:1041B00090939F03A093A003B093A103BF91AF91ED
:1041C0009F918F911F901FBE1F90189582E084BD14
:1041D00093E095BD9AEF97BD80936E0008952FB739
:1041E000F89480919E0390919F03A091A003B091B9
:1041F000A1032FBF08952FB7F89460919E0370918B
:104200009F038091A0039091A1032FBF08959C016B
:104210004FB7F89480919E0390919F03A091A003C3
:10422000B091A1034FBF821B930B089578941F9206
:104230001FB61F9211248F939F93AF93BF938091CA
:104240009E0390919F03A091A003B091A1030196BA
:10425000A11DB11D80939E0390939F03A093A00383
:10426000B093A103BF91AF919F918F911F901FBEFB
:104270001F90189581E08093E00080E28093D80041
:104280001092C9008FE19EE40197F1F700C0000091
:1042900087E090EBDC018093B1039093B203A0938D
:1042A000B303B093B40388E19CE00FB6F894A895EB
:1042B000809360000FBE90936000FFCF9093CF017A
:1042C0008093CE0108950C94FF1E0E94BB068FEFD1
:1042D00099EF0197F1F700C000000E94BB0680E053
:1042E0000E94440680FF04C00E9463210C943A217E
:1042F00008950E94051F811102C00E94A91F0E94FB
:10430000101F809319030E94181F9093A30380939A
:10431000A2030E94141F682F70E090E080E00E94CA
:10432000691C6091EC027091ED028091EE02909117
:10433000EF020C94A11C80913B030895CF93DF936F
:1043400000D00F92CDB7DEB79091A803943019F545
:1043500089837B836A8382E08093E9008FEF909169
:10436000E800815095FD06C095ED9A95F1F70000A3
:104370008111F5CF8091E80085FF0DC050E040E04D
:1043800063E070E0CE0101960E94CA238091E800AC
:104390008E778093E8000F900F900F90DF91CF9170
:1043A0000895BC0184E00C949E21BC0183E00C9430
:1043B0009E219C0182E08093E9009FEF8091E800BC
:1043C000915085FD06C085ED8A95F1F700009111A9
:1043D000F5CF8091E80085FF0CC050E040E066E03A
:1043E00070E0C9010E94CA238091E8008E77809313
:1043F000E8000895CF93DF93EC0180912B0188238F
:10440000B1F18091A20387FF32C060E282E0809325
:10441000E9008FEF9091E800815095FD06C095ED81
:104420009A95F1F700008111F5CF8091E80085FFA2
:104430001BC080912B0170E050E040E0811104C06E
:1044400050E040E068E070E0CE010E94CA23809115
:10445000E8008E778093E80080E2FE01ABE1B3E0F4
:1044600001900D928A95E1F7DF91CF91089568E070
:1044700081E0CDCF8091A703811109C00E945A2508
:104480000E94B7258091E20084608093E200089545
:104490001092A703089508950895089542E061ECED
:1044A00081E00E94D62442E261EC82E00C94D624A2
:1044B0008091AA03833009F45FC030F48130C1F1E8
:1044C000823009F49BC008958A3009F487C08B308C
:1044D00009F46DC0893009F04EC08091A903813282
:1044E00009F049C08091AD039091AE03029708F0A6
:1044F00042C08091E800877F8093E8008091E800C7
:1045000082FF35C09091F3008091F200029729F468
:104510008091F1008B7F813021F48091F1008093B4
:104520003B038091E8008B778093E8000C940A2588
:104530008091A903813AF9F48091E800877F809304
:10454000E8008091AD039091AE03892B61F460E2A5
:104550008BE193E070E00E9419248091E8008B7752
:104560008093E800089560E090E080E0F3CF8091D0
:10457000A8038111C3CF08958091A903813AD9F787
:104580008091AD039091AE03892BA9F78091E8004B
:10459000877F8093E8008091E80080FFFCCF8091C6
:1045A0002B018093F1008091E8008E77BDCF809140
:1045B000A903813201F78091AD039091AE03892B5D
:1045C000D1F68091E800877F8093E8000E940A2559
:1045D0008091AB0380932B010C94D1188091A90397
:1045E000813249F68091E800877F8093E8000E943D
:1045F0000A258091AC0380933C0308958091A90320
:10460000813A09F0B8CF8091E800877F8093E80075
:104610008091E80080FFFCCF80913C03C2CF84B73B
:10462000877F84BF0FB6F894A89580916000886159
:1046300080936000109260000FBE80E890E00FB69B
:10464000F89480936100909361000FBE0E9448141B
:104650000E945A250E94B7258091E20084608093D1
:10466000E20078940E9440280E94581481E291E070
:104670000E94C2138091A8038530A9F00E946214A1
:104680000E9456140E945714F5CF0E94702080910A
:10469000A603882341F00E949F20882321F00E94D6
:1046A000B4230E94D1188091A803853071F30E9431
:1046B000B720E4CF0C945C23292F33272330310516
:1046C00019F168F42130310509F444C02230310574
:1046D00009F445C090E080E030E020E025C02132C0
:1046E000310549F122323105A9F780E490E02FE24B
:1046F00035E061157105C1F086EB90E029E734E003
:104700006130710589F0E6CF99278130910581F0FC
:10471000009729F00297F1F6E2EFF3E002C0E8E239
:10472000F4E0849190E09F01FA01318320830895A1
:10473000E2E1F4E0F6CF89E090E02EE334E06115A9
:10474000710591F389E090E027E534E0613071056F
:1047500059F3C0CF82E190E027E634E0E5CF8BE368
:1047600090E02CE234E0E0CF80E189BD82E189BDB8
:1047700009B400FEFDCF8091D8008F7D8093D800D2
:104780008091E00082608093E0008091E00081FDF4
:10479000FCCF0895AF92BF92CF92DF92FF920F931A
:1047A0001F93CF93DF936C01EB018A010E942925AF
:1047B000F82E811123C00115110539F0F80180810F
:1047C0009181C81BD90BC80ED91EB12CA12C2097E2
:1047D000A9F08091E80085FD22C08091E8008E77E5
:1047E0008093E80001151105A1F0F8018081918105
:1047F000A80EB91EB182A08285E0F82E8F2DDF9120
:10480000CF911F910F91FF90DF90CF90BF90AF900D
:1048100008950E9429258823D1F2F82EEFCFF601C2
:1048200081916F018093F1002197FFEFAF1ABF0ACA
:10483000CECFFC018091AF039091B003861797070C
:10484000A0F06115710529F49091E8009E7790938E
:10485000E80090E06115710551F4911108C0809154
:10486000E80082FF34C080E00895BC01F2CF80915F
:10487000A8038823C1F18530C1F18091E80083FD50
:1048800030C08091E80082FDEACF8091E80080FF8F
:10489000E1CF8091F3002091F200382F611571056E
:1048A00019F02830310558F091E02830310509F031
:1048B00090E02091E8002E772093E800CBCF819103
:1048C0008093F100615071092F5F3F4FE7CF8091D6
:1048D000A803882341F0853041F08091E80083FFF0
:1048E000BECF81E0089582E0089583E00895FC0141
:1048F0008091AF039091B00386179707A0F06115E0
:10490000710529F48091E8008E778093E80090E0AB
:104910006115710551F4911108C08091E80082FF82
:1049200035C080E00895BC01F2CF8091A8038823B0
:10493000C9F18530C9F18091E80083FD31C08091D3
:10494000E80082FDEACF8091E80080FFE1CF80910E
:10495000F3002091F200382F6115710519F028300D
:10496000310558F091E02830310509F090E0809150
:10497000E8008E778093E800CBCF84918093F1009C
:104980003196615071092F5F3F4FE6CF8091A803A8
:10499000882341F0853041F08091E80083FFBDCF4E
:1049A00081E0089582E0089583E00895982F97307C
:1049B00028F08F708093E90081E008959093E900DA
:1049C000242F762F50E0981731F07091EC00209151
:1049D000ED005091F00021FD02C09F5FE8CF3091C3
:1049E000EB003E7F3093EB003091ED003D7F309344
:1049F000ED003091EB0031603093EB007093EC00F0
:104A00002093ED005093F0002091EE0027FDE5CFBC
:104A100080E008958091A90387FF13C08091E8008A
:104A200082FF06C08091E8008B778093E80004C085
:104A30008091A8038111F2CF08958091A803882363
:104A4000D9F38091E80080FFF8CF8091E8008E775D
:104A5000ECCF2091E4003091E50095E6A90120918A
:104A6000EC00822F817020FF06C08091E80080FF5B
:104A700006C080E008952091E80022FD1AC08091D0
:104A8000A803882389F0853089F08091EB0085FDAB
:104A90000FC02091E4003091E50042175307F9F26E
:104AA0009150E1F684E0089582E0089583E008954E
:104AB00081E008950E94C8250E94D025E0EEF0E034
:104AC000808181608083E8EDF0E080818F77808352
:104AD00019BCA7EDB0E08C918E7F8C9380818F7E86
:104AE00080831092A70308950F931F93CF93DF93B2
:104AF0000E94C8250E94D025C8EDD0E088818F771C
:104B0000888388818068888388818F7D888319BCA9
:104B10001092A8031092A4031092A6031092A5036A
:104B200000EE10E0F80180818B7F808388818160B6
:104B3000888342E060E080E00E94D624E1EEF0E06D
:104B400080818E7F8083E2EEF0E0808181608083CF
:104B5000808188608083F80180818E7F8083888156
:104B600080618883DF91CF911F910F910895E8EDC7
:104B7000F0E080818F7E8083E7EDF0E080818160CE
:104B8000808384E082BF81E08093A7030C94742526
:104B9000E8EDF0E080818E7F80831092E20008953E
:104BA0001092DA001092E10008951F920F920FB652
:104BB0000F9211242F933F934F935F936F937F93A3
:104BC0008F939F93AF93BF93EF93FF938091E100F7
:104BD00082FF0BC08091E20082FF07C08091E1005C
:104BE0008B7F8093E1000E943F288091DA0080FF54
:104BF00019C08091D80080FF15C08091DA008E7FA7
:104C00008093DA008091D90080FF96C080E189BD51
:104C100082E189BD09B400FEFDCF81E08093A80345
:104C20000E943A228091E10080FF19C08091E20049
:104C300080FF15C08091E2008E7F8093E20080911A
:104C4000E20080618093E2008091D80080628093CE
:104C5000D80019BC85E08093A8030E944C22809163
:104C6000E10084FF2BC08091E20084FF27C080E137
:104C700089BD82E189BD89B5982F917080FFFBCFF6
:104C80008091D8008F7D8093D8008091E1008F7E45
:104C90008093E1008091E2008F7E8093E20080911A
:104CA000E20081608093E2008091A403882309F4EC
:104CB00049C084E08093A8030E944D228091E100C6
:104CC00083FF29C08091E20083FF25C08091E1002D
:104CD000877F8093E10082E08093A8031092A40371
:104CE0008091E1008E7F8093E1008091E2008E7FD1
:104CF0008093E2008091E20080618093E20042E0D4
:104D000060E080E00E94D6248091F000886080936B
:104D1000F0000E944B22FF91EF91BF91AF919F91C4
:104D20008F917F916F915F914F913F912F910F9054
:104D30000FBE0F901F90189519BC1092A8030E94E7
:104D4000482270CF8091E30087FD93E09093A80301
:104D5000B3CF1F920F920FB60F9211242F933F9350
:104D60004F935F936F937F938F939F93AF93BF9373
:104D7000CF93DF93EF93FF93D091E900DF708091A1
:104D8000EC00C82FC17080FDC0E81092E90080914E
:104D9000F000877F8093F00078940E94ED261092B7
:104DA000E9008091F00088608093F000CD2BCF70F7
:104DB000C093E900FF91EF91DF91CF91BF91AF9147
:104DC0009F918F917F916F915F914F913F912F9123
:104DD0000F900FBE0F901F9018951F93CF93DF93E6
:104DE000CDB7DEB7AA970FB6F894DEBF0FBECDBF22
:104DF00089EA93E02091F100FC012193CF01F3E0D7
:104E0000813B9F07B9F70E9458228091E80083FFF9
:104E10001EC18091A9039091AA039A3008F017C18E
:104E2000E92FF0E0E650F64D0C94BF28803899F059
:104E3000823809F00CC18091AD038F70873008F083
:104E400006C18093E9008091EB0085FB882780F9FB
:104E50001092E90006C08091A5039091A6039111DC
:104E600082609091E800977F9093E8008093F10032
:104E70001092F1008091E8008E77E5C0882309F454
:104E8000D3C0823009F0E3C08091AB038111D6C05A
:104E90008091AD038F702FEF280F263008F0D7C018
:104EA0008093E9002091EB0020FFC8C0933031F4DB
:104EB0008091EB0080628093EB00C0C09091EB008A
:104EC00090619093EB0021E030E001C0220F8A95C1
:104ED000EAF72093EA001092EA008091EB008860E4
:104EE000EACF8111B4C01091AB031F778091E3002A
:104EF0008078812B8093E3008091E800877F809306
:104F0000E8000E940A258091E80080FFFCCF809194
:104F1000E30080688093E30082E0111183E08093D6
:104F2000A80395C08058823008F091C08091AB03EF
:104F30009091AC038C3D23E09207A1F583E08A8336
:104F40008AE289834FB7F894DE01139620E03EE0B1
:104F500051E2E32FF0E050935700E49120FF03C0AB
:104F6000E295EF703F5FEF708E2F90E0EA30C0F077
:104F7000C7968D939D932F5F243159F74FBF809132
:104F8000E800877F8093E8006AE270E0CE01019636
:104F90000E9419248091E8008B778093E80057C025
:104FA000C096E7CF6091AD037091AE03AE014F5F45
:104FB0005F4F0E945A23BC01892B09F448C090918D
:104FC000E800977F9093E80089819A810E94772476
:104FD000E1CF8038E1F58091E800877F8093E80099
:104FE0008091A4038093F10045CF811130C090914E
:104FF000AB03923060F58091E800877F8093E800F2
:105000009093A4030E940A258091A403882311F0A1
:1050100084E005C08091E30087FDFACF81E08093B2
:10502000A8030E944E2213C08091AB03813079F413
:1050300081E0933009F080E08093A6031092E900AC
:105040008091E800877F8093E8000E940A25809184
:10505000E80083FF0AC08091E800877F8093E80022
:105060008091EB0080628093EB00AA960FB6F894D3
:10507000DEBF0FBECDBFDF91CF911F910895089580
:10508000CF938091A8038823A1F0C091E900CF704D
:105090009091EC00892F817090FD80E8C82B1092D0
:1050A000E9008091E80083FD0E94ED26CF70C09357
:1050B000E900CF910895991B79E004C0991F9617D4
:1050C00008F0961B881F7A95C9F78095089587FB8D
:1050D000082E062687FD819567FD61950E945B2855
:1050E0000EF4919507FC81950895AA1BBB1B51E115
:1050F00007C0AA1FBB1FA617B70710F0A61BB70B48
:10510000881F991F5A95A9F780959095BC01CD01EC
:10511000089597FB072E16F4009407D077FD09D069
:105120000E94752807FC05D03EF4909581959F4F0D
:105130000895709561957F4F0895A1E21A2EAA1BDC
:10514000BB1BFD010DC0AA1FBB1FEE1FFF1FA21737
:10515000B307E407F50720F0A21BB30BE40BF50B34
:10516000661F771F881F991F1A9469F760957095BD
:10517000809590959B01AC01BD01CF010895EE0F84
:10518000FF1F0590F491E02D09940E94CD28332350
:1051900012F48A1B9B0B0C94DE28A29FB001B39FD4
:1051A000C001A39F700D811D1124911DB29F700D30
:1051B000811D1124911D08950E94CD28B7FF0895E7
:1051C000821B930B08950E94CD28A59F900DB49F3C
:1051D000900DA49F800D911D11240895B7FF0C948C
:1051E000E3280E94E328821B930B08958F929F92DD
:1051F000AF92BF92CF92DF92EF92FF92CF93DF9365
:10520000EC01688179818A819B8161157105810535
:10521000910521F464E279ED8BE597E02DE133EF20
:1052200041E050E00E94A72949015A019B01AC01CD
:10523000A7EAB1E40E94E3286B017C01ACEEB4EF75
:10524000A50194010E94F128DC01CB018C0D9D1D6C
:10525000AE1DBF1DB7FF03C00197A109B0488883E9
:105260009983AA83BB839F77DF91CF91FF90EF90C3
:10527000DF90CF90BF90AF909F908F9008950E9445
:10528000F628089580E091E00E94F6280895B0E0A5
:10529000A0E08093000190930101A0930201B093DC
:1052A00003010895FC014150504030F00190061672
:1052B000D1F73197CF010895882799270895F99953
:1052C000FECF92BD81BDF89A992780B50895A6E1D9
:1052D000B0E044E050E00C949929A8E1B0E042E04D
:1052E00050E00C949929262FF999FECF92BD81BDEB
:1052F000F89A019700B4021639F01FBA20BD0FB614
:10530000F894FA9AF99A0FBE08950396272F0E94EF
:1053100074290E947329252F0E947429242F0C942C
:1053200074290196272F0E9474290C947329DC019B
:10533000CB01FC01F999FECF06C0F2BDE1BDF89AA0
:10534000319600B40D9241505040B8F70895052EA3
:1053500097FB1EF400940E94BE2957FD07D00E94BF
:105360009D2807FC03D04EF40C94BE29509540951F
:10537000309521953F4F4F4F5F4F08959095809501
:10538000709561957F4F8F4F9F4F0895F894FFCF91
:1053900031113911401145114A114F115411591150
:1053A0005E11631168116D117111761179117C1103
:1053B0007F118211841187119A169A16F216F2162D
:1053C00044176017C716C7166B17F7170618061885
:1053D0006218C716C7166B18E018E018E918E91824
:1053E000EB18E918E918E918E018E018F018E918BE
:1053F000E918F01816273E2727283E272728712767
:0854000092272728E927F52770
:10540800010000002808641E140A321E010102006F
:105418001800181801191A1B1C1D1E1F202122F61E
:10542800029B21FA21D921D521D12101E200E900ED
:10543800EA00B500B600B700CD008301CC008A01B0
:105448009201940121022302240225022602270246
:105458002A02B300B4006F007000818283F0F1C6A5
:1054680067663694313037353497963390919293F6
:10547800950001020202020606060909090909093E
:105488000F0F0F0F0F0F15151518191919191919CD
:10549800191919192324252525252525E200E900B0
:1054A800EA00B500B600B700CD008301CC008A0140
:1054B80092019401210223022402250226022702D6
:0E54C8002A02B300B4006F00700081828300DE
:00000001FF
