:100000000C94BB020C9402030C9402030C940203A4
:100010000C9402030C9402030C9402030C9402034C
:100020000C9402030C9402030C9471260C94452743
:100030000C9495210C9402030C9402030C9402037B
:100040000C9402030C9402030C9402030C9402031C
:100050000C9402030C94EC210C9402030C94020304
:100060000C9402030C9402030C9402030C940203FC
:100070000C9402030C9402030C9402030C940203EC
:100080000C9402030C9402030C9402030C940203DC
:100090000C9402030C9402030C9402030C940203CC
:1000A0000C9402030C9402030C940203165C1E00D1
:1000B0001F0020002100220023002400250026002C
:1000C00027002D002E002A0000002B0014001A002B
:1000D0000800150017001C0018000C001200130087
:1000E0002F00300031004A003900040016000700DC
:1000F00009000A000B000D000E000F003300340051
:10010000280000004D00E1001D001B000600190042
:10011000050011001000360037003800E50000002F
:1001200052004C00E0000000E20000002C000151F1
:1001300000002C000000E60000000000500051000C
:100140004F0001003A003B003C003D003E003F00F4
:100150004000410042004300440045004C000000C4
:100160000100010001000100005C0100010001002C
:100170000100010046000100010001004B000100E8
:10018000C35CC45CC65CC85CCA5C010001000100C1
:10019000010001000100010000004E00010001000B
:1001A000C55CC75CC95CCB5C0100010001000100BB
:1001B0000100010000000100010001000000E30057
:1001C000000001000100000001000000010000002B
:1001D00000000100010001001E0F0500047F3F1F09
:1001E000643214643214783C1E1E140A052223253E
:1001F0002628292A2C2D2F3032333536383A3B3DEC
:100200003E4042434547494A4C4E50515355575939
:100210005A5C5E6062646668696B6D6F7173757756
:10022000797B7D7F81838587898A8C8E9092949655
:10023000989A9C9E9FA1A3A5A7A8AAACAEAFB1B364
:10024000B4B6B8B9BBBCBEBFC1C2C3C5C6C7C9CAB4
:10025000CBCCCDCED0D1D2D2D3D4D5D6D7D7D8D976
:10026000D9DADADBDBDBDCDCDCDCDCDDDDDDDDDCD4
:10027000DCDCDCDCDBDBDBDADAD9D9D8D7D7D6D5E6
:10028000D4D3D2D2D1D0CECDCCCBCAC9C7C6C5C3A8
:10029000C2C1BFBEBCBBB9B8B6B4B3B1AFAEACAAF5
:1002A000A8A7A5A3A19F9E9C9A98969492908E8CA5
:1002B0008A89878583817F7D7B79777573716F6D7F
:1002C0006B6968666462605E5C5A59575553515059
:1002D0004E4C4A4947454342403E3D3B3A3836350D
:1002E0003332302F2D2C2A292826252322FFAA7FBE
:1002F0005540000101010101010101010202020258
:1003000002020202020303030303030303040404BF
:100310000404040405050505050606060606070788
:1003200007070708080808090909090A0A0A0B0B40
:100330000B0C0C0C0D0D0D0E0E0E0F0F0F101011DF
:100340001111121213131414151516161717181865
:1003500019191A1A1B1B1C1D1D1E1E1F20202122CD
:1003600022232424252626272829292A2B2C2D2D13
:100370002E2F30313232333435363738393A3B3C30
:100380003D3E3F404142434445464748494A4C4D23
:100390004E4F50515354555658595A5B5D5E5F61EC
:1003A0006264656668696B6C6D6F7072737577787F
:1003B0007A7B7D7E8082838587888A8C8E8F9193DD
:1003C0009596989A9C9EA0A2A3A5A7A9ABADAFB104
:1003D000B3B5B7BABCBEC0C2C4C6C9CBCDCFD1D4E9
:1003E000D6D8DBDDDFE2E4E7E9EBEEF0F3F5F8FA8F
:1003F000FDFF240341007200690073007500740062
:10040000650061002D005200470042002D0076007B
:1004100030002E0033000000140333007800360053
:1004200020006B006500650062007300000004039B
:10043000090409023B00020100A0FA0904000001BE
:10044000030101000921110100012240000705817B
:100450000308000A0904010001030000000921113A
:1004600001000122B6000705820320000A120110D4
:10047000010000000866A6650003000102000105F6
:10048000010902A10185020901A10005091901293B
:10049000081500250195087501810205010930093B
:1004A000311581257F95027508810609381581254A
:1004B0007F950175088106050C0A38021581257F94
:1004C000950175088106C0C005010980A101850359
:1004D00019012AB700150126B70095017510810092
:1004E000C0050C0901A101850419012AA00215010A
:1004F00026A002950175108100C005010906A10121
:100500008505050719E029E71500250195087501FE
:1005100081020507190029EF1500250195F07501E5
:1005200081020508190129059505750191029501BA
:1005300075039101C005010906A101050719E0290C
:10054000E71500250195087501810295017508815F
:10055000010507190029FF150026FF0095067508FB
:10056000810005081901290595057501910295017C
:1005700075039101C00011241FBECFEFDAE0DEBF8A
:10058000CDBF04B603FE27C08091990390919A03D2
:10059000A0919B03B0919C038730904BA740B04B38
:1005A000D1F41092990310929A0310929B03109227
:1005B0009C0314BE84B7877F84BF0FB6F894A895B8
:1005C00080916000886180936000109260000FBE8F
:1005D000E0E0F8E3099511E0A0E0B1E0E8E1F5E53D
:1005E00002C005900D92AE3CB107D9F723E0AEEC06
:1005F000B1E001C01D92A939B207E1F70E94AD2315
:100600000C94622A0C9400000C942103849A8C9818
:10061000859A8D98869A8E980895CF92DF92EF9260
:10062000FF926B017C010E94EA03813041F48C9AB5
:10063000C701B601FF90EF90DF90CF9008958C989E
:10064000F7CF80FF05C08E9A81FF04C08D9A089570
:100650008E98FACF8D98089581E0089581E00895ED
:100660000C942E0308950C9432031F93CF93DF93C1
:1006700000D000D00F92CDB7DEB749835A836B8389
:100680003091720289819A8131111DC06623B9F0BF
:100690002223A9F00E945F1E182F682F89819A815A
:1006A0000E940B1E69817A81812F0F900F900F900D
:1006B0000F900F90DF91CF911F910C9447040E94EF
:1006C000371E182FEFCF0E945F1E69817A81EDCF10
:1006D000FC01262F408151816281738184810C94B9
:1006E0003503CF93DF93EC0160E00E946803BE0105
:1006F000DF91CF910C9433030E946A060C948E060E
:100700000C94910608950E9477190E9482032FEF9E
:1007100084E39CE0215080409040E1F700C000005D
:100720000C9410220F931F93CF93DF938C0161E001
:100730000E946803EC01B8010E9430038823D9F1BC
:10074000B801CE010E94CB128823A9F1B801CE01D5
:100750000E941D13882379F1B801CE010E94401434
:10076000882349F1B801CE010E946611882319F14E
:10077000F8018281882361F0CB35FDE5DF0721F1A7
:1007800070F4C115ECE5DE07A1F0CF3DDC45C9F002
:10079000C801DF91CF911F910F910C942C03CC35A0
:1007A0008DE5D807A1F0CD35DD4591F70E94061FF4
:1007B000EFCF0E94830380E0DF91CF911F910F91D3
:1007C00008950E947F20F7CF0E940F1FE1CF0E9463
:1007D000121FDECFCF92DF92EF92FF926C01EE24D8
:1007E000FF2420E0C114D104E104F10419F0C70191
:1007F000B60120E1C72ED82EE92EFF24C114D10462
:10080000E104F10419F0285FC701B6016B017C0116
:1008100054E0F694E794D794C7945A95D1F7C1144D
:10082000D104E104F10419F02C5FC701B6016B019A
:100830007C0142E0F694E794D794C7944A95D1F7A7
:10084000C114D104E104F10419F02E5FC701B6010F
:100850009695879577956795672B682B692B09F097
:100860002F5F822FFF90EF90DF90CF90089581E06F
:1008700008950C943704CF93C82F0E9404038C2F43
:10088000CF910C94390490E080E008950895972F5B
:1008900070E02FE0929F600D711D1124FB019BE41D
:1008A000899FE00DF11D1124EE0FFF1FE455FF4F4E
:1008B000859194910895FC01EE0FFF1FE852FE4FC1
:1008C000859194910895CF93DF930E9447040E94ED
:1008D0007805EC01811520E5920708F042C08115EA
:1008E00030E4930708F0BDC0883E910528F5803EAE
:1008F000910508F09DC0883A910588F4853A9105E4
:1009000008F08FC08130910509F492C0009709F476
:100910008FC0049708F08CC0D0E0C0E089C08F3B46
:10092000910508F489C0805C9109C03CD105A0F311
:100930000E945B04EC017CC08115904250F4C1150B
:1009400081E0D80708F074C0CD3ED10528F3D0650A
:100950006FC0C11590E3D90708F079C0CE019F7030
:10096000E7CF811525E5920758F5811534E5930702
:1009700008F0A6C0811542E5940750F4C11581E541
:10098000D80708F471C0DC2FCC27C16FD06A50C0E3
:10099000982F969596959E0123703327C115D345C0
:1009A00008F07FC0C1E0D0E002C0CC0FDD1F2A9567
:1009B000E2F720E2929FC0011124C82BD92B6FC00F
:1009C000C11589E5D807A8F4C11598E5D90708F03D
:1009D0007CC0C11526E5D20708F09ECF8C2F0E945F
:1009E0000F06C82FD0E0DC2FCC27CC27DF71D062D8
:1009F0001FC0C1153AE5D30708F46CC0CE0190566C
:100A00008115904208F088CF8D2F8F710E940F06BC
:100A100090E0982F882788279F719C012C2BE90153
:100A2000E6CFC55AD0E0C65ADE4FC881D0E0D064C8
:100A3000CE01DF91CF910895C85AD0E0CC0FDD1FD1
:100A4000C45DDE4F0990D881C02DD464F1CFCE01B2
:100A50009927D3FF03C0EC01D86CEACFEC01D06C2E
:100A6000E7CFDF70D06AE4CFCE01E4E096958795BA
:100A7000EA95E1F783702C2F26952695237090E256
:100A8000299F90011124382B8C2F8370C1E0D0E076
:100A900002C0CC0FDD1F8A95E2F7C22BD32BDC6896
:100AA000C7CFC1E0D0E002C0CC0FDD1F2A95E2F72E
:100AB00030E2939FC0011124C82BD92BDA68B8CF3C
:100AC000D82FCC27C46FD06AB3CFDC2FCC27C06F10
:100AD000D06AAECF8C2F8F700E940F0634E0D6956F
:100AE000C7953A95E1F7CF709C2FEC01D069A0CF64
:100AF00082389105B1F1B0F48133910509F475C0E4
:100B000048F48932910509F469C08A32910509F4E3
:100B100073C008958533910509F459C0893391054F
:100B200001F10895833E9105A9F138F4803E9105C5
:100B3000F9F0823E910549F10895863E9105A9F1AB
:100B4000873E9105C9F1843E910519F520912F0347
:100B500021FF1FC080912E0384FD14C087EE90E01A
:100B6000089520912E032370A1F080EE90E0089567
:100B700020912E0320FD47C030912F0330FF09C084
:100B800024FF44C090E080E004C020912E0322FDA9
:100B9000F7CF089520912E0322FD3BC030912F0303
:100BA00030FDE3CF24FFF5CFEDCF20912E0323FFBF
:100BB000F0CF24FDE7CFD2CF20912E0323FD2CC010
:100BC00030912F0331FFEECF84EE90E00895209115
:100BD0002E0325FFDECF89E290E0089520912E03B9
:100BE00025FFD7CF85E390E0089520912E0326FFBF
:100BF000D0CF8AE290E0089520912E0326FFC9CF3E
:100C000081E390E0089589E390E0089583EE90E019
:100C1000089582EE90E0089586EE90E00895909118
:100C20002E0392FF06C0282F28712830F9F4877F01
:100C3000846093FF06C0282F28712831F1F4877E45
:100C4000846120912F0320FF06C0382F387138307F
:100C5000D9F4877F816021FF06C0282F28712831B1
:100C6000D1F4877E816194FD877E0895282F2471B9
:100C70002430F9F68B7F8860DCCF282F2471243153
:100C800001F78B7E8861DDCF382F3171313019F754
:100C90008E7F8860E0CF282F2171213121F78E7E51
:100CA0008861E1CF0C94D41F0E940A078FE39CE96E
:100CB0000197F1F700C000000E940A0780E00E943F
:100CC000930680FF04C00E9452060C9410220895DF
:100CD0000C9454060E94DA1F811102C00E947F20EA
:100CE0000E94E51F80930A030E94ED1F90932F033B
:100CF00080932E030E9468060E94E91F682F70E00F
:100D000090E080E00E940F1D6091DD027091DE0294
:100D10008091DF029091E0020C94471D0C94060331
:100D200008950C949006E82FF0E0EE0FFF1FE65CAC
:100D3000FC4F808191810895089580EA8A95F1F7AA
:100D4000089500C008950C949D06F894E82FE2954C
:100D5000EF70F0E031A1282F2F7081E090E001C00A
:100D6000880F2A95EAF7982F9095932391A392A143
:100D7000892B82A3789408950F931F93CF93DF93C9
:100D800080E90E94A50681E90E94A50682E90E94E9
:100D9000A50683E90E94A50685E90E94A506CDE582
:100DA000D1E00CE611E089910E94A5060C171D0701
:100DB000D1F7109231031092300310923B0310923E
:100DC0003A03109233031092320310923D031092B3
:100DD0003C03109235031092340310923F0310929B
:100DE0003E03109237031092360310924103109283
:100DF000400310923903109238031092430310926B
:100E0000420385E00E948A07DF91CF911F910F91E5
:100E10000C947C03AF92BF92DF92EF92FF920F93FC
:100E20001F93CF93DF93CCE6D1E000E313E0D12C06
:100E3000EE24E394F12C8991F894E82FE295EF7079
:100E4000F0E021A18F70A70102C0440F551F8A95C1
:100E5000E2F7CA01922F982B91A392A18095892342
:100E600082A378940E94A106EDE5F1E030E020E055
:100E7000B12CA12C4191A42FA295AF70B0E0909617
:100E80008C9190E04F7002C0959587954A95E2F756
:100E900080FD3BC0C701022E02C0880F991F0A9433
:100EA000E2F7A82AB92A2F5F3F4F2F30310511F7FB
:100EB000FE01319780810E94A5060E94A306F801D9
:100EC00080819181A816B90619F1B182A08281E0D2
:100ED000D82A0E5F1F4FF1E0C137DF0709F0ABCF13
:100EE0002D2D45E06AE373E080E393E00E948B07D9
:100EF0000E9480038D2DDF91CF911F910F91FF9064
:100F0000EF90DF90BF90AF90089590E080E0C9CF60
:100F100080E0DECF0895FF920F931F93CF93DF936E
:100F2000F82E092F162FD72FC42F222349F081E046
:100F30008093D2010E94C5219093D1018093D0016A
:100F40008091D2018823A1F08091D0019091D101AC
:100F50000E94DD21069760F0EF2DF02FA12FBD2F0D
:100F600090E080E0D0E08C179D0744F01092D20111
:100F7000DF91CF911F910F91FF90089521913191B1
:100F80002D933D930196EFCF8091D90180FF12C040
:100F90006091090185E0689FB001112475956795FE
:100FA0007595679560387105A8F561157105A1F112
:100FB000862F089581FF09C06091090185E0689F2F
:100FC000B001112475956795EDCF6091090182FDFF
:100FD0000AC08091D8018823D1F0909108016091D6
:100FE0000901891728F085E0689FB0011124DACF44
:100FF000869FB001112485E0869F9001879F300D68
:101000001124692F70E0C9010E942529CBCF65E02A
:1010100070E0CECF8FE7089581E008958091D901E7
:1010200080FF0CC06091050170E07595679575951E
:1010300067956115710549F1862F089581FF06C0F6
:101040006091050170E075956795F3CF609105019A
:1010500082FD0BC09091D7019923A1F0609104010A
:1010600080910501961738F0682F70E0603871059F
:1010700000F38FE70895899FC001112470E00E945A
:101080002529F4CF61E070E0D7CF81E008958D3E4F
:1010900031F40E94C40781958093DD0108958E3E4E
:1010A00019F40E94C407F8CF8F3E31F40E94C407A0
:1010B00081958093DC010895803F19F40E94C40754
:1010C000F8CF893F29F40E940E088093DE0108952D
:1010D0008A3F21F40E940E088195F7CF8B3F31F4AF
:1010E0000E940E0881958093DF0108958C3F19F4CA
:1010F0000E940E08F8CF9FE0980F983070F4815F3F
:10110000990B21E030E001C0220F8A95EAF7809127
:10111000DB01822B8093DB0108958D3F31F48091B8
:10112000D90181608093D90108958E3F21F4809187
:10113000D9018260F7CF8F3FB9F78091D9018460E0
:10114000F1CF4091DC018D3E59F48091DD0187FFA4
:101150000DC01092DD0141110BC01092D80108C0E2
:101160008E3E81F48091DD0118169CF3442381F0BA
:101170008091DE019091DF01892B09F05AC0109215
:10118000D70108958F3E49F447FFF0CF1092DC015C
:101190008091DD018111ECCFE0CF803F19F414166E
:1011A000ACF3E4CF9091DE01893F29F41916F4F6EF
:1011B0001092DE01DBCF8A3F19F497FFD7CFF8CF2B
:1011C0009091DF018B3F29F497FFD0CF1092DF0180
:1011D000CDCF8C3F19F41916CCF3C8CF9FE0980FF0
:1011E000983090F4815F990B21E030E0B90102C0A2
:1011F000660F771F8A95E2F7CB0180959091DB010E
:1012000089238093DB01B2CF8D3F31F48091D901E6
:101210008E7F8093D901AACF8E3F21F48091D9018E
:101220008D7FF7CF8F3F09F0A1CF8091D9018B7FC0
:10123000F0CF08950E94C5219C019091DC0180911E
:10124000DD01982B21F03093D6012093D5019091A8
:10125000DE018091DF01982B21F03093D40120939F
:10126000D3018AED91E00C949514EF92FF920F93C5
:101270001F93CF93DF9300D000D000D0CDB7DEB75F
:1012800086E0EAEDF1E0DE01119601900D928A957B
:10129000E1F7E090DC01F090DD010091DE011091BA
:1012A000DF011092DC011092DD011092DE0110923C
:1012B000DF018E2D8F2991F08091D5019091D6017B
:1012C0000E94DD21AC019091D801992309F43FC01F
:1012D00080910A018417150608F447C0802F812BDE
:1012E00091F08091D3019091D4010E94DD21AC0155
:1012F0009091D701992309F477C080910601841752
:10130000150608F47FC08091DC019091DD01892BE6
:101310009091DE01892B9091DF01892B11F00E94C1
:101320001A0986E0FE013196AAEDB1E001900D9216
:101330008A95E1F726960FB6F894DEBF0FBECDBFB3
:10134000DF91CF911F910F91FF90EF900895209121
:101350000B018AE0289F900111242417350708F01B
:10136000BDCF9F5F9093D80102C09F3FD1F7EE2081
:1013700059F00E94C4079FEF1E140CF491E0899F5E
:10138000802D11248093DC01FF2059F00E94C407B6
:101390009FEF1F140CF491E0899F802D11248093FE
:1013A000DD013091DC01332309F498CF2091DD0178
:1013B000222309F493CF45EB3403C0011124992370
:1013C00059F09093DC0145EB240390011124332361
:1013D00039F03093DD0182CF81E08093DC01F3CFDF
:1013E00081E08093DD017ACF209107018AE0289F78
:1013F000900111242417350708F085CF9F5F909343
:10140000D70102C09F3FD1F7002359F00E940E0878
:101410009FEF10160CF491E0899F802D112480938A
:10142000DE01112359F00E940E089FEF11160CF4F3
:1014300091E0899F802D11248093DF013091DE019E
:10144000332309F460CF2091DF01222309F45BCF1D
:1014500045EB3403C0011124992359F09093DE0128
:1014600045EB240390011124332339F03093DF013D
:101470004ACF81E08093DE01F3CF81E08093DF01EA
:1014800042CF86E0EAEDF1E0DF011D928A95E9F7AF
:101490001092D8011092D7011092D9010895EF92BD
:1014A000FF920F931F93CF93DF93EB01E82FD1119E
:1014B00010C0442321F0F0E0EE50FD4FE4916E2F78
:1014C0007E2F8E2FDF91CF911F910F91FF90EF9084
:1014D00008950D2F10E0282F30E0442329F02E50DE
:1014E0003D4FF901249130E0F6E0CF9FC001112477
:1014F000EFEFF0E0BF010E941129AB018C2F90E0CB
:10150000880F991FA5E5A49FB001A59F700D112418
:10151000861B970B982F990F980FBF01601B710BBB
:10152000629FD001639FB00D729FB00D11248B2F6D
:101530009D9FB0011124672F7727EF01C61BD70BA2
:10154000BE01629FE001639FD00D729FD00D1124F8
:101550007F01E91AF108E09EB001E19E700DF09E56
:10156000700D1124672F7727E61BF70BE29F800190
:10157000E39F100DF29F100D1124E12F722F4230C6
:10158000510599F048F44115510569F04130510574
:1015900081F0EB2F8D2F07C04430510569F080F0AA
:1015A00046305105B1F76E2F8DCFE22F7B2F812F63
:1015B000FACFE22F7D2FF7CFEB2F822F712FF3CFB2
:1015C0007B2F822FED2FEFCF41E00C944F0A08952F
:1015D0000C94E40ACF93DF93762FE901682F842FD0
:1015E0000E94E80A798368838A83DF91CF91089506
:1015F00080914403982F9E7F29F4817082608093AC
:10160000440308958635E8F381708465F8CF88E057
:1016100090E00C94032ACF92DF92EF92FF926B013D
:101620007C010E94F80AB701A60188E090E0FF90D3
:10163000EF90DF90CF900C94212AE4E4F3E083E074
:10164000808311828FEF8283838314826081718112
:10165000828193810C940B0B8091440380FF02C024
:101660008695089580E0089590914803933018F48A
:101670009F5F90934803882351F0609144037091D9
:10168000450380914603909147030C940B0B0895FA
:1016900081E00C94340B90914803992319F09150F8
:1016A00090934803882351F060914403709145035F
:1016B00080914603909147030C940B0B089581E0B1
:1016C0000C944B0B70E00C943312609110018091DC
:1016D000440380FF0AC080910F0123E0829FC00174
:1016E0001124875B9C4F0C94620B809111019091A7
:1016F000120123E0829FF0011124E75BFC4F891760
:1017000050F71182108212828F5F3396F8CF90913A
:10171000440390FF14C0909111012091120133E015
:10172000939FF0011124E75BFC4F921710F00C948B
:10173000650B8183608342839F5F3396F6CF089564
:10174000CF93DF9300D00F92CDB7DEB790914403D3
:1017500090FF0AC09E012F5F3F4F0E94EA0A4B8113
:1017600069818A810E94870B0F900F900F90DF9103
:10177000CF910895CF93DF93EC01EC81F0E0E3513A
:10178000FE4F4491E4E4F3E0628181810E94A00B6A
:101790008C818F5F8C83DF91CF910895CF93DF93FE
:1017A000EC01E4E4F3E0438162818C810E94A00BB0
:1017B0008C818F5F8C83DF91CF9108950F931F935E
:1017C000CF93DF9300D00F92CDB7DEB78C0180911D
:1017D000E00181110AC09E012F5F3F4F4FEF6FEF75
:1017E0000E94EA0A8A818093E001F80164816130F5
:1017F00069F08091E00140E0662361F040E06230F2
:1018000011F44091E00180E060E004C06091E001EB
:1018100040E080E00E94870BF801848190E001960F
:1018200063E070E00E94252984830F900F900F9051
:10183000DF91CF911F910F910895AF92BF92CF92F8
:10184000DF92EF92FF920F931F93CF93DF9300D01D
:101850000F92CDB7DEB7182FF62E042FE22E9091FF
:10186000440390FF29C0E92FE695AE2FB0E0AF58B2
:10187000BE4F8C91809353029E7F923059F59E010A
:101880002F5F3F4F812F0E94EA0A4B8169818A8135
:101890000E94870B10934503F09246030093470381
:1018A000EE2051F06091440370914503809146030E
:1018B000909147030E940B0B0F900F900F90DF91B8
:1018C000CF911F910F91FF90EF90DF90CF90BF903D
:1018D000AF900895823019F400914703DBCF863032
:1018E00019F410914503D6CF8930D9F3893191F697
:1018F000E9518E2F8170D82EE695F0E0E351FD4F2F
:10190000A590B490C12CBB2460911301C61618F0A9
:101910000E94650BBFCF2C2D30E0A29EC001A39E7C
:10192000900DB29E900D112470E00E941129812F1C
:10193000D11013C0860F40911101420F532F511D3A
:101940009A01220F331F240F351F275B3C4F402F76
:101950006F2D0E94EA0AC394D7CF861BECCFE4E434
:10196000F3E09181282F4381628188E0890F0C94F4
:101970001D0C81E00C94AF0CE4E4F3E09181282F7E
:101980004381628188EF890F0C941D0C81E00C94D7
:10199000BC0CE4E4F3E0628121E1620F08F46FEF34
:1019A000282F438181810C941D0C81E00C94C90C7B
:1019B000E4E4F3E0628121E1621B08F460E0282F97
:1019C000438181810C941D0C81E00C94D80CE4E4DB
:1019D000F3E0438121E1420F08F44FEF282F6281A9
:1019E00081810C941D0C81E00C94E70CE4E4F3E09D
:1019F000438121E1421B08F440E0282F628181816C
:101A00000C941D0C81E00C94F60C20E00C941D0C41
:101A1000EF92FF921F93CF93DF93EC0110E0EE243F
:101A2000EA94F12C60911301161770F00E94650B77
:101A30009A818C8190FF27C08F5F8C83DF91CF913B
:101A40001F91FF90EF90089520911101422F410FB7
:101A50005527551FCA019A01220F331F280F391F1E
:101A6000275B3C4F70E0C7010E942529962F8C818F
:101A70004091470360914603199F800D11240E94F5
:101A8000EA0A1F5FCFCF8150D8CFAF92BF92CF92DB
:101A9000DF92EF92FF920F931F93CF93DF93FC019E
:101AA00082810FEF80FF01E010E045E1A42E8091DC
:101AB00013011817C8F00E94650B8091E2010130F4
:101AC00009F055C0811102C08091130181508093AB
:101AD000E201DF91CF911F910F91FF90EF90DF9086
:101AE000CF90BF90AF900895C0911101C12ED12C1D
:101AF000CC0DDD2DD11DCE01880F991FC80FD91F28
:101B0000C75BDC4F198218821A8234E0E32EF12C75
:101B1000B12C8091E2018B0D86311CF16A2D0E945F
:101B20000329892F082E000C990BC816D90691F4A9
:101B3000809147038E9DA0018F9D500D11245595D6
:101B40004795559547959E016091460380914503C1
:101B50000E94EA0AB00EF1E0EF1AF108D1F61F5F19
:101B6000A6CF87FFDFCF90911301890FDBCF90E0E5
:101B700001966091130170E00E942529A8CF0F9370
:101B80001F93CF93DF93809111019091120123E075
:101B9000829FF0011124E75BFC4F891740F1C0E000
:101BA000D3E060911301C61740F10E94650B2091AC
:101BB0000D018091E101820F8093E10190910E016E
:101BC000920F90930E01191654F4082E000C990BE5
:101BD000409113014150550B841795071CF0219536
:101BE00020930D01DF91CF911F910F9108951182E4
:101BF000108212828F5F3396D0CF0C2F10E070E0EE
:101C0000C8010E94252920911101820F482F50E020
:101C10002091E101022E000C330B02171307BCF0D8
:101C200020910E01022E000C330B201731077CF09F
:101C30008D9F90011124275B3C4F40914703609199
:101C40004603809145030E94EA0ACF5FAACFFA01BA
:101C5000EE0FFF1FE40FF51FE75BFC4F11821082B0
:101C60001282F3CF8F929F92AF92BF92CF92DF9268
:101C7000EF92FF920F931F93CF93DF93EC014C8170
:101C8000042F10E09801D8010E9469299B01AC0142
:101C90000E947F294B015C01E0E2F0E0E01BF10BC8
:101CA000A5E5B0E0AC019B010E947F296B017C019E
:101CB0009F01DF010E9461299B01AC010E948A29DA
:101CC0009B01AC01280D391D4A1D5B1DC701B601E2
:101CD0000E943929F22E822F90E039E23F1560F1FF
:101CE00043E0249F9001112435952795122F1095DC
:101CF00000E085E5E82EEF1880911301081758F1F0
:101D00000E94650B9C8181E0992319F0903219F4AF
:101D10008FEF80930C0180910C01890F8C83DF91F0
:101D2000CF911F910F91FF90EF90DF90CF90BF90D8
:101D3000AF909F908F90089525E530E0B901681B22
:101D4000790B9B01220F331F260F371F37FFCCCF94
:101D50002F5F3F4FC9CF8E2D01FD8F2D2091110197
:101D6000622F600F7727771F9B01220F331F260FEB
:101D7000371F275B3C4F412F609146030E94EA0AC0
:101D80000F5FBACF0F931F93CF93DF93EC0110E057
:101D900000E0909113019017110609F06CF40E9475
:101DA000650B8C8190E00196817099278C83DF917F
:101DB000CF911F910F91089520911101A801420F19
:101DC000511D9A01220F331F240F351F275B3C4FF3
:101DD0004C816091460380914503969590171106BA
:101DE00051F04CF0442349F0409147030E94EA0A25
:101DF0000F5F1F4FCECF4423B9F340E0F7CF4F9290
:101E00005F926F927F928F929F92AF92BF92CF928A
:101E1000DF92EF92FF920F931F93CF93DF93FC011A
:101E20006280448081E08483EDEEF1E07490ECE622
:101E3000F2E0E491812C75E0972EF2E0CF2EDD24C4
:101E4000D394AA24AA94B12C55245A94E7190E2F9E
:101E500010E080911301881690F0DF91CF911F91CF
:101E60000F91FF90EF90DF90CF90BF90AF909F9039
:101E70008F907F906F905F904F900C94650BE82C43
:101E8000F12C82E0861568F09E9CF0019F9CF00D7D
:101E90001124ED51FE4F80914503808380914603CC
:101EA0008183411023C09E9CF0019F9CF00D112462
:101EB000ED51FE4F1382128220911101C701820F52
:101EC000911D9C01220F331F280F391F275B3C4FA8
:101ED0009E9CF0019F9CF00D1124ED51FE4F42811C
:101EE000618180810E94EA0A8394B3CF9E9CE001C5
:101EF0009F9CD00D1124CD51DE4F8B818823E9F0BA
:101F000081508B83859DC00111246C8170E00E94FB
:101F10001129FB01FF27E351FE4F8491E82FE719B8
:101F2000E59DC0011124B8010E9411298091470349
:101F3000689FB00111247A83BFCF0E94DE292091CF
:101F40004703269521582C9DA0012D9D500D11244D
:101F5000452F5527841795070CF0AECF82E08615E4
:101F600088F40E94DE29B5010E94252988830E94F9
:101F7000DE29209146032695622F70E00E942529D4
:101F8000280F29839E9CF0019F9CF00D1124ED5198
:101F9000FE4F128280914703893C58F088EC9E9C4A
:101FA000F0019F9CF00D1124ED51FE4F848383833B
:101FB00083CF8431A0F784E1F2CFE4E4F3E08081C1
:101FC0008E7F808360817181828193810E940B0B5F
:101FD000109254022FEF80E792E021508040904011
:101FE000E1F700C000000C94650B60914403669516
:101FF00070E04BE050E084E191E00E94EE29892BF3
:1020000019F481E0809354020E94C52190934D02FF
:1020100080934C0208959091440390FF35C09170D5
:10202000811128C0926090934403662351F060911F
:1020300044037091450380914603909147030E94A9
:102040000B0B60914403669570E04BE050E084E137
:1020500091E00E94EE29892BA1F01092540281E0B8
:1020600080934F024091470360914603809145035E
:102070000C94050D8B3210F09465D5CF880F982BFA
:10208000D2CF0E94F50FEBCF0895682F90914403B3
:10209000969581E0890F8B3208F081E00C940B104B
:1020A00081E00C944510682F9091440396958FEF32
:1020B000890F09F48AE20C940B1081E00C94531000
:1020C00061E00C940B10E4E4F3E080818160808394
:1020D00086950C9460108091440380FD0C94DD0F74
:1020E0000C94631060E00C940B10809152028111EB
:1020F0002EC00E94DA1F811104C00E947F200E941E
:102100001D0B0E94070B609344037093450380935B
:102110004603909347036E7F61F40E941D0B0E945B
:10212000070B609344037093450380934603909399
:1021300047030E94F80A109254028091440380FFE2
:1021400003C086950E94721081E080935202089528
:102150000F931F93CF93DF9380915402882309F448
:1021600096C080915302E0914403E695E81BE0930A
:102170004E02823091F5F0E0E751FE4FE491CE2F10
:10218000D0E00AEB1BE080914F02882361F01092AF
:102190004F020E94C52190934D0280934C021092F1
:1021A0005102109250020E94C521E0914C02F09120
:1021B0004D028E1B9F0B8F3F9F4708F068C0EC0FAE
:1021C000FD1FF0934D02E0934C028CE492E0F80185
:1021D000DF91CF911F910F910994863049F4F0E07F
:1021E000EA51FE4FE491CE2FD0E00EEC1BE0CBCFB6
:1021F000893051F4E695F0E0ED51FE4FE491CE2F99
:10220000D0E008E01DE0BFCF8F3051F4E695F0E05C
:10221000E052FE4FE491CE2FD0E005E41DE0B3CFB5
:10222000853149F4F0E0E352FE4FE491CE2FD0E047
:102230000FEB1DE0A8CFC8E2D0E002E31EE088313A
:1022400009F4A1CF833239F4EBEDF1E0C591D491DB
:102250000EED1BE098CFC4EFD1E002EC1EE084321B
:1022600009F491CFC0EDD7E007EE1AE0853209F00E
:102270008ACF8E2F63E00E94F728E92FF0E0E85222
:10228000FE4FE491CE2FD0E00FEF1EE07CCFDF9128
:10229000CF911F910F910895FA01811101C0FB01A7
:1022A0000994CF93DF93C82FD62F0E942C0B8C1745
:1022B00040F00E942C0B8D1720F4DF91CF910C94ED
:1022C00050108C2FDF91CF910C9460101F93CF93FF
:1022D000DF93EC01FB011281112309F4C2C00E94BB
:1022E000151F8272CD3CFCE5DF0709F4A0C008F0A1
:1022F00044C0C73CECE5DE0709F485C0F0F4C43CFB
:102300009CE5D90709F475C048F4C33CDC4509F4E1
:102310006CC0812FDF91CF911F910895C53C9CE542
:10232000D90709F46BC046EC5CE069EB7CE0C63C85
:10233000DC4579F70E944C115AC0CA3CFCE5DF0726
:1023400009F46BC068F4C83CECE5DE0709F460C032
:1023500045ED5CE064EE7CE0C93CDC4559F3D9CF47
:10236000CB3C9CE5D90709F45DC04FE55BE068E430
:102370007BE0CC3CDC45F1F2CCCFC23DFCE5DF0795
:1023800009F464C098F4CF3C9CE5D90709F458C01F
:1023900008F452C0C03DFCE5DF0709F454C0C13D5C
:1023A000DC4509F0B6CF6EE089E01CC0C53D9CE578
:1023B000D90709F451C058F4C33DFCE5DF0709F41F
:1023C00048C0C43DDC4509F0A4CF88E136C0C63D15
:1023D0009CE5D90709F443C06AE285E2CE35DD45C4
:1023E00009F097CF0E94511102C00E946B1010E0BB
:1023F00090CF4DE550E160E570E19CCF40E550E1C4
:102400006DE570E197CF49EB5CE066EC7CE092CF44
:1024100044EE5CE065ED7CE08DCF42E05DE063EF93
:102420007CE088CF43EF5CE062E07DE083CF48E46E
:102430005BE06FE57BE07ECF81E00E946010D7CF4C
:1024400065E082E0CFCF68E086E0CCCF64E18FE04A
:10245000C9CF67E185E1C6CF62E289E1C3CF83E2FC
:10246000ECCF11E056CF879A41B34F7751B3506804
:10247000EFB7F8949B01220F331F260F371F280F49
:10248000391F2817390741F4EFBF8FE594E0019712
:10249000F1F700C000000895DC016D91CD0178E0F6
:1024A00051BB000000C067FF41BB660F000000C0C9
:1024B00000C000C041BB00C07A9591F7E2CF0F93F6
:1024C0001F93CF93DF93C42FD22FFC0182818823E7
:1024D000C9F0409357020E94C52190935602809301
:1024E000550280E28C0F883008F050C0C77081E040
:1024F00001C0880FCA95EAF7DF91CF911F910F9124
:102500000C94FE1610915702141335C08091550299
:10251000909156020E94DD21883C910560F5C0E251
:10252000CD0F1D17B9F080E2810F883040F417708D
:1025300081E001C0880F1A95EAF70E940517C8309C
:1025400048F481E09D2F977001C0880F9A95EAF7B3
:102550000E94FE16802F0E94F616C830B8F4D7707D
:1025600081E001C0880FDA95EAF7DF91CF911F91E2
:102570000F910C94051780E28C0F883038F4C770E7
:1025800081E001C0880FCA95EAF7EFCFDF91CF91C4
:102590001F910F9108950F939C01CB01243F4CE5AF
:1025A000340759F1A8F4293DFCE53F0701F12A3D24
:1025B0004CE53407D1F1283D3C4591F406E221EE8B
:1025C00041EE68ED7CE50E945F1280E00F91089576
:1025D000263FFCE53F07E9F0B0F0273F3C45F9F026
:1025E000FC018281882339F110925702EFCF07E274
:1025F00025EE45EE69ED7CE5E6CF06E221EE40EE04
:1026000064EF7CE5E0CF07E225EE44EE65EF7CE584
:10261000DACF06E221EE42EE66EF7CE5D4CF07E2A8
:1026200025EE46EE67EF7CE5CECF08E221E045EEF1
:102630006AED7CE5C8CF81E0C9CFCF93DF93EC0191
:10264000FB018281882309F419C1C230FCE5DF0750
:10265000C0F1C6319CE5D90730F09E012B5F3C45A7
:102660002930310570F50E94ED1F90932F03809360
:102670002E03C031ECE5DE0709F4CFC008F05BC0E3
:10268000C8308CE5D80709F4B6C088F5C430ECE54D
:10269000DE0709F4A8C0C0F4C2308CE5D80709F4FD
:1026A0009CC080912E038260C330DC4509F498C041
:1026B00080912E0390912F030E94FB1F0E94771997
:1026C00080E0DF91CF91089580912E038061C63024
:1026D000ECE5DE0709F484C080912E038860C730E2
:1026E000DC4508F47DC080912E03806279C0CC3037
:1026F0008CE5D80709F489C070F480912E038C60B2
:10270000CA30ECE5DE0709F46BC008F478C08091AC
:102710002E038E7F65C0CE308CE5D80709F479C0D2
:1027200080912E038B7FCF30DC4508F459C0809117
:102730002E038F7E55C0CC3FECE5DE0709F457C071
:1027400030F5C3318CE5D80709F46FC078F4C13196
:10275000ECE5DE0709F465C0C231DC4509F0A8CF1D
:102760000E94771980912E038F773AC0C5318CE58E
:10277000D80709F462C008F476C080912F03816005
:10278000CB3FDC4509F094CF80932F0391CFC11547
:10279000FDE5DF0709F44DC088F480912F038D7F9C
:1027A000CE3F9CE5D90781F380912F038E7FCF3FE9
:1027B000DC4550F380912F038360E6CFC230FDE506
:1027C000DF0709F459C008F444C080E0C330DD4598
:1027D00009F06ECF0E9481206BCF80912E03816023
:1027E00080932E0365CF80912E038460F9CF809172
:1027F0002F038260C9CF80912E038064F1CF0E94A5
:10280000771980912E038068EBCF80912E038D7F06
:10281000E7CF80912E03877FE3CF80912E038F7DBA
:10282000DFCF80912E038F7BDBCF80912E03837FC0
:10283000D7CF80912F038C7FA7CF80912E0382FB6F
:10284000992790F921E0922790FB82F990FB83F978
:10285000C7CF80912F03982F909591708E7F892BF1
:1028600090FB81F991CF0E94771990912E03892FC7
:1028700097FB87F98058B4CF81E0ACCF81E021CFBE
:10288000CF93DF93EB0186319C4511F50E94151F14
:102890009A81992399F08A7A91E009F490E09093D3
:1028A0005802811109C089E20E94CF1E0E94651F53
:1028B00080E0DF91CF91089585E3F6CF80915802B3
:1028C000811104C089E20E94D61EF0CF85E3FBCFC0
:1028D00081E0EFCF90935E0280935D020895E091D6
:1028E0005D02F0915E02309721F00190F081E02DC1
:1028F000099480E00895E0915D02F0915E023097C6
:1029000099F020912B01222359F020912E0327FFCB
:1029100007C0DC012C9111962C93119725E02C9384
:102920000280F381E02D09940895E0915D02F09119
:102930005E02309739F022E0DC012C930480F581AF
:10294000E02D0994089520915B0230915C022817D4
:10295000390771F090935C0280935B02E0915D0215
:10296000F0915E02309721F00680F781E02D099406
:1029700008952091590230915A022817390771F0B1
:1029800090935A0280935902E0915D02F0915E02A9
:10299000309721F00084F185E02D099408950E947C
:1029A000D12160936E0270936F02809370029093B6
:1029B000710260936A0270936B0280936C02909331
:1029C0006D02089585B7806885BF85B7806885BF2B
:1029D0000895089508950C94E91408950C94ED1445
:1029E0000E94E21482ED9FE10E9434220E94EA14C8
:1029F0000C94EB1481E008950C94FA140895089552
:102A00000E94FE140C94FF140E94BC210E94BC067C
:102A10000E9475100C94EE148F929F92AF92BF9209
:102A2000CF92DF92EF92FF920F931F93CF93DF939A
:102A3000CDB7DEB72A970FB6F894DEBF0FBECDBF75
:102A40000E940A0781110E94CF1450E6852E52E0A1
:102A5000952E10E000E0A02E802F0E9493066C01BE
:102A6000F401E190F1904F01E816F90609F45EC017
:102A700080910A0381FD0E949C06C7018C259D253B
:102A8000B12CEE24E394F12C9C012E213F21232B29
:102A900009F446C00E94FC148823A9F0BE82AF82CC
:102AA000CE20DF2081E0CD2809F480E088870E94D5
:102AB000C5218160782F9A8789874E815F816885DB
:102AC0008A850E94C015000F111FF801E05AFD4FC2
:102AD00080819181E826F926F182E0820E94A81087
:102AE0000E9435090E946F1490915F028917A9F125
:102AF0000E946F1480935F022A960FB6F894DEBF8F
:102B00000FBECDBFDF91CF911F910F91FF90EF903E
:102B1000DF90CF90BF90AF909F908F900C943B042C
:102B2000B394EE0CFF1CFFE0BF12AECF0F5F1F4F40
:102B30000530110509F08FCF8FEF89838A831B82BF
:102B40000E94C5218160782F9D838C8349815A81A1
:102B50006B818D810E94C015C1CF2A960FB6F89463
:102B6000DEBF0FBECDBFDF91CF911F910F91FF90C0
:102B7000EF90DF90CF90BF90AF909F908F9008958F
:102B8000DF92EF92FF920F931F93CF93DF93CDB716
:102B9000DEB72B970FB6F894DEBF0FBECDBF7A8796
:102BA0008B87F42E052F162FE72ED82E61110E9449
:102BB000351F1E821D827E2DEC82DD824F2D502F0F
:102BC000612F8D2D9E812B960FB6F894DEBF0FBE20
:102BD000CDBFDF91CF911F910F91FF90EF90DF90CC
:102BE0000C94ED1BFC01808191810C94A11ECF936C
:102BF000C82F882309F48BC08238C1F40E946F1457
:102C000081FD85C089E30E94CF1E0E94651F2FEFC2
:102C100081EE94E0215080409040E1F700C0000038
:102C200089E30E94D61ECF910C94651F8338A1F4CE
:102C30000E946F1480FD6BC083E50E94CF1E0E942E
:102C4000651F2FEF81EE94E0215080409040E1F726
:102C500000C0000083E5E5CF8438A1F40E946F1422
:102C600082FD55C087E40E94CF1E0E94651F2FEF92
:102C700081EE94E0215080409040E1F700C00000D8
:102C800087E4CFCF8CEF8C0F813A90F46C2F80913A
:102C90001F01909120010E949A20882329F08C2FF7
:102CA0000E94D61E0E94651F8C2F0E94CF1EBBCF94
:102CB00080E28C0F883048F4C77081E001C0880F33
:102CC000CA95EAF70E94181FAECFEBE5EC0FE33090
:102CD00040F4F0E0E653FE4F808190E0CF910C94F9
:102CE000A314E8E5EC0FE73150F4F0E0EE0FFF1F1E
:102CF000E456FE4F80819181CF910C94B914CD3E62
:102D000030F08C2F0E944708CF910C941A09CF9174
:102D10000895882309F452C0823871F40E946F1418
:102D200081FF4CC089E30E94CF1E0E94651F89E38A
:102D30000E94D61E0C94651F833859F40E946F14AC
:102D400080FF3CC083E50E94CF1E0E94651F83E583
:102D5000EFCF843859F40E946F1482FF2FC087E4AC
:102D60000E94CF1E0E94651F87E4E2CF9CEF980F60
:102D7000913AF0F290E2980F983050F4877091E019
:102D800001C0990F8A95EAF7892F0E941E1FD2CFA2
:102D90009BE5980F933020F490E080E00C94A3140E
:102DA00098E5980F973120F490E080E00C94B914E6
:102DB0008D3E20F00E94A1080C941A0908951F93DB
:102DC000CF93DF93182FEB010E94F715209731F472
:102DD000812FDF91CF911F910C9489168FE99FE08D
:102DE0000197F1F700C000002197F0CF70E060E09C
:102DF000893311F460E570E00C94DF16882321F02C
:102E00000E94181F0C94651F0895882321F00E94CA
:102E10001E1F0C94651F0895BF92CF92DF92EF9210
:102E2000FF920F931F93CF93DF936C01D62FC72F81
:102E3000FC011281058102950F700E94ED1EE82EA3
:102E40008823A1F0E12E112389F08C2F807F80341C
:102E500029F080E28D0FE12C883040F082E00E9462
:102E6000B61F0E94ED1E91E0E82EE926BC2EB2941A
:102E70009FE0B922EB2DF0E0EC59F54D0C945B2965
:102E80000C2F0F70C07F11F00295007F1123A9F065
:102E9000002359F080E28D0F883010F0D11109C065
:102EA000802F0E94181F0E94651F8D2F0E94F7150A
:102EB00014C0802F0E94281FF6CF8D2F0E948916E4
:102EC000002359F080E28D0F883010F0D1112CC012
:102ED000802F0E941E1F0E94651F2B2D2850330B30
:102EE0002430310520F40E946F140E943B04EE2030
:102EF00009F49EC10E94E91E80FD9AC1F60112826A
:102F00000E94E31E0E946F1DC6010E9439190E9493
:102F1000E31EDF91CF911F910F91FF90EF90DF9013
:102F2000CF90BF900C94901D802F0E942E1FD3CF66
:102F3000FC2FFF70FF2EC07FC03219F0F29480EF9B
:102F4000F822DD2369F0D13049F1112391F10023FA
:102F500051F1F601858180FFA8CF8F70858323C052
:102F6000112381F0011106C00E94481F8F290E9481
:102F7000FE16B3CF0130C1F70E94481F8F290E946F
:102F80004E1FABCF011106C00E945B1F8F2D0E9408
:102F90000517A3CF013009F4A0CFF6CF112329F0F4
:102FA000063008F09ACF8F2DE2CF053008F095CF8C
:102FB000EDCF002359F3D93349F4FFEF27EE33E087
:102FC000F15020403040E1F700C000008D2F0E94FA
:102FD000891683CF8C2F86958695837069F0813012
:102FE00009F07BCF8D2F9C2F9370111102C090E0C0
:102FF00080E00E94B91471CF8D2F9C2F9370111116
:1030000002C090E080E00E94A31467CF8D2F1123AF
:1030100029F00E9447080E941A095FCF0E94A10868
:10302000FACF8C2F837009F041C0111156CF4D2F6C
:10303000429546954770440F440F0D2F0F7010E0D6
:1030400030E020E0042E04C0000F111F221F331FA8
:103050000A94D2F760E070E0CB01D4FF0FC06FE0BC
:1030600070E080E090E004C0660F771F881F991F12
:103070004A95D2F76095709580959095C695C695BE
:10308000C370602B712B822B932BC23049F058F404
:10309000C13019F00E94231D20CF0E94111D1DCFA9
:1030A0000E94351D1ACF0E940F1D17CF8695112340
:1030B00011F08C2F8170882309F40FCF4D2F42958A
:1030C00046954770440F440F0D2F0F7010E030E00D
:1030D00020E0042E04C0000F111F221F331F0A948A
:1030E000D2F760E070E0CB01D4FF0FC06FE070E07A
:1030F00080E090E004C0660F771F881F991F4A95F3
:10310000D2F76095709580959095C695C695C370D9
:10311000602B712B822B932BC23049F058F4C130B5
:1031200019F00E94E61DD9CE0E94D41DD6CE0E9471
:10313000F81DD3CE0E94491DD0CECF70112329F0A7
:103140008C2F0E946F1D8D2F12CF8D2F0E9405177F
:103150008C2F0E94901DC1CED23F89F160F4D03FE8
:10316000C9F0D13F29F1112309F442C001119DCECC
:103170008C2F8F7121C0D33F39F1D43FA1F7112398
:1031800069F1CF718C2F0E946F1D63E08C2F0E941C
:103190009B1FA3CE112341F0053008F09ECE8C2F4B
:1031A0008F710E94B31D99CE063008F096CEF7CFEE
:1031B0008C2F8F71112369F20E946F1D8ECE8C2F80
:1031C0008F711123C9F3C5CF112329F08C2F8F7173
:1031D0000E945A1D82CE0E94551D7FCE81E00E9422
:1031E000B61F023008F479CE82E00E94B61F75CE79
:1031F000002359F0D93309F0E9CE8FEF97EEE3E0E1
:1032000081509040E040E1F7DFCE8C2F8F71A1CF4D
:103210004C2F4F706D2FC6010E9443040E94871CE3
:103220005CCE4C2F4F706D2FC6010E94460455CEC8
:10323000DF91CF911F910F91FF90EF90DF90CF9092
:10324000BF9008950F931F93CF93DF93EC01688194
:1032500079818A810E94AB1E8C010E940A1E0E9405
:103260000E1DB801CE01DF91CF911F910F910C94EB
:103270000C17CF93DF93EC018B819C81892B29F074
:103280008881998189238F3F59F4DF91CF910895E7
:10329000CE010E942219CE01DF91CF910C947103CF
:1032A000CE010E9492038111F3CF0E94ED1E88236C
:1032B00061F38A81882349F382E0DF91CF910C94F6
:1032C000B61F90E080E00E94A31490E080E00E948E
:1032D000B9140E94351F0E94451F0E94651F0E945D
:1032E000410A0C941A090E94DD1E0C9461190E9477
:1032F000251F0C947319E92FE295EF70E250EE3020
:1033000070F4F0E0EC58F54D0C945B29803F19F017
:1033100020F4883E20F481E00895843FE1F380E0CA
:103320000895883EC0F3813FD1F7F5CF93FB8827FE
:1033300080F908950E94A11E0C947B19CF93DF930E
:1033400000D000D00F92CDB7DEB70F900F900F9046
:103350000F900F90DF91CF910895CF93DF9300D01E
:1033600000D000D0CDB7DEB726960FB6F894DEBFFA
:103370000FBECDBFDF91CF9108951F93CF93DF9301
:10338000C091730216E0809174028C1304C0DF9127
:10339000CF911F910895D0E01C9FF0011D9FF00D6B
:1033A0001124EB58FD4F40815181628173818481EA
:1033B00095810E94AD192196C770E5CF4091A50275
:1033C0005091A6026091A7027091A8028091A90273
:1033D0009091AA020C94AD191F93CF93DF93809123
:1033E000AA02807FA9F48091A702882389F08091A6
:1033F0007302C09174026091A5027091A602A0911F
:10340000A802B091A902D62FD72316E0C81304C092
:10341000DF91CF911F91089590E0109711F0DF3F59
:1034200019F401968770F2CF189F9001199F300D03
:103430001124F901EB58FD4F41814713F2CF408130
:103440004613EFCF42814111ECCF438154814A1B97
:103450005B0B483C510528F78091AA028F70806170
:103460008093AA02F901E658FD4F80818F70806138
:10347000808385EA92E00E943919DF91CF911F91F4
:103480000C94BD19AF92BF92CF92DF92EF92FF9250
:103490000F931F93CF93DF93CDB7DEB761970FB62E
:1034A000F894DEBF0FBECDBF8C0185E0F801DE01D0
:1034B0001D9601900D928A95E1F7F80140815181A6
:1034C000E28085EAC82E82E0D82E6091A802709131
:1034D000A9026115710509F461C19091A5022091BD
:1034E000A602892F82238F3F09F458C1A380B4809C
:1034F000F090A702F501E61BF70BFF2009F4FCC0D2
:103500008091AA02382F307FE83CF10508F0B2C064
:10351000311179C0FE2C251323C0941321C0E11072
:103520001FC08F7080618093AA020E94DE19C601BD
:103530000E9439198091AA02F80185838F2D619626
:103540000FB6F894DEBF0FBECDBFDF91CF911F91B4
:103550000F91FF90EF90DF90CF90BF90AF900895C4
:10356000AB2829F0842F85238F3F09F033C180E0F9
:10357000F82FF170DF2E80FF3CC080917302209104
:10358000740236E0821315C04D875E878D859E8557
:103590000E94A11E292F22952F702230F0F0243096
:1035A00018F59F70F1F0F8019581907FD1F4D12C3E
:1035B0001EC090E0389FF001399FF00D1124EB58A8
:1035C000FD4F6181651306C06081641303C0628191
:1035D0006E110FC001968770D5CF9F7011F08823B0
:1035E00031F3805E883018F3C8010E943919FD2C30
:1035F000A5CFEE2009F4A2CF8091AA02816080932A
:10360000AA02F12C9BCF251306C0941304C0F80125
:10361000EE2009F48DC04D875E878D859E850E94C2
:103620009A19882319F1EE2009F18091AA028032BB
:1036300070F02091A5023091A60238872F83198659
:10364000BB86AA868C87CE0107960E94391986E030
:10365000F801A5EAB2E001900D928A95E1F70E9487
:10366000EC190E94DE19FF24F39468CFC8010E9470
:103670003919F9CF311113C07A2DB98AA88A6E2D64
:1036800089890E949E1985EA92E00E94391986E094
:10369000F60111928A95E9F70E94DE19B2CF25133F
:1036A0000FC094130DC0E1100BC0F8018583C80151
:1036B0000E94391986E0F60111928A95E9F73ECF0A
:1036C0004D875E878D859E850E949A19882371F2A9
:1036D000EE2061F28091AA02803208F4B8CF2091E6
:1036E000A5023091A6023A8329831B82BD82AC8257
:1036F0008E83CE010196A9CFE83CF10508F041C0C8
:10370000FE2CEE2009F4B2CF25132AC0941328C052
:103710008091AA0280FD1BC0982F907FC1F0F80114
:103720008583903F31F0982F907F905F8F70892B29
:103730008583C8010E94391986E0F801A5EAB2E044
:1037400001900D928A95E1F70E94DE19F7CE86E08E
:10375000F801A5EAB2E001900D928A95E1F7EECE6C
:103760004D875E878D859E850E949A1981116FCF46
:103770008091AA0281608093AA02C8010E9439192F
:10378000DDCE7A2DB98AA88A6E2D89890E949E196C
:1037900086E0F60111928A95E9F7D6CFEE2009F47A
:1037A00065CF4D875E878D859E850E949A19F82E7C
:1037B000882309F45BCF86E0F801A5EAB2E0019026
:1037C0000D928A95E1F785EA92E00E94F2150E9437
:1037D000EC19BACF81E08E25CBCE1F93CF93DF9328
:1037E000CDB7DEB72C970FB6F894DEBF0FBECDBFB6
:1037F0004F83588769877A878B879C87CE01079686
:103800000E94421A882369F08A859B85892B39F0AA
:103810004F815885842F85238F3F09F071C016E0B2
:103820005FC086E0FE013796DE01119601900D9291
:103830008A95E1F78A859B85892B89F38F81988505
:1038400089238F3F61F32091740230E0C901019612
:1038500087709927409173024817190671F40E94E6
:103860007719109274021092730286E0E5EAF2E092
:10387000DF011D928A95E9F7D2CF96E0929FD001A1
:10388000939FB00D1124AB58BD4FFE0131960190AE
:103890000D929A95E1F7809374020E94BD19BFCFF3
:1038A000819FC00111248B589D4F0E94421A88238A
:1038B000E9F0E09173021E9FF0011124EB58FD4FD7
:1038C0004081518162817381848195810E94AD190B
:1038D0008091730290E0019687709927809373021C
:1038E00080917302909174028913DACF2C960FB6EF
:1038F000F894DEBF0FBECDBFDF91CF911F91089529
:1039000069857A858B859C850E94AD1988CFEF9259
:10391000FF920F931F93CF93DF938C01892B81F03C
:10392000F12CEE24E394E8012196F8018491843788
:1039300070F4843008F05FC08130B1F08230A1F1C2
:10394000DF91CF911F910F91FF90EF9008958537F0
:1039500009F44CC008F43DC09CE7980F903780F7FD
:103960008F770E94891649C00E5F1F4FFE01849118
:1039700090E2980F983060F48770FE2D01C0FF0F21
:103980008A95EAF78F2F0E94381F0E94651F02C098
:103990000E94F7158F2D815030F2EFE9FFE031974B
:1039A000F1F700C00000F7CF0E5F1F4FFE018491BA
:1039B00090E2980F983050F48770FE2D01C0FF0FF1
:1039C0008A95EAF78F2F0E943E1FDFCF0E9489164B
:1039D000E1CF0E5F1F4FFE01C491C150D8F28FE9B5
:1039E0009FE00197F1F700C00000F7CF0E5F1F4F77
:1039F000FE01F490CFCF0E94F7158E01CBCF089532
:103A00000C94FF1C0E94001D6093E1027093E2027F
:103A10008093E3029093E4020C94611908950C944E
:103A2000021D0F931F930091E1021091E202209179
:103A3000E3023091E402602B712B822B932B1F91B8
:103A40000F910C94021D0F931F930091E1021091AE
:103A5000E2022091E3023091E40260237123822389
:103A600093231F910F910C94021D0F931F930091AC
:103A7000E1021091E2022091E3023091E40260271A
:103A80007127822793271F910F910C94021D0C948C
:103A90000D030E94471D6093DD027093DE02809348
:103AA000DF029093E0020C94611960E070E0CB01BA
:103AB0000C94491D0F931F9341E050E060E070E0CB
:103AC0008A019B0104C0000F111F221F331F8A951A
:103AD000D2F7C901B8011F910F910C94491D0F93A2
:103AE0001F9341E050E060E070E004C0440F551FB8
:103AF000661F771F8A95D2F78091DD029091DE02D2
:103B0000A091DF02B091E0028A019B01082B192BE2
:103B10002A2B3B2BC901B8011F910F910C94491D11
:103B20000F931F9341E050E060E070E004C0440F49
:103B3000551F661F771F8A95D2F7CB01BA01609592
:103B40007095809590950091DD021091DE02209194
:103B5000DF023091E00260237123822393231F91BF
:103B60000F910C94491D0F931F9341E050E060E0CA
:103B700070E004C0440F551F661F771F8A95D2F767
:103B80008091DD029091DE02A091DF02B091E0020F
:103B90008A019B01082719272A273B27C901B80159
:103BA0001F910F910C94491D0F931F930091DD02FB
:103BB0001091DE022091DF023091E002602B712B28
:103BC000822B932B1F910F910C94491D0F931F93E0
:103BD0000091DD021091DE022091DF023091E002BF
:103BE00060237123822393231F910F910C94491D0D
:103BF0000F931F930091DD021091DE022091DF02EE
:103C00003091E00260277127822793271F910F913F
:103C10000C94491D08952FE0929F800D1124982F38
:103C2000977041E001C0440F9A95EAF78695869512
:103C3000869595E0899FF0011124E555FD4F90E0B0
:103C400080E070E05191DF0111979B01082E02C0C6
:103C5000369527950A94E2F721702195252724238C
:103C600025272C9301968530910561F708952FE063
:103C7000929F800D1124982F977086958695869532
:103C800025E0829FF0011124E555FD4F50E040E012
:103C900080E0219130E0092E02C0369527950A94E4
:103CA000E2F721703327042E01C0220F0A94EAF7AD
:103CB000822B4F5F5F4F4530510559F70895BF92F2
:103CC000CF92DF92EF92FF920F931F93CF93DF93E8
:103CD0008C01C090DD02D090DE02E090DF02F09017
:103CE000E0028091E1029091E202A091E302B091A2
:103CF000E402C82AD92AEA2AFB2ACFE1D0E0BC2E66
:103D0000D701C6010C2E04C0B695A7959795879547
:103D10000A94D2F780FD0EC0219788F7B12C8B2D25
:103D2000DF91CF911F910F91FF90EF90DF90CF9097
:103D3000BF900895B8018C2F0E946304019761F32E
:103D4000EECFCF93DF93EC010E945F1EBE01DF91A7
:103D5000CF910C9463041F93CF93DF93EB01909169
:103D60007202992331F0CB01DF91CF911F910C9416
:103D7000A11E882379F0CB010E945F1E182F682FA7
:103D8000CE010E940B1EBE01812FDF91CF911F91AA
:103D90000C946304CB010E94371E182FF4CF682FB8
:103DA00080911F01909120010C941A21682F80911D
:103DB0001F01909120010C94252180911F01909169
:103DC00020010C9430218091E5028595859585959B
:103DD00008958091E502877008959091E5029770AB
:103DE00081E009F480E0089590912F0392FB22274F
:103DF00020F9281751F080FB92F990932F038091BE
:103E00002E0390912F030C94FB1F089580912F0394
:103E100082FB882780F991E089270C94F41E81E0C9
:103E20000C94F41E80E00C94F41E80910903089514
:103E300090910903892B80930903089580959091AF
:103E40000903982390930903089510920903089594
:103E500090910803892B8093080308958095909191
:103E60000803982390930803089510920803089577
:103E700090910703892B8093070308958095909173
:103E8000070398239093070308951092070308955A
:103E90008091E602089508950C944B1F90912F0392
:103EA00092FD08C09091E602981721F08093E602F7
:103EB0000C944C1F08958091E602882329F01092FB
:103EC000E60280E00C944C1F0895E0911F01F091F0
:103ED0002001809109038083E0911F01F09120016E
:103EE000808190910803892B8083E0911F01F091DC
:103EF0002001808190910703892B80839091E602B5
:103F0000992381F0E0911F01F09120018081892B9C
:103F1000808380911F01909120010E948620811151
:103F20000E945B1F80911F01909120010C947B14D3
:103F300008950C94981F90912F0392FD10C098E063
:103F4000899F90011124622B6093E5020E946F1DEE
:103F50008091E5028595859585950C94991F0C9423
:103F60006F1D1092E50280E00C94991F9091E5027C
:103F7000809589238093E502282F277039F4282F14
:103F8000082E000C330B9217130621F490912F0387
:103F900092FF07C08595859585950E94901D0C948C
:103FA000B11F089580E008956FEF7FEF90E080E00B
:103FB0000C942D2A90E080E00E94092A21E08A3E9C
:103FC0009E4F09F020E0822F089582E090E00C944B
:103FD000FB2983E090E00C94FB29CF9384E090E0F0
:103FE0000E94FB29C82F82E290E00E94FB29982FB3
:103FF0008C2FCF910895CF93C92F682F84E090E044
:104000000E940F2A6C2F82E290E0CF910C940F2A2D
:10401000AB01BC018FE090E00C94212AAB01BC0104
:1040200083E190E00C94212A60E070E0CB010C94D5
:104030000E2060E070E0CB010E9408200C94142058
:104040006AEE7EEF90E080E00E942D2A60E082E040
:1040500090E00E940F2A60E083E090E00E940F2A27
:104060001092E1021092E2021092E3021092E40236
:1040700060E084E090E00E940F2A60E082E290E03D
:104080000E940F2A60E085E090E00E940F2A60E025
:1040900086E090E00E940F2A6FEF87E090E00E9498
:1040A0000F2A40E050E0BA0188E090E00E94212A07
:1040B00060E08DE090E00E940F2A40E050E0BA01FD
:1040C00088E190E00E94212A60E087E190E00E9470
:1040D0000F2A40E050E0BA018CE190E00E94212AD2
:1040E00070E060E080E290E00E942D2A40E050E025
:1040F000BA0188E190E00E94212A0C9419200C94C6
:104100002020682F8EE090E00C940F2AFC0132965C
:1041100080912B01882321F080912E039EE187FF5F
:1041200096E080E0915008F4089521912223D1F384
:104130008F5FF8CF662301F120912B012223F1F04C
:1041400020912E0327FF1AC0462F46954695469587
:104150004E3190F4677021E030E002C0220F331F2F
:104160006A95E2F7840F911DFC01828190E028237B
:10417000392381E0232B69F480E00895FC01329615
:1041800008962191261721F0E817F907D1F7F4CF07
:1041900081E008959C01FC0132969FEF80E04191FF
:1041A000461751F09F3F19F4411101C0982F8F5FBE
:1041B0008630A9F79F3F09F40895290F311D97FD17
:1041C0003A95F90162830895FC013296089621918F
:1041D000261303C0DF0111971C92E817F907B9F7FE
:1041E0000895E62FE695E695E695EE3168F4E80F3A
:1041F000F92FF11D677021E030E001C0220F6A95B0
:10420000EAF78281822B82830895E62FE695E69570
:10421000E695EE3170F4E80FF92FF11D677021E09B
:1042200030E001C0220F6A95EAF7209582812823A9
:104230002283089520912B01222329F020912E031F
:1042400027FD0C94F1200C94CA2020912B012223ED
:1042500029F020912E0327FD0C9405210C94E420D5
:10426000FC01329680912B01882351F080912E031E
:1042700087FF06C08EE1DF011D928A95E9F7089558
:1042800086E0F9CF089508950C944321809190031E
:10429000843049F10E94442180E00E943B04109246
:1042A0000B0388E190E020E40FB6F894A895809382
:1042B00060000FBE2093600083B7817F846083BF5E
:1042C00083B7816083BF7894889583B78E7F83BFDF
:1042D0000FB6F894A8958091600088618093600083
:1042E000109260000FBE08950895CF930E9442215E
:1042F0000E940A070E947421C0E08C2F0E9493063E
:10430000892B31F4CF5FC530C1F780E0CF9108959C
:1043100081E0FCCF08950C948A210E9477190E94B5
:104320006F140E943B040C948B211F921FB61F92A6
:1043300011248F939F93AF93BF9380910B038111AF
:1043400013C08091880390918903A0918A03B09152
:104350008B034196A11DB11D80938803909389031F
:10436000A0938A03B0938B03BF91AF919F918F91DC
:104370001F901FBE1F90189582E084BD93E095BDED
:104380009AEF97BD80936E0008952FB7F8948091AF
:10439000880390918903A0918A03B0918B032FBF6A
:1043A00008952FB7F89460918803709189038091E4
:1043B0008A0390918B032FBF08959C014FB7F89407
:1043C0008091880390918903A0918A03B0918B0317
:1043D0004FBF821B930B089578941F921FB61F92B4
:1043E00011248F939F93AF93BF93809188039091F3
:1043F0008903A0918A03B0918B030196A11DB11D81
:104400008093880390938903A0938A03B0938B03CE
:10441000BF91AF919F918F911F901FBE1F901895D4
:1044200081E08093E00080E28093D8001092C90080
:104430008FE19EE40197F1F700C0000087E090EB68
:10444000DC018093990390939A03A0939B03B0930C
:104450009C0388E19CE00FB6F894A89580936000D7
:104460000FBE90936000FFCF9093CF018093CE0159
:10447000089580912C030895CF93DF9300D00F927D
:10448000CDB7DEB790919003943019F589837B8383
:104490006A8382E08093E9008FEF9091E800815079
:1044A00095FD06C095ED9A95F1F700008111F5CFC5
:1044B0008091E80085FF0DC050E040E063E070E0CF
:1044C000CE0101960E9466248091E8008E77809349
:1044D000E8000F900F900F90DF91CF910895BC01ED
:1044E00084E00C943C22BC0183E00C943C229C01AF
:1044F00082E08093E9009FEF8091E800915085FD74
:1045000006C085ED8A95F1F700009111F5CF8091F5
:10451000E80085FF0CC050E040E066E070E0C901B3
:104520000E9466248091E8008E778093E8000895C9
:10453000CF93DF93EC0180912B018823B1F180911F
:104540002E0387FF32C060E282E08093E9008FEFA4
:104550009091E800815095FD06C095ED9A95F1F790
:1045600000008111F5CF8091E80085FF1BC080918C
:104570002B0170E050E040E0811104C050E040E0C9
:1045800068E070E0CE010E9466248091E8008E779A
:104590008093E80080E2FE01ACE0B3E001900D9270
:1045A0008A95E1F7DF91CF91089568E081E0CDCF62
:1045B00080918F03811109C00E94F6250E94532625
:1045C0008091E20084608093E200089510928F034E
:1045D000089508950895089542E061EC81E00E94F5
:1045E000722542E261EC82E00C9472258091920384
:1045F000833009F45FC030F48130C1F1823009F4B6
:104600009BC008958A3009F487C08B3009F46DC0CF
:10461000893009F04EC080919103813209F049C080
:104620008091950390919603029708F042C0809183
:10463000E800877F8093E8008091E80082FF35C022
:104640009091F3008091F200029729F48091F1009B
:104650008B7F813021F48091F10080932C03809135
:10466000E8008B778093E8000C94A6258091910355
:10467000813AF9F48091E800877F8093E800809187
:10468000950390919603892B61F460E28CE093E0AE
:1046900070E00E94B5248091E8008B778093E80059
:1046A000089560E090E080E0F3CF80919003811165
:1046B000C3CF089580919103813AD9F780919503F2
:1046C00090919603892BA9F78091E800877F8093CA
:1046D000E8008091E80080FFFCCF80912B0180935F
:1046E000F1008091E8008E77BDCF809191038132F7
:1046F00001F78091950390919603892BD1F68091D3
:10470000E800877F8093E8000E94A62580919303AC
:1047100080932B010C94771980919103813249F693
:104720008091E800877F8093E8000E94A625809111
:10473000940380932D03089580919103813A09F0A9
:10474000B8CF8091E800877F8093E8008091E800EF
:1047500080FFFCCF80912D03C2CF84B7877F84BFB9
:104760000FB6F894A89580916000886180936000EE
:10477000109260000FBE80E890E00FB6F89480932E
:104780006100909361000FBE0E94F0140E94F62514
:104790000E9453268091E20084608093E200789426
:1047A0000E94DC280E94041581E291E00E946A14B4
:1047B00080919003853099F00E940C150E9400159D
:1047C000F7CF0E94462180918E03882341F00E94FA
:1047D0007521882321F00E9450240E94771980912E
:1047E0009003853071F30E948D21E6CF0C94F8235D
:1047F000292F33272330310519F168F42130310591
:1048000009F444C02230310509F445C090E080E04D
:1048100030E020E025C02132310549F12232310556
:10482000A9F780E490E025E335E061157105C1F05A
:1048300086EB90E02FE734E06130710589F0E6CF38
:1048400099278130910581F0009729F00297F1F6C0
:10485000E2EFF3E002C0EEE2F4E0849190E09F0129
:10486000FA01318320830895E8E1F4E0F6CF89E08E
:1048700090E024E434E06115710591F389E090E063
:104880002DE534E06130710559F3C0CF82E190E04D
:104890002DE634E0E5CF8BE390E022E334E0E0CF97
:1048A00080E189BD82E189BD09B400FEFDCF809120
:1048B000D8008F7D8093D8008091E0008260809343
:1048C000E0008091E00081FDFCCF0895AF92BF929F
:1048D000CF92DF92FF920F931F93CF93DF936C01E0
:1048E000EB018A010E94C525F82E811123C0011514
:1048F000110539F0F80180819181C81BD90BC80ED0
:10490000D91EB12CA12C2097A9F08091E80085FD3B
:1049100022C08091E8008E778093E8000115110590
:10492000A1F0F80180819181A80EB91EB182A08208
:1049300085E0F82E8F2DDF91CF911F910F91FF9081
:10494000DF90CF90BF90AF9008950E94C525882337
:10495000D1F2F82EEFCFF60181916F018093F10033
:104960002197FFEFAF1ABF0ACECFFC0180919703CA
:104970009091980386179707A0F06115710529F4A7
:104980009091E8009E779093E80090E061157105A2
:1049900051F4911108C08091E80082FF34C080E09A
:1049A0000895BC01F2CF809190038823C1F1853036
:1049B000C1F18091E80083FD30C08091E80082FD64
:1049C000EACF8091E80080FFE1CF8091F300209151
:1049D000F200382F6115710519F02830310558F0B3
:1049E00091E02830310509F090E02091E8002E7721
:1049F0002093E800CBCF81918093F1006150710941
:104A00002F5F3F4FE7CF80919003882341F085309F
:104A100041F08091E80083FFBECF81E0089582E0FD
:104A2000089583E00895FC01809197039091980385
:104A300086179707A0F06115710529F48091E800A9
:104A40008E778093E80090E06115710551F4911123
:104A500008C08091E80082FF35C080E00895BC0165
:104A6000F2CF809190038823C9F18530C9F18091FC
:104A7000E80083FD31C08091E80082FDEACF80919B
:104A8000E80080FFE1CF8091F3002091F200382F01
:104A90006115710519F02830310558F091E0283082
:104AA000310509F090E08091E8008E778093E8006E
:104AB000CBCF84918093F1003196615071092F5FC3
:104AC0003F4FE6CF80919003882341F0853041F03D
:104AD0008091E80083FFBDCF81E0089582E00895D2
:104AE00083E00895982F973028F08F708093E90025
:104AF00081E008959093E900242F762F50E09817D5
:104B000031F07091EC002091ED005091F00021FD0A
:104B100002C09F5FE8CF3091EB003E7F3093EB0007
:104B20003091ED003D7F3093ED003091EB0031602E
:104B30003093EB007093EC002093ED005093F00065
:104B40002091EE0027FDE5CF80E00895809191034C
:104B500087FF13C08091E80082FF06C08091E800C3
:104B60008B778093E80004C0809190038111F2CF8D
:104B70000895809190038823D9F38091E80080FF05
:104B8000F8CF8091E8008E77ECCF2091E40030914F
:104B9000E50095E6A9012091EC00822F817020FFAD
:104BA00006C08091E80080FF06C080E00895209153
:104BB000E80022FD1AC080919003882389F0853097
:104BC00089F08091EB0085FD0FC02091E4003091C9
:104BD000E50042175307F9F29150E1F684E0089599
:104BE00082E0089583E0089581E008950E9464269C
:104BF0000E946C26E0EEF0E0808181608083E8ED29
:104C0000F0E080818F77808319BCA7EDB0E08C91B4
:104C10008E7F8C9380818F7E808310928F03089586
:104C20000F931F93CF93DF930E9464260E946C26FC
:104C3000C8EDD0E088818F778883888180688883F9
:104C400088818F7D888319BC1092900310928C0309
:104C500010928E0310928D0300EE10E0F801808117
:104C60008B7F808388818160888342E060E080E080
:104C70000E947225E1EEF0E080818E7F8083E2EE7B
:104C8000F0E0808181608083808188608083F8018A
:104C900080818E7F8083888180618883DF91CF913E
:104CA0001F910F910895E8EDF0E080818F7E808361
:104CB000E7EDF0E080818160808384E082BF81E065
:104CC00080938F030C941026E8EDF0E080818E7FB6
:104CD00080831092E20008951092DA001092E100B1
:104CE00008951F920F920FB60F9211242F933F93A6
:104CF0004F935F936F937F938F939F93AF93BF93E4
:104D0000EF93FF938091E10082FF0BC08091E2005E
:104D100082FF07C08091E1008B7F8093E1000E94B9
:104D2000DB288091DA0080FF19C08091D80080FFD5
:104D300015C08091DA008E7F8093DA008091D900CF
:104D400080FF96C080E189BD82E189BD09B400FE83
:104D5000FDCF81E0809390030E94D8228091E100F2
:104D600080FF19C08091E20080FF15C08091E200B1
:104D70008E7F8093E2008091E20080618093E20068
:104D80008091D80080628093D80019BC85E0809320
:104D900090030E94EA228091E10084FF2BC0809161
:104DA000E20084FF27C080E189BD82E189BD89B529
:104DB000982F917080FFFBCF8091D8008F7D8093DA
:104DC000D8008091E1008F7E8093E1008091E20025
:104DD0008F7E8093E2008091E20081608093E20008
:104DE00080918C03882309F449C084E08093900368
:104DF0000E94EB228091E10083FF29C08091E200B4
:104E000083FF25C08091E100877F8093E10082E0ED
:104E10008093900310928C038091E1008E7F8093A9
:104E2000E1008091E2008E7F8093E2008091E200B9
:104E300080618093E20042E060E080E00E947225A1
:104E40008091F00088608093F0000E94E922FF9139
:104E5000EF91BF91AF919F918F917F916F915F91F2
:104E60004F913F912F910F900FBE0F901F9018956B
:104E700019BC109290030E94E62270CF8091E3004B
:104E800087FD93E090939003B3CF1F920F920FB6DC
:104E90000F9211242F933F934F935F936F937F93C0
:104EA0008F939F93AF93BF93CF93DF93EF93FF9332
:104EB000D091E900DF708091EC00C82FC17080FDB7
:104EC000C0E81092E9008091F000877F8093F000A5
:104ED00078940E9489271092E9008091F000886000
:104EE0008093F000CD2BCF70C093E900FF91EF913C
:104EF000DF91CF91BF91AF919F918F917F916F91F2
:104F00005F914F913F912F910F900FBE0F901F9087
:104F100018951F93CF93DF93CDB7DEB7AA970FB63F
:104F2000F894DEBF0FBECDBF81E993E02091F10080
:104F3000FC012193CF01F3E089399F07B9F70E9463
:104F4000F6228091E80083FF1EC180919103909129
:104F500092039A3008F017C1E92FF0E0EE57F54DB3
:104F60000C945B29803899F0823809F00CC180914B
:104F700095038F70873008F006C18093E900809117
:104F8000EB0085FB882780F91092E90006C080912C
:104F90008D0390918E03911182609091E800977F2C
:104FA0009093E8008093F1001092F1008091E80066
:104FB0008E77E5C0882309F4D3C0823009F0E3C0BE
:104FC000809193038111D6C0809195038F702FEF4C
:104FD000280F263008F0D7C08093E9002091EB001D
:104FE00020FFC8C0933031F48091EB008062809341
:104FF000EB00C0C09091EB0090619093EB0021E03A
:1050000030E001C0220F8A95EAF72093EA0010925F
:10501000EA008091EB008860EACF8111B4C0109162
:1050200093031F778091E3008078812B8093E300C6
:105030008091E800877F8093E8000E94A6258091F8
:10504000E80080FFFCCF8091E30080688093E3005C
:1050500082E0111183E08093900395C080588230E4
:1050600008F091C080919303909194038C3D23E0CC
:105070009207A1F583E08A838AE289834FB7F89487
:10508000DE01139620E03EE051E2E32FF0E0509382
:105090005700E49120FF03C0E295EF703F5FEF708F
:1050A0008E2F90E0EA30C0F0C7968D939D932F5FCE
:1050B000243159F74FBF8091E800877F8093E80043
:1050C0006AE270E0CE0101960E94B5248091E8006A
:1050D0008B778093E80057C0C096E7CF6091950327
:1050E00070919603AE014F5F5F4F0E94F623BC01A3
:1050F000892B09F448C09091E800977F9093E800CD
:1051000089819A810E941325E1CF8038E1F5809151
:10511000E800877F8093E80080918C038093F10002
:1051200045CF811130C090919303923060F580910A
:10513000E800877F8093E80090938C030E94A62567
:1051400080918C03882311F084E005C08091E300F6
:1051500087FDFACF81E0809390030E94EC2213C078
:1051600080919303813079F481E0933009F080E0FD
:1051700080938E031092E9008091E800877F8093EE
:10518000E8000E94A6258091E80083FF0AC0809174
:10519000E800877F8093E8008091EB008062809335
:1051A000EB00AA960FB6F894DEBF0FBECDBFDF911D
:1051B000CF911F9108950895CF93809190038823F4
:1051C000A1F0C091E900CF709091EC00892F81701F
:1051D00090FD80E8C82B1092E9008091E80083FDE3
:1051E0000E948927CF70C093E900CF910895991B41
:1051F00079E004C0991F961708F0961B881F7A95CE
:10520000C9F78095089587FB082E062687FD8195AE
:1052100067FD61950E94F7280EF4919507FC819532
:105220000895AA1BBB1B51E107C0AA1FBB1FA617ED
:10523000B70710F0A61BB70B881F991F5A95A9F73F
:1052400080959095BC01CD01089597FB072E16F42B
:10525000009407D077FD09D00E94112907FC05D0E2
:105260003EF4909581959F4F0895709561957F4F7D
:105270000895A1E21A2EAA1BBB1BFD010DC0AA1F97
:10528000BB1FEE1FFF1FA217B307E407F50720F0AF
:10529000A21BB30BE40BF50B661F771F881F991F2A
:1052A0001A9469F760957095809590959B01AC0173
:1052B000BD01CF010895EE0FFF1F0590F491E02D81
:1052C00009940E946929332312F48A1B9B0B0C94C6
:1052D0007A29A29FB001B39FC001A39F700D811DC9
:1052E0001124911DB29F700D811D1124911D0895EF
:1052F0000E946929B7FF0895821B930B08950E94AD
:105300006929A59F900DB49F900DA49F800D911DBC
:1053100011240895B7FF0C947F290E947F29821BD6
:10532000930B08958F929F92AF92BF92CF92DF928C
:10533000EF92FF92CF93DF93EC01688179818A81AC
:105340009B81611571058105910521F464E279ED78
:105350008BE597E02DE133EF41E050E00E94432AD6
:1053600049015A019B01AC01A7EAB1E40E947F29DF
:105370006B017C01ACEEB4EFA50194010E948D2974
:10538000DC01CB018C0D9D1DAE1DBF1DB7FF03C001
:105390000197A109B04888839983AA83BB839F772B
:1053A000DF91CF91FF90EF90DF90CF90BF90AF90C3
:1053B0009F908F9008950E949229089580E091E037
:1053C0000E9492290895B0E0A0E08093000190939C
:1053D0000101A0930201B09303010895FC01415023
:1053E000504030F001900616D1F73197CF01089563
:1053F000882799270895F999FECF92BD81BDF89A23
:10540000992780B50895A6E1B0E044E050E00C94FF
:10541000352AA8E1B0E042E050E00C94352A262F6E
:10542000F999FECF92BD81BDF89A019700B402169A
:1054300039F01FBA20BD0FB6F894FA9AF99A0FBE48
:1054400008950396272F0E94102A0E940F2A252FC5
:105450000E94102A242F0C94102A0196272F0E94B4
:10546000102A0C940F2ADC01CB01FC01F999FECF24
:1054700006C0F2BDE1BDF89A319600B40D924150DC
:105480005040B8F70895052E97FB1EF400940E9433
:105490005A2A57FD07D00E94392907FC03D04EF441
:1054A0000C945A2A50954095309521953F4F4F4F77
:1054B0005F4F089590958095709561957F4F8F4FC0
:1054C0009F4F0895F894FFCF4017401798179817EB
:1054D000EA1706186D176D1711189D18AC18AC183F
:1054E00008196D176D171119861986198F198F19DB
:1054F00091198F198F198F198619861996198F1975
:105500008F199619B227DA27C328DA27C3280D285E
:085510002E28C32885289128EC
:10551800010000002808641E140A321E010102005E
:105528001500151501191A1B1C1D1E1F202122E725
:105538000239229822772273226F2201E200E900C1
:10554800EA00B500B600B700CD008301CC008A019F
:105558009201940121022302240225022602270235
:105568002A02B300B4006F007000818283F0F1C694
:1055780067663694313037353497963390919293E5
:10558800950001020202020606060909090909092D
:105598000F0F0F0F0F0F15151518191919191919BC
:1055A800191919192324252525252525E200E9009F
:1055B800EA00B500B600B700CD008301CC008A012F
:1055C80092019401210223022402250226022702C5
:0E55D8002A02B300B4006F00700081828300CD
:00000001FF
