:100000000C94A5010C94EC010C94EC010C94EC0103
:100010000C94EC010C94EC010C94EC010C94EC01AC
:100020000C94EC010C94EC010C94051D0C94D91D5E
:100030000C94EF170C94EC010C94EC010C94EC0173
:100040000C94EC010C94EC010C94EC010C94EC017C
:100050000C94EC010C9446180C94EC010C94EC01FB
:100060000C94EC010C94EC010C94EC010C94EC015C
:100070000C94EC010C94EC010C94EC010C94EC014C
:100080000C94EC010C94EC010C94EC010C94EC013C
:100090000C94EC010C94EC010C94EC010C94EC012C
:1000A0000C94EC010C94EC010C94EC01165C1E0019
:1000B0001F0020002100220023002400250026002C
:1000C00027002D002E002A0000002B0014001A002B
:1000D0000800150017001C0018000C001200130087
:1000E0002F00300031004A003900040016000700DC
:1000F00009000A000B000D000E000F003300340051
:10010000280000004D00E1001D001B000600190042
:10011000050011001000360037003800E50000002F
:1001200052004C00E0000000E20000002C000151F1
:1001300000002C000000E60000000000500051000C
:100140004F0001003A003B003C003D003E003F00F4
:100150004000410042004300440045004C000000C4
:100160000100010001000100005C0100010001002C
:100170000100010001000100010001004B0001002D
:100180000100010001000100010001000100010067
:10019000010001000100010000004E00010001000B
:1001A0000100010001000100010001000100010047
:1001B0000100010000000100010001000000E30057
:1001C000000001000100000001000000010000002B
:1001D00000000100010001001203410072006900EB
:1001E00073007500740065006100000014033300A3
:1001F0007800360020006B00650065006200730027
:1002000000000403090409023B00020100A0FA09EE
:100210000400000103010100092111010001224035
:10022000000705810308000A09040100010300001A
:100230000009211101000122B600070582032000F8
:100240000A120110010000000866A6400004000127
:1002500002000105010902A10185020901A10005B1
:100260000919012908150025019508750181020564
:1002700001093009311581257F950275088106092C
:10028000381581257F950175088106050C0A38020D
:100290001581257F950175088106C0C0050109807B
:1002A000A101850319012AB700150126B7009501A0
:1002B00075108100C0050C0901A101850419012AEE
:1002C000A002150126A002950175108100C005014C
:1002D0000906A1018505050719E029E71500250193
:1002E0009508750181020507190029EF1500250100
:1002F00095F075018102050819012905950575011B
:100300009102950175039101C005010906A101053E
:100310000719E029E7150025019508750181029567
:1003200001750881010507190029FF150026FF0046
:1003300095067508810005081901290595057501BF
:100340009102950175039101C00011241FBECFEFEA
:10035000DAE0DEBFCDBF04B603FE27C080919E0267
:1003600090919F02A091A002B091A1028730904B82
:10037000A740B04BD1F410929E0210929F021092AF
:10038000A0021092A10214BE84B7877F84BF0FB66B
:10039000F894A89580916000886180936000109225
:1003A00060000FBEE0E0F8E3099511E0A0E0B1E0E5
:1003B000EAE4F0E402C005900D92AC38B107D9F739
:1003C00022E0ACE8B1E001C01D92AE39B207E1F71E
:1003D0000E943F1A0C94FB1F0C9400000C940B021B
:1003E000849A8C98859A8D98869A8E980895CF9243
:1003F000DF92EF92FF926B017C010E94BE0281307E
:1004000041F48C9AC701B601FF90EF90DF90CF9036
:1004100008958C98F7CF80FF05C08E9A81FF04C0A5
:100420008D9A08958E98FACF8D98089581E0089559
:1004300081E008950C94180208950C941C021F93F7
:10044000CF93DF9300D000D00F92CDB7DEB74983B2
:100450005A836B833091BB0189819A8131111DC010
:100460006623B9F02223A9F00E94E914182F682FFF
:1004700089819A810E94951469817A81812F0F90D8
:100480000F900F900F900F90DF91CF911F910C94D0
:100490001B030E94C114182FEFCF0E94E914698139
:1004A0007A81EDCFFC01262F4081518162817381D9
:1004B00084810C941F02CF93DF93EC0160E00E94D3
:1004C0005202BE01DF91CF910C941D020E9495183B
:1004D0000E943516811102C00E94D9160C9426057F
:1004E0000C94290508950E9401100E9472022FEFBA
:1004F00084E39CE0215080409040E1F700C0000080
:100500000C946A180F931F93CF93DF93EC0161E073
:100510000E9452028C01BE010E941A02882329F116
:10052000BE01C8010E9457098823F9F0BE01C80125
:100530000E94A9098823C9F0BE01C8010E94CC0A03
:10054000882399F08A81882339F001158CE51807F2
:1005500051F00F3D1C4579F0CE01DF91CF911F91F5
:100560000F910C9416020E94730280E0DF91CF91EC
:100570001F910F9108950E94D916F7CFCF92DF9265
:10058000EF92FF926C01EE24FF2420E0C114D1040D
:10059000E104F10419F0C701B60120E1C72ED82EFD
:1005A000E92EFF24C114D104E104F10419F0285FFD
:1005B000C701B6016B017C0154E0F694E794D7942F
:1005C000C7945A95D1F7C114D104E104F10419F08C
:1005D0002C5FC701B6016B017C0142E0F694E79401
:1005E000D794C7944A95D1F7C114D104E104F1041A
:1005F00019F02E5FC701B601969587957795679597
:10060000672B682B692B09F02F5F822FFF90EF90EB
:10061000DF90CF90089581E008950C940B03CF9361
:10062000C82F0E94EE018C2FCF910C940D0390E007
:1006300080E008950895972F70E02FE0929F600D5D
:10064000711D1124FB019BE4899FE00DF11D112414
:10065000EE0FFF1FE455FF4F859194910895FC0123
:10066000EE0FFF1FE852FE4F859194910895CF93AE
:10067000DF930E941B030E944C04EC01811520E5CE
:10068000920708F042C0811530E4930708F0BDC01E
:10069000883E910528F5803E910508F09DC0883A76
:1006A000910588F4853A910508F08FC08130910555
:1006B00009F492C0009709F48FC0049708F08CC029
:1006C000D0E0C0E089C08F3B910508F489C0805C10
:1006D0009109C03CD105A0F30E942F03EC017CC01E
:1006E0008115904250F4C11581E0D80708F074C01C
:1006F000CD3ED10528F3D0656FC0C11590E3D90771
:1007000008F079C0CE019F70E7CF811525E59207EB
:1007100058F5811534E5930708F0A6C0811542E528
:10072000940750F4C11581E5D80708F471C0DC2F97
:10073000CC27C16FD06A50C0982F969596959E0190
:1007400023703327C115D34508F07FC0C1E0D0E046
:1007500002C0CC0FDD1F2A95E2F720E2929FC00174
:100760001124C82BD92B6FC0C11589E5D807A8F46F
:10077000C11598E5D90708F07CC0C11526E5D20758
:1007800008F09ECF8C2F0E94E304C82FD0E0DC2F0E
:10079000CC27CC27DF71D0621FC0C1153AE5D30743
:1007A00008F46CC0CE0190568115904208F088CFB5
:1007B0008D2F8F710E94E30490E0982F882788275F
:1007C0009F719C012C2BE901E6CFC55AD0E0CD5B8F
:1007D000DE4FC881D0E0D064CE01DF91CF91089583
:1007E000C85AD0E0CC0FDD1FCB5EDE4F0990D88118
:1007F000C02DD464F1CFCE019927D3FF03C0EC0103
:10080000D86CEACFEC01D06CE7CFDF70D06AE4CFD0
:10081000CE01E4E096958795EA95E1F783702C2F59
:1008200026952695237090E2299F90011124382B5C
:100830008C2F8370C1E0D0E002C0CC0FDD1F8A9501
:10084000E2F7C22BD32BDC68C7CFC1E0D0E002C0F7
:10085000CC0FDD1F2A95E2F730E2939FC0011124EF
:10086000C82BD92BDA68B8CFD82FCC27C46FD06A61
:10087000B3CFDC2FCC27C06FD06AAECF8C2F8F7058
:100880000E94E30434E0D695C7953A95E1F7CF701E
:100890009C2FEC01D069A0CF82389105B1F1B0F462
:1008A0008133910509F475C048F48932910509F442
:1008B00069C08A32910509F473C0089585339105A2
:1008C00009F459C08933910501F10895833E9105DA
:1008D000A9F138F4803E9105F9F0823E910549F185
:1008E0000895863E9105A9F1873E9105C9F1843EA0
:1008F000910519F52091900221FF1FC080918F0270
:1009000084FD14C087EE90E0089520918F0223703B
:10091000A1F080EE90E0089520918F0220FD47C065
:100920003091900230FF09C024FF44C090E080E085
:1009300004C020918F0222FDF7CF089520918F02ED
:1009400022FD3BC03091900230FDE3CF24FFF5CF74
:10095000EDCF20918F0223FFF0CF24FDE7CFD2CF40
:1009600020918F0223FD2CC03091900231FFEECFF9
:1009700084EE90E0089520918F0225FFDECF89E27A
:1009800090E0089520918F0225FFD7CF85E390E076
:10099000089520918F0226FFD0CF8AE290E008953B
:1009A00020918F0226FFC9CF81E390E0089589E36B
:1009B00090E0089583EE90E0089582EE90E008952F
:1009C00086EE90E0089590918F0292FF06C0282F46
:1009D00028712830F9F4877F846093FF06C0282FA0
:1009E00028712831F1F4877E84612091900220FFE4
:1009F00006C0382F38713830D9F4877F816021FFE5
:100A000006C0282F28712831D1F4877E816194FD9A
:100A1000877E0895282F24712430F9F68B7F886013
:100A2000DCCF282F2471243101F78B7E8861DDCF44
:100A3000382F3171313019F78E7F8860E0CF282F41
:100A40002171213121F78E7E8861E1CF0C94F00174
:100A500008950C942805E82FF0E0EE0FFF1FEF57E4
:100A6000FD4F808191810895089580EA8A95F1F77C
:100A7000089500C008950C943505F894E82FE29588
:100A8000EF70F0E031A1282F2F7081E090E001C0DD
:100A9000880F2A95EAF7982F9095932391A392A116
:100AA000892B82A3789408950F931F93CF93DF939C
:100AB00080E90E943D0581E90E943D0582E90E948E
:100AC0003D0583E90E943D0585E90E943D05C6E498
:100AD000D1E005E511E089910E943D050C171D0745
:100AE000D1F710927802109277021092820210923F
:100AF000810210927A02109279021092840210926E
:100B0000830210927C0210927B0210928602109255
:100B1000850210927E0210927D021092880210923D
:100B200087021092800210927F0210928A02109225
:100B3000890285E00E942606DF91CF911F910F91D7
:100B40000C946602AF92BF92CF92DF92EF92FF9227
:100B50000F931F93CF93DF9305E511E0C7E7D2E032
:100B6000C12CD12CEE24E394F12CF80181918F015A
:100B7000F894E82FE295EF70F0E021A18F70A701C3
:100B800002C0440F551F8A95E2F7CA01922F982B95
:100B900091A392A18095892382A378940E9439051C
:100BA000E6E4F1E030E020E0B12CA12C4191A42F4B
:100BB000A295AF70B0E090968C9190E04F7002C01B
:100BC000959587954A95E2F780FD3BC0C701022EB7
:100BD00002C0880F991F0A94E2F7A82AB92A2F5F4A
:100BE0003F4F2F30310511F7F801319780810E9476
:100BF0003D0554E0C5120E943B0588819981A816E5
:100C0000B90611F1B982A88281E0D82AC39422964C
:100C100085E0C812AACF2D2D45E061E872E087E794
:100C200092E00E9427060E9470028D2DDF91CF91E5
:100C30001F910F91FF90EF90DF90CF90BF90AF90FA
:100C4000089590E080E0C9CF80E0DFCF0895FF9263
:100C50000F931F93CF93DF93F82E092F162FD72FC3
:100C6000C42F222349F081E0809390010E941F1835
:100C700090938F0180938E01809190018823A1F041
:100C800080918E0190918F010E943718099760F032
:100C9000EF2DF02FA12FBD2F90E080E0D0E08C173A
:100CA0009D0744F010929001DF91CF911F910F9119
:100CB000FF900895219131912D933D930196EFCFAF
:100CC0008091970180FF12C06091050185E0689FC7
:100CD000B001112475956795759567956038710514
:100CE000A8F561157105A1F1862F089581FF09C04E
:100CF0006091050185E0689FB001112475956795A5
:100D0000EDCF6091050182FD0AC080919601882394
:100D1000D1F09091040160910501891728F085E0D8
:100D2000689FB0011124DACF869FB001112485E0BD
:100D3000869F9001879F300D1124692F70E0C901B3
:100D40000E948B1FCBCF65E070E0CECF8FE7089578
:100D500081E008958091970180FF0CC060910101AE
:100D600070E075956795759567956115710549F101
:100D7000862F089581FF06C06091010170E075958E
:100D80006795F3CF6091010182FD0BC090919501B1
:100D90009923A1F06091000180910101961738F02C
:100DA000682F70E06038710500F38FE70895899F20
:100DB000C001112470E00E948B1FF4CF61E070E04D
:100DC000D7CF81E008958D3E31F40E946006819571
:100DD00080939B0108958E3E19F40E946006F8CF1F
:100DE0008F3E31F40E946006819580939A010895A8
:100DF000803F19F40E946006F8CF893F29F40E94D1
:100E0000AA0680939C0108958A3F21F40E94AA06B5
:100E10008195F7CF8B3F31F40E94AA06819580938C
:100E20009D0108958C3F19F40E94AA06F8CF9FE017
:100E3000980F983070F4815F990B21E030E001C089
:100E4000220F8A95EAF780919901822B809399016C
:100E500008958D3F31F480919701816080939701CF
:100E600008958E3F21F4809197018260F7CF8F3FE4
:100E7000B9F7809197018460F1CF40919A018D3E3E
:100E800059F480919B0187FF0DC010929B01411185
:100E90000BC01092960108C08E3E81F480919B0198
:100EA00018169CF3442381F080919C0190919D0140
:100EB000892B09F05AC01092950108958F3E49F48C
:100EC00047FFF0CF10929A0180919B018111ECCFE6
:100ED000E0CF803F19F41416ACF3E4CF90919C015D
:100EE000893F29F41916F4F610929C01DBCF8A3F52
:100EF00019F497FFD7CFF8CF90919D018B3F29F43C
:100F000097FFD0CF10929D01CDCF8C3F19F41916C9
:100F1000CCF3C8CF9FE0980F983090F4815F990B85
:100F200021E030E0B90102C0660F771F8A95E2F731
:100F3000CB01809590919901892380939901B2CF3B
:100F40008D3F31F4809197018E7F80939701AACFD6
:100F50008E3F21F4809197018D7FF7CF8F3F09F06D
:100F6000A1CF809197018B7FF0CF08950E941F1829
:100F70009C0190919A0180919B01982B21F03093D4
:100F800094012093930190919C0180919D01982B55
:100F900021F0309392012093910188E991E00C9423
:100FA000210BEF92FF920F931F93CF93DF9300D00B
:100FB00000D000D0CDB7DEB786E0E8E9F1E0DE0191
:100FC000119601900D928A95E1F7E0909A01F090C8
:100FD0009B0100919C0110919D0110929A01109229
:100FE0009B0110929C0110929D018E2D8F2991F0F2
:100FF00080919301909194010E943718AC019091D7
:101000009601992309F43FC08091060184171506C3
:1010100008F447C0802F812B91F08091910190912D
:1010200092010E943718AC0190919501992309F41F
:1010300077C0809102018417150608F47FC0809163
:101040009A0190919B01892B90919C01892B909101
:101050009D01892B11F00E94B60786E0FE013196B2
:10106000A8E9B1E001900D928A95E1F726960FB6B6
:10107000F894DEBF0FBECDBFDF91CF911F910F91CE
:10108000FF90EF900895209107018AE0289F90013A
:1010900011242417350708F0BDCF9F5F9093960168
:1010A00002C09F3FD1F7EE2059F00E9460069FEFEB
:1010B0001E140CF491E0899F802D112480939A01D5
:1010C000FF2059F00E9460069FEF1F140CF491E07E
:1010D000899F802D112480939B0130919A013323A5
:1010E00009F498CF20919B01222309F493CF45EB7B
:1010F0003403C0011124992359F090939A0145EBD0
:10110000240390011124332339F030939B0182CFC3
:1011100081E080939A01F3CF81E080939B017ACFA5
:10112000209103018AE0289F90011124241735079C
:1011300008F085CF9F5F9093950102C09F3FD1F744
:10114000002359F00E94AA069FEF10160CF491E0BC
:10115000899F802D112480939C01112359F00E94B6
:10116000AA069FEF11160CF491E0899F802D11249F
:1011700080939D0130919C01332309F460CF20912D
:101180009D01222309F45BCF45EB3403C0011124F8
:10119000992359F090939C0145EB2403900111246D
:1011A000332339F030939D014ACF81E080939C0135
:1011B000F3CF81E080939D0142CF86E0E8E9F1E042
:1011C000DF011D928A95E9F7109296011092950120
:1011D0001092970108950F931F93CF93DF93C42F1D
:1011E000D22FFC0182818823C9F04093A0010E9484
:1011F0001F1890939F0180939E0180E28C0F88308E
:1012000008F050C0C77081E001C0880FCA95EAF7A6
:10121000DF91CF911F910F910C94880D1091A00137
:10122000141335C080919E0190919F010E94371840
:10123000883C910560F5C0E2CD0F1D17B9F080E242
:10124000810F883040F4177081E001C0880F1A9533
:10125000EAF70E948F0DC83048F481E09D2F977007
:1012600001C0880F9A95EAF70E94880D802F0E948E
:10127000800DC830B8F4D77081E001C0880FDA95CE
:10128000EAF7DF91CF911F910F910C948F0D80E2BF
:101290008C0F883038F4C77081E001C0880FCA9580
:1012A000EAF7EFCFDF91CF911F910F9108950F9340
:1012B0009C01CB01243F4CE5340759F1A8F4293DAA
:1012C000FCE53F0701F12A3D4CE53407D1F1283D0B
:1012D0003C4591F406E221EE41EE68ED7CE50E948A
:1012E000EB0880E00F910895263FFCE53F07E9F009
:1012F000B0F0273F3C45F9F0FC018281882339F1A9
:101300001092A001EFCF07E225EE45EE69ED7CE5F6
:10131000E6CF06E221EE40EE64EF7CE5E0CF07E2A7
:1013200025EE44EE65EF7CE5DACF06E221EE42EEF3
:1013300066EF7CE5D4CF07E225EE46EE67EF7CE56D
:10134000CECF08E221E045EE6AED7CE5C8CF81E032
:10135000C9CFCF93DF93EC01FB018281882309F48D
:1013600019C1C230FCE5DF07C0F1C6319CE5D907E1
:1013700030F09E012B5F3C452930310570F50E940D
:1013800048169093900280938F02C031ECE5DE07FF
:1013900009F4CFC008F05BC0C8308CE5D80709F469
:1013A000B6C088F5C430ECE5DE0709F4A8C0C0F487
:1013B000C2308CE5D80709F49CC080918F0282600E
:1013C000C330DC4509F498C080918F02909190025F
:1013D0000E9456160E94011080E0DF91CF9108957F
:1013E00080918F028061C630ECE5DE0709F484C08D
:1013F00080918F028860C730DC4508F47DC0809101
:101400008F02806279C0CC308CE5D80709F489C09E
:1014100070F480918F028C60CA30ECE5DE0709F42D
:101420006BC008F478C080918F028E7F65C0CE308B
:101430008CE5D80709F479C080918F028B7FCF307B
:10144000DC4508F459C080918F028F7E55C0CC3F97
:10145000ECE5DE0709F457C030F5C3318CE5D80759
:1014600009F46FC078F4C131ECE5DE0709F465C01A
:10147000C231DC4509F0A8CF0E94011080918F0293
:101480008F773AC0C5318CE5D80709F462C008F4FB
:1014900076C0809190028160CB3FDC4509F094CF0B
:1014A0008093900291CFC115FDE5DF0709F44DC08F
:1014B00088F4809190028D7FCE3F9CE5D90781F31F
:1014C000809190028E7FCF3FDC4550F38091900257
:1014D0008360E6CFC230FDE5DF0709F459C008F4A8
:1014E00044C080E0C330DD4509F06ECF0E94DB16BA
:1014F0006BCF80918F02816080938F0265CF809146
:101500008F028460F9CF809190028260C9CF809170
:101510008F028064F1CF0E94011080918F02806859
:10152000EBCF80918F028D7FE7CF80918F02877FF5
:10153000E3CF80918F028F7DDFCF80918F028F7BF1
:10154000DBCF80918F02837FD7CF809190028C7FF9
:10155000A7CF80918F0282FB992790F921E09227F3
:1015600090FB82F990FB83F9C7CF80919002982F6E
:10157000909591708E7F892B90FB81F991CF0E947D
:10158000011090918F02892F97FB87F98058B4CF73
:1015900081E0ACCF81E021CFCF93DF93EB018631A7
:1015A0009C4511F50E947E159A81992399F08A7ABB
:1015B00091E009F490E09093A101811109C089E2C2
:1015C0000E9459150E94CA1580E0DF91CF910895BD
:1015D00085E3F6CF8091A101811104C089E20E94C8
:1015E0006015F0CF85E3FBCF81E0EFCF9093A701AB
:1015F0008093A6010895E091A601F091A70130978C
:1016000021F00190F081E02D099480E00895E091AF
:10161000A601F091A701309799F02091140122239F
:1016200059F020918F0227FF07C0DC012C91119601
:101630002C93119725E02C930280F381E02D0994DF
:101640000895E091A601F091A701309739F022E0CA
:10165000DC012C930480F581E02D099408952091FC
:10166000A4013091A5012817390771F09093A501C5
:101670008093A401E091A601F091A701309721F099
:101680000680F781E02D099408952091A201309100
:10169000A3012817390771F09093A3018093A20149
:1016A000E091A601F091A701309721F00084F18527
:1016B000E02D099408950E942B186093B701709350
:1016C000B8018093B9019093BA016093B30170930C
:1016D000B4018093B5019093B601089585B78068F1
:1016E00085BF85B7806885BF0895089508950C94D7
:1016F000750B08950C94790B0E946E0B8DE296E1A8
:101700000E948E180E94760B0C94770B81E008954E
:101710000C94860B089508950E9416180E94540593
:101720000E94A9180C947A0B8F929F92AF92BF924D
:10173000CF92DF92EF92FF920F931F93CF93DF939D
:10174000CDB7DEB72A970FB6F894DEBF0FBECDBF78
:101750000E948A0B0E948B0B0E94A20581110E949D
:101760005B0B59EA852E51E0952E10E000E0A02E8B
:10177000802F0E942B056C01F401E190F1904F0144
:10178000E816F90609F45CC08091530281FD0E94BD
:101790003405C7018C259D25B12CEE24E394F12C52
:1017A0009C012E213F21232B09F444C00E94880B69
:1017B0008823A9F0BE82AF82CE20DF2081E0CD2831
:1017C00009F480E088870E941F188160782F9A872B
:1017D00089874E815F8168858A850E944A0C000F47
:1017E000111FF801E755FE4F80819181E826F92607
:1017F000F182E0820E94D1070E94FB0A9091A80129
:101800008917A9F10E94FB0A8093A8012A960FB6B6
:10181000F894DEBF0FBECDBFDF91CF911F910F9126
:10182000FF90EF90DF90CF90BF90AF909F908F9000
:101830000C940F03B394EE0CFF1CFFE0BF12B0CF6B
:101840000F5F1F4F0530110509F091CF8FEF89838E
:101850008A831B820E941F188160782F9D838C834E
:1018600049815A816B818D810E944A0CC3CF2A968F
:101870000FB6F894DEBF0FBECDBFDF91CF911F91A1
:101880000F91FF90EF90DF90CF90BF90AF909F901F
:101890008F900895DF92EF92FF920F931F93CF9353
:1018A000DF93CDB7DEB72B970FB6F894DEBF0FBE30
:1018B000CDBF7A878B87F42E052F162FE72ED82ED3
:1018C00061110E949E151E821D827E2DEC82DD829A
:1018D0004F2D502F612F8D2D9E812B960FB6F89492
:1018E000DEBF0FBECDBFDF91CF911F910F91FF9053
:1018F000EF90DF900C947712FC01808191810C9421
:101900002B15CF93C82F882309F48BC08238C1F4DC
:101910000E94FB0A81FD85C089E30E9459150E943F
:10192000CA152FEF81EE94E0215080409040E1F7FE
:1019300000C0000089E30E946015CF910C94CA1585
:101940008338A1F40E94FB0A80FD6BC083E50E94EE
:1019500059150E94CA152FEF81EE94E02150804066
:101960009040E1F700C0000083E5E5CF8438A1F4A2
:101970000E94FB0A82FD55C087E40E9459150E940F
:10198000CA152FEF81EE94E0215080409040E1F79E
:1019900000C0000087E4CFCF8CEF8C0F813A90F429
:1019A0006C2F80910801909109010E94F416882300
:1019B00029F08C2F0E9460150E94CA158C2F0E945E
:1019C0005915BBCF80E28C0F883048F4C77081E096
:1019D00001C0880FCA95EAF70E948115AECFEBE5EA
:1019E000EC0FE33040F4F0E0E857FE4F808190E0E8
:1019F000CF910C942F0BE8E5EC0FE73150F4F0E0B9
:101A0000EE0FFF1FE65AFE4F80819181CF910C941B
:101A1000450BCD3E30F08C2F0E94E306CF910C9405
:101A2000B607CF910895882309F452C0823871F423
:101A30000E94FB0A81FF4CC089E30E9459150E9455
:101A4000CA1589E30E9460150C94CA15833859F4AD
:101A50000E94FB0A80FF3CC083E50E9459150E944A
:101A6000CA1583E5EFCF843859F40E94FB0A82FF40
:101A70002FC087E40E9459150E94CA1587E4E2CF5F
:101A80009CEF980F913AF0F290E2980F983050F452
:101A9000877091E001C0990F8A95EAF7892F0E941B
:101AA0008715D2CF9BE5980F933020F490E080E02B
:101AB0000C942F0B98E5980F973120F490E080E07C
:101AC0000C94450B8D3E20F00E943D070C94B60708
:101AD00008951F93CF93DF93182FEB010E94810C81
:101AE000209731F4812FDF91CF911F910C94130D2A
:101AF0008FE99FE00197F1F700C000002197F0CF38
:101B000070E060E0893311F460E570E00C94690DD9
:101B1000882321F00E9481150C94CA15089588230A
:101B200021F00E9487150C94CA150895BF92CF9298
:101B3000DF92EF92FF920F931F93CF93DF936C018D
:101B4000D62FC72FFC011281058102950F700E94CC
:101B50007715E82E8823A1F0E12E112389F08C2F30
:101B6000807F803429F080E28D0FE12C883040F0B6
:101B700082E00E9415160E94771591E0E82EE92672
:101B8000BC2EB2949FE0B922EB2DF0E0E350F04E72
:101B90000C949F1F0C2F0F70C07F11F00295007FD7
:101BA0001123A9F0002359F080E28D0F883010F046
:101BB000D11109C0802F0E9481150E94CA158D2F56
:101BC0000E94810C14C0802F0E949115F6CF8D2F9A
:101BD0000E94130D002359F080E28D0F883010F021
:101BE000D1112CC0802F0E9487150E94CA152B2D61
:101BF0002850330B2430310520F40E94FB0A0E9448
:101C00000F03EE2009F49EC10E94731580FD9AC156
:101C1000F60112820E946D150E94F913C6010E94FE
:101C2000C30F0E946D15DF91CF911F910F91FF900F
:101C3000EF90DF90CF90BF900C941A14802F0E94E9
:101C40009715D3CFFC2FFF70FF2EC07FC03219F045
:101C5000F29480EFF822DD2369F0D13049F11123AD
:101C600091F1002351F1F601858180FFA8CF8F709B
:101C7000858323C0112381F0011106C00E94B11594
:101C80008F290E94880DB3CF0130C1F70E94B11592
:101C90008F290E94B715ABCF011106C00E94C01555
:101CA0008F2D0E948F0DA3CF013009F4A0CFF6CF66
:101CB000112329F0063008F09ACF8F2DE2CF05309E
:101CC00008F095CFEDCF002359F3D93349F4FFEF56
:101CD00027EE33E0F15020403040E1F700C0000033
:101CE0008D2F0E94130D83CF8C2F86958695837040
:101CF00069F0813009F07BCF8D2F9C2F93701111EB
:101D000002C090E080E00E94450B71CF8D2F9C2F88
:101D10009370111102C090E080E00E942F0B67CFFA
:101D20008D2F112329F00E94E3060E94B6075FCF92
:101D30000E943D07FACF8C2F837009F041C011112A
:101D400056CF4D2F429546954770440F440F0D2FA7
:101D50000F7010E030E020E0042E04C0000F111FCF
:101D6000221F331F0A94D2F760E070E0CB01D4FF4A
:101D70000FC06FE070E080E090E004C0660F771F56
:101D8000881F991F4A95D2F7609570958095909518
:101D9000C695C695C370602B712B822B932BC230D6
:101DA00049F058F4C13019F00E94AD1320CF0E94C1
:101DB0009B131DCF0E94BF131ACF0E94991317CFF8
:101DC0008695112311F08C2F8170882309F40FCF91
:101DD0004D2F429546954770440F440F0D2F0F70BD
:101DE00010E030E020E0042E04C0000F111F221F7D
:101DF000331F0A94D2F760E070E0CB01D4FF0FC02C
:101E00006FE070E080E090E004C0660F771F881FED
:101E1000991F4A95D2F76095709580959095C695D3
:101E2000C695C370602B712B822B932BC23049F067
:101E300058F4C13019F00E947014D9CE0E945E147B
:101E4000D6CE0E948214D3CE0E94D313D0CECF70B0
:101E5000112329F08C2F0E94F9138D2F12CF8D2F73
:101E60000E948F0D8C2F0E941A14C1CED23F89F18F
:101E700060F4D03FC9F0D13F29F1112309F442C0E9
:101E800001119DCE8C2F8F7121C0D33F39F1D43FEA
:101E9000A1F7112369F1CF718C2F0E94F91363E030
:101EA0008C2F0E940016A3CE112341F0053008F0BC
:101EB0009ECE8C2F8F710E943D1499CE063008F073
:101EC00096CEF7CF8C2F8F71112369F20E94F913F0
:101ED0008ECE8C2F8F711123C9F3C5CF112329F01A
:101EE0008C2F8F710E94E41382CE0E94DF137FCE6D
:101EF00081E00E941516023008F479CE82E00E943B
:101F0000151675CE002359F0D93309F0E9CE8FEFBD
:101F100097EEE3E081509040E040E1F7DFCE8C2F78
:101F20008F71A1CF4C2F4F706D2FC6010E941703E8
:101F30000E9411135CCE4C2F4F706D2FC6010E9472
:101F40001A0355CEDF91CF911F910F91FF90EF9023
:101F5000DF90CF90BF9008950F931F93CF93DF939F
:101F6000EC01688179818A810E9435158C010E947B
:101F700094140E949813B801CE01DF91CF911F9164
:101F80000F910C94960DCF93DF93EC018B819C8184
:101F9000892B29F08881998189238F3F59F4DF911A
:101FA000CF910895CE010E94AC0FCE01DF91CF9169
:101FB0000C945B02CE010E9482028111F3CF0E9439
:101FC0007715882361F38A81882349F382E0DF91C2
:101FD000CF910C94151690E080E00E942F0B90E0BA
:101FE00080E00E94450B0E949E150E94AE150E9443
:101FF000CA150E94DD080C94B6070E9467150C9460
:10200000EB0F0E948E150C94FD0FE92FE295EF70F7
:10201000E250EE3070F4F0E0E35FFF4D0C949F1F50
:10202000803F19F020F4883E20F481E00895843F39
:10203000E1F380E00895883EC0F3813FD1F7F5CF0A
:1020400093FB882780F908950E942B150C940510A6
:10205000CF93DF9300D000D00F92CDB7DEB70F90B3
:102060000F900F900F900F90DF91CF910895CF9325
:10207000DF9300D000D000D0CDB7DEB726960FB6E4
:10208000F894DEBF0FBECDBFDF91CF9108951F93AF
:10209000CF93DF93C091BC0116E08091BD018C13FA
:1020A00004C0DF91CF911F910895D0E01C9FF001F3
:1020B0001D9FF00D1124E254FE4F40815181628139
:1020C0007381848195810E9437102196C770E5CF76
:1020D0004091EE015091EF016091F0017091F1019A
:1020E0008091F2019091F3010C9437101F93CF93DC
:1020F000DF938091F301807FA9F48091F001882320
:1021000089F08091BC01C091BD016091EE01709198
:10211000EF01A091F101B091F201D62FD72316E083
:10212000C81304C0DF91CF911F91089590E01097DC
:1021300011F0DF3F19F401968770F2CF189F9001DC
:10214000199F300D1124F901E254FE4F41814713CC
:10215000F2CF40814613EFCF42814111ECCF438152
:1021600054814A1B5B0B483C510528F78091F301D1
:102170008F7080618093F301F901ED53FE4F8081F0
:102180008F70806180838EEE91E00E94C30FDF919B
:10219000CF911F910C944710AF92BF92CF92DF92D4
:1021A000EF92FF920F931F93CF93DF93CDB7DEB7DC
:1021B00061970FB6F894DEBF0FBECDBF8C0185E0EE
:1021C000F801DE011D9601900D928A95E1F7F80164
:1021D00040815181E2808EEEC82E81E0D82E609140
:1021E000F1017091F2016115710509F461C19091DD
:1021F000EE012091EF01892F82238F3F09F458C10E
:10220000A380B480F090F001F501E61BF70BFF20EE
:1022100009F4FCC08091F301382F307FE83CF105D0
:1022200008F0B2C0311179C0FE2C251323C09413DD
:1022300021C0E1101FC08F7080618093F3010E9464
:102240006810C6010E94C30F8091F301F8018583D5
:102250008F2D61960FB6F894DEBF0FBECDBFDF9114
:10226000CF911F910F91FF90EF90DF90CF90BF9093
:10227000AF900895AB2829F0842F85238F3F09F074
:1022800033C180E0F82FF170DF2E80FF3CC08091D9
:10229000BC012091BD0136E0821315C04D875E87D9
:1022A0008D859E850E942B15292F22952F70223017
:1022B000F0F0243018F59F70F1F0F8019581907FCF
:1022C000D1F4D12C1EC090E0389FF001399FF00D61
:1022D0001124E254FE4F6181651306C060816413CE
:1022E00003C062816E110FC001968770D5CF9F70B9
:1022F00011F0882331F3805E883018F3C8010E9402
:10230000C30FFD2CA5CFEE2009F4A2CF8091F301DD
:1023100081608093F301F12C9BCF251306C09413A9
:1023200004C0F801EE2009F48DC04D875E878D85CD
:102330009E850E942410882319F1EE2009F18091D6
:10234000F301803270F02091EE013091EF01388777
:102350002F831986BB86AA868C87CE0107960E949A
:10236000C30F86E0F801AEEEB1E001900D928A95C0
:10237000E1F70E9476100E946810FF24F39468CF62
:10238000C8010E94C30FF9CF311113C07A2DB98A49
:10239000A88A6E2D89890E9428108EEE91E00E94F5
:1023A000C30F86E0F60111928A95E9F70E94681042
:1023B000B2CF25130FC094130DC0E1100BC0F8016C
:1023C0008583C8010E94C30F86E0F60111928A95A9
:1023D000E9F73ECF4D875E878D859E850E9424104C
:1023E000882371F2EE2061F28091F301803208F4CB
:1023F000B8CF2091EE013091EF013A8329831B82FF
:10240000BD82AC828E83CE010196A9CFE83CF10556
:1024100008F041C0FE2CEE2009F4B2CF25132AC0EB
:10242000941328C08091F30180FD1BC0982F907FEA
:10243000C1F0F8018583903F31F0982F907F905F35
:102440008F70892B8583C8010E94C30F86E0F80135
:10245000AEEEB1E001900D928A95E1F70E9468100E
:10246000F7CE86E0F801AEEEB1E001900D928A95CC
:10247000E1F7EECE4D875E878D859E850E94241004
:1024800081116FCF8091F30181608093F301C801C6
:102490000E94C30FDDCE7A2DB98AA88A6E2D898954
:1024A0000E94281086E0F60111928A95E9F7D6CFAE
:1024B000EE2009F465CF4D875E878D859E850E944D
:1024C0002410F82E882309F45BCF86E0F801AEEEE5
:1024D000B1E001900D928A95E1F78EEE91E00E94B5
:1024E0007C0C0E947610BACF81E08E25CBCE1F9354
:1024F000CF93DF93CDB7DEB72C970FB6F894DEBF3E
:102500000FBECDBF4F83588769877A878B879C879B
:10251000CE0107960E94CC10882369F08A859B859E
:10252000892B39F04F815885842F85238F3F09F0FF
:1025300071C016E05FC086E0FE013796DE0111969D
:1025400001900D928A95E1F78A859B85892B89F305
:102550008F81988589238F3F61F32091BD0130E001
:10256000C9010196877099274091BC014817190647
:1025700071F40E9401101092BD011092BC0186E01E
:10258000EEEEF1E0DF011D928A95E9F7D2CF96E0F9
:10259000929FD001939FB00D1124A254BE4FFE0113
:1025A000319601900D929A95E1F78093BD010E94BA
:1025B0004710BFCF819FC001112482549E4F0E94BB
:1025C000CC108823E9F0E091BC011E9FF00111249A
:1025D000E254FE4F408151816281738184819581F3
:1025E0000E9437108091BC0190E001968770992776
:1025F0008093BC018091BC019091BD018913DACF19
:102600002C960FB6F894DEBF0FBECDBFDF91CF91F1
:102610001F91089569857A858B859C850E94371066
:1026200088CFEF92FF920F931F93CF93DF938C018C
:10263000892B81F0F12CEE24E394E8012196F80136
:102640008491843770F4843008F05FC08130B1F039
:102650008230A1F1DF91CF911F910F91FF90EF9008
:102660000895853709F44CC008F43DC09CE7980FE5
:10267000903780F78F770E94130D49C00E5F1F4F70
:10268000FE01849190E2980F983060F48770FE2DDF
:1026900001C0FF0F8A95EAF78F2F0E94A1150E94B3
:1026A000CA1502C00E94810C8F2D815030F2EFE9D3
:1026B000FFE03197F1F700C00000F7CF0E5F1F4F2A
:1026C000FE01849190E2980F983050F48770FE2DAF
:1026D00001C0FF0F8A95EAF78F2F0E94A715DFCF61
:1026E0000E94130DE1CF0E5F1F4FFE01C491C15038
:1026F000D8F28FE99FE00197F1F700C00000F7CF13
:102700000E5F1F4FFE01F490CFCF0E94810C8E010F
:10271000CBCF08950C9489130E948A1360932A02E8
:1027200070932B0280932C0290932D020C94EB0F4C
:1027300008950C948C130F931F9300912A0210910B
:102740002B0220912C0230912D02602B712B822BB9
:10275000932B1F910F910C948C130F931F93009147
:102760002A0210912B0220912C0230912D0260231D
:102770007123822393231F910F910C948C130F9339
:102780001F9300912A0210912B0220912C0230916C
:102790002D0260277127822793271F910F910C9498
:1027A0008C130C94F7010E94D1136093260270934E
:1027B000270280932802909329020C94EB0F60E08B
:1027C00070E0CB010C94D3130F931F9341E050E0C2
:1027D00060E070E08A019B0104C0000F111F221FFE
:1027E000331F8A95D2F7C901B8011F910F910C943C
:1027F000D3130F931F9341E050E060E070E004C0FA
:10280000440F551F661F771F8A95D2F780912602C5
:1028100090912702A0912802B09129028A019B0180
:10282000082B192B2A2B3B2BC901B8011F910F91A3
:102830000C94D3130F931F9341E050E060E070E0DD
:1028400004C0440F551F661F771F8A95D2F7CB012E
:10285000BA0160957095809590950091260210912F
:1028600027022091280230912902602371238223BC
:1028700093231F910F910C94D3130F931F9341E057
:1028800050E060E070E004C0440F551F661F771FE2
:102890008A95D2F78091260290912702A091280272
:1028A000B09129028A019B01082719272A273B2773
:1028B000C901B8011F910F910C94D3130F931F936B
:1028C00000912602109127022091280230912902BE
:1028D000602B712B822B932B1F910F910C94D31390
:1028E0000F931F9300912602109127022091280236
:1028F0003091290260237123822393231F910F912A
:102900000C94D3130F931F9300912602109127026A
:10291000209128023091290260277127822793276E
:102920001F910F910C94D31308952FE0929F800D67
:102930001124982F977041E001C0440F9A95EAF74F
:1029400086958695869595E0899FF0011124EC5037
:10295000FE4F90E080E070E05191DF0111979B0104
:10296000082E02C0369527950A94E2F7217021952A
:102970002527242325272C9301968530910561F77F
:1029800008952FE0929F800D1124982F97708695BF
:102990008695869525E0829FF0011124EC50FE4F2C
:1029A00050E040E080E0219130E0092E02C03695F1
:1029B00027950A94E2F721703327042E01C0220FD5
:1029C0000A94EAF7822B4F5F5F4F4530510559F764
:1029D0000895BF92CF92DF92EF92FF920F931F93D1
:1029E000CF93DF938C01C0902602D0902702E09015
:1029F0002802F090290280912A0290912B02A09146
:102A00002C02B0912D02C82AD92AEA2AFB2ACFE14A
:102A1000D0E0BC2ED701C6010C2E04C0B695A795F8
:102A2000979587950A94D2F780FD0EC0219788F775
:102A3000B12C8B2DDF91CF911F910F91FF90EF90D3
:102A4000DF90CF90BF900895B8018C2F0E9437037C
:102A5000019761F3EECFCF93DF93EC010E94E9146D
:102A6000BE01DF91CF910C9437031F93CF93DF9377
:102A7000EB019091BB01992331F0CB01DF91CF9114
:102A80001F910C942B15882379F0CB010E94E91437
:102A9000182F682FCE010E949514BE01812FDF915F
:102AA000CF911F910C943703CB010E94C114182FB2
:102AB000F4CF682F80910801909109010C9474174C
:102AC000682F80910801909109010C947F178091E3
:102AD0000801909109010C948A1780912E02859526
:102AE00085958595089580912E028770089590911F
:102AF0002E02977081E009F480E0089580915202DF
:102B0000089590915202892B8093520208958095E6
:102B1000909152029823909352020895109252027B
:102B2000089590915102892B8093510208958095C8
:102B3000909151029823909351020895109251025E
:102B4000089590915002892B8093500208958095AA
:102B50009091500298239093500208951092500241
:102B6000089580912F02089508950C94B4159091C2
:102B70002F02981721F080932F020C94B515089519
:102B800080912F02882329F010922F0280E00C946C
:102B9000B5150895E0910801F09109018091520264
:102BA0008083E0910801F0910901808190915102A8
:102BB000892B8083E0910801F09109018081909137
:102BC0005002892B808390912F02992381F0E0910C
:102BD0000801F09109018081892B8083809108018F
:102BE000909109010E94E01681110E94C015809108
:102BF0000801909109010C94070B08950C94FD15A0
:102C000098E0899F90011124622B60932E020E940C
:102C1000F91380912E028595859585950C94FE1566
:102C200010922E0280E00C94FE1590912E02809559
:102C3000892380932E02282F277071F4282F082EC5
:102C4000000C330B9217130639F085958595859501
:102C50000E941A140C941016089580E008956FEFE6
:102C60007FEF90E080E00C94E51F90E080E00E9410
:102C7000C11F21E08B3E9E4F09F020E0822F089576
:102C800082E090E00C94B91F83E090E00C94B91FAF
:102C9000CF9384E090E00E94B91FC82F81E290E0BA
:102CA0000E94B91F982F8C2FCF910895CF93C92FD1
:102CB000682F84E090E00E94C71F6C2F81E290E0B3
:102CC000CF910C94C71FAB01BC018FE090E00C9436
:102CD000D91FAB01BC0183E190E00C94D91F60E0E7
:102CE00070E0CB010C94691660E070E0CB010E94AB
:102CF00063160C946F166BEE7EEF90E080E00E94FE
:102D0000E51F60E082E090E00E94C71F60E083E082
:102D100090E00E94C71F10922A0210922B0210927C
:102D20002C0210922D0260E084E090E00E94C71F08
:102D300060E081E290E00E94C71F60E085E090E0E3
:102D40000E94C71F60E086E090E00E94C71F6FEFFF
:102D500087E090E00E94C71F40E050E0BA0188E0A1
:102D600090E00E94D91F60E08DE090E00E94C71FB4
:102D700040E050E0BA0188E190E00E94D91F60E095
:102D800087E190E00E94C71F40E050E0BA018CE16B
:102D900090E00E94D91F60E080E290E00E94C71F8F
:102DA00040E050E0BA0188E190E00E94D91F0C9405
:102DB00074160C947B16682F8EE090E00C94C71F5D
:102DC000FC01329680911401882321F080918F02BA
:102DD0009EE187FF96E080E0915008F408952191EC
:102DE0002223D1F38F5FF8CF662301F120911401E4
:102DF0002223F1F020918F0227FF1AC0462F46951B
:102E0000469546954E3190F4677021E030E002C05F
:102E1000220F331F6A95E2F7840F911DFC01828116
:102E200090E02823392381E0232B69F480E0089582
:102E3000FC01329608962191261721F0E817F90730
:102E4000D1F7F4CF81E008959C01FC0132969FEF09
:102E500080E04191461751F09F3F19F4411101C0A4
:102E6000982F8F5F8630A9F79F3F09F40895290FA7
:102E7000311D97FD3A95F90162830895FC01329660
:102E800008962191261303C0DF0111971C92E817C1
:102E9000F907B9F70895E62FE695E695E695EE3140
:102EA00068F4E80FF92FF11D677021E030E001C0F0
:102EB000220F6A95EAF78281822B82830895E62F9A
:102EC000E695E695E695EE3170F4E80FF92FF11DE1
:102ED000677021E030E001C0220F6A95EAF7209583
:102EE000828128232283089520911401222329F02E
:102EF00020918F0227FD0C944B170C9424172091DE
:102F00001401222329F020918F0227FD0C945F17D2
:102F10000C943E17FC01329680911401882351F0E5
:102F200080918F0287FF06C08EE1DF011D928A9596
:102F3000E9F7089586E0F9CF089508950C949D1758
:102F400080919502843049F10E949E1780E00E9492
:102F50000F031092540288E190E020E40FB6F89439
:102F6000A895809360000FBE2093600083B7817F97
:102F7000846083BF83B7816083BF7894889583B76B
:102F80008E7F83BF0FB6F894A8958091600088610A
:102F900080936000109260000FBE08950895CF9353
:102FA0000E949C170E94A2050E94CE17C0E08C2FA1
:102FB0000E942B05892B31F4CF5FC530C1F780E02B
:102FC000CF91089581E0FCCF08950C94E4170E94FE
:102FD00001100E94FB0A0E940F030C94E5171F9238
:102FE0001FB61F9211248F939F93AF93BF9380912D
:102FF0005402811113C080918B0290918C02A09198
:103000008D02B0918E024196A11DB11D80938B025D
:1030100090938C02A0938D02B0938E02BF91AF91DA
:103020009F918F911F901FBE1F90189582E084BDC5
:1030300093E095BD9AEF97BD80936E0008952FB7EA
:10304000F89480918B0290918C02A0918D02B091A6
:103050008E022FBF08952FB7F89460918B02709164
:103060008C0280918D0290918E022FBF08959C0159
:103070004FB7F89480918B0290918C02A0918D02B1
:10308000B0918E024FBF821B930B089578941F92CC
:103090001FB61F9211248F939F93AF93BF9380917C
:1030A0008B0290918C02A0918D02B0918E020196BC
:1030B000A11DB11D80938B0290938C02A0938D0271
:1030C000B0938E02BF91AF919F918F911F901FBEC1
:1030D0001F90189581E08093E00080E28093D800F3
:1030E0001092C9008FE19EE40197F1F700C0000043
:1030F00087E090EBDC0180939E0290939F02A09367
:10310000A002B093A10288E19CE00FB6F894A895C4
:10311000809360000FBE90936000FFCF90938D016D
:1031200080938C0108950C942F160E94A2058FEFB6
:1031300099EF0197F1F700C000000E94A20580E01E
:103140000E942B0580FF04C00E9493180C946A18FB
:1031500008950E943516811102C00E94D9160E945E
:103160004016809353020E944816909390028093D9
:103170008F020E944416682F70E090E080E00E9469
:1031800099136091260270912702809128029091F4
:1031900029020C94D113809175020895CF93DF9387
:1031A00000D00F92CDB7DEB790919502943019F50B
:1031B00089837B836A8382E08093E9008FEF90911B
:1031C000E800815095FD06C095ED9A95F1F7000055
:1031D0008111F5CF8091E80085FF0DC050E040E0FF
:1031E00063E070E0CE0101960E94FA1A8091E80037
:1031F0008E778093E8000F900F900F90DF91CF9122
:103200000895BC0184E00C94CE18BC0183E00C94BA
:10321000CE189C0182E08093E9009FEF8091E80046
:10322000915085FD06C085ED8A95F1F7000091115A
:10323000F5CF8091E80085FF0CC050E040E066E0EB
:1032400070E0C9010E94FA1A8091E8008E7780939D
:10325000E8000895CF93DF93EC0180911401882357
:10326000B1F180918F0287FF32C060E282E08093EB
:10327000E9008FEF9091E800815095FD06C095ED33
:103280009A95F1F700008111F5CF8091E80085FF54
:103290001BC08091140170E050E040E0811104C037
:1032A00050E040E068E070E0CE010E94FA1A8091A0
:1032B000E8008E778093E80080E2FE01A5E5B2E0A9
:1032C00001900D928A95E1F7DF91CF91089568E022
:1032D00081E0CDCF80919402811109C00E948A1CA7
:1032E0000E94E71C8091E20084608093E2000895D0
:1032F00010929402089508950895089542E061ECB3
:1033000081E00E94061C42E261EC82E00C94061C03
:1033100080919702833009F45FC030F48130C1F1AD
:10332000823009F49BC008958A3009F487C08B303D
:1033300009F46DC0893009F04EC080919602813247
:1033400009F049C080919A0290919B02029708F07F
:1033500042C08091E800877F8093E8008091E80078
:1033600082FF35C09091F3008091F200029729F41A
:103370008091F1008B7F813021F48091F100809366
:1033800075028091E8008B778093E8000C943A1CDA
:1033900080919602813AF9F48091E800877F8093CA
:1033A000E80080919A0290919B02892B61F460E27F
:1033B00085E592E070E00E94491B8091E8008B77E0
:1033C0008093E800089560E090E080E0F3CF809182
:1033D00095028111C3CF089580919602813AD9F761
:1033E00080919A0290919B02892BA9F78091E80025
:1033F000877F8093E8008091E80080FFFCCF809178
:1034000014018093F1008091E8008E77BDCF809108
:103410009602813201F780919A0290919B02892B4A
:10342000D1F68091E800877F8093E8000E943A1CE3
:1034300080919802809314010C940110809196025F
:10344000813249F68091E800877F8093E8000E94EE
:103450003A1C809199028093760208958091960299
:10346000813A09F0B8CF8091E800877F8093E80027
:103470008091E80080FFFCCF80917602C2CF84B7B4
:10348000877F84BF0FB6F894A8958091600088610B
:1034900080936000109260000FBE80E890E00FB64D
:1034A000F89480936100909361000FBE0E947C0BA2
:1034B0000E948A1C0E94E71C8091E2008460809335
:1034C000E20078940E94701F0E948C0B8AE091E0C9
:1034D0000E94F60A809195028530A9F00E94940B13
:1034E0000E948A0B0E948B0BF5CF0E94A01780913F
:1034F0009302882341F00E94CF17882321F00E9475
:10350000E41A0E94011080919502853071F30E94A7
:10351000E717E4CF0C948C1A292F33272330310579
:1035200019F168F42130310509F444C02230310525
:1035300009F445C090E080E030E020E025C0213271
:10354000310549F122323105A9F780E490E029E004
:1035500033E061157105C1F086EB90E023E532E0C0
:103560006130710589F0E6CF99278130910581F0AE
:10357000009729F00297F1F6E8EDF1E002C0E2E0F1
:10358000F2E0849190E09F01FA0131832083089555
:10359000ECEEF1E0F6CF89E090E028E132E0611551
:1035A000710591F389E090E021E332E0613071052B
:1035B00059F3C0CF82E190E021E432E0E5CF8BE324
:1035C00090E026E032E0E0CF80E189BD82E189BD74
:1035D00009B400FEFDCF8091D8008F7D8093D80084
:1035E0008091E00082608093E0008091E00081FDA6
:1035F000FCCF0895AF92BF92CF92DF92FF920F93CC
:103600001F93CF93DF936C01EB018A010E94591C39
:10361000F82E811123C00115110539F0F8018081C0
:103620009181C81BD90BC80ED91EB12CA12C209793
:10363000A9F08091E80085FD22C08091E8008E7796
:103640008093E80001151105A1F0F80180819181B6
:10365000A80EB91EB182A08285E0F82E8F2DDF91D1
:10366000CF911F910F91FF90DF90CF90BF90AF90BF
:1036700008950E94591C8823D1F2F82EEFCFF6014D
:1036800081916F018093F1002197FFEFAF1ABF0A7C
:10369000CECFFC0180919C0290919D0286179707E6
:1036A000A0F06115710529F49091E8009E77909340
:1036B000E80090E06115710551F4911108C0809106
:1036C000E80082FF34C080E00895BC01F2CF809111
:1036D00095028823C1F18530C1F18091E80083FD16
:1036E00030C08091E80082FDEACF8091E80080FF41
:1036F000E1CF8091F3002091F200382F6115710520
:1037000019F02830310558F091E02830310509F0E2
:1037100090E02091E8002E772093E800CBCF8191B4
:103720008093F100615071092F5F3F4FE7CF809187
:103730009502882341F0853041F08091E80083FFB5
:10374000BECF81E0089582E0089583E00895FC01F2
:1037500080919C0290919D0286179707A0F06115B9
:10376000710529F48091E8008E778093E80090E05D
:103770006115710551F4911108C08091E80082FF34
:1037800035C080E00895BC01F2CF80919502882376
:10379000C9F18530C9F18091E80083FD31C0809185
:1037A000E80082FDEACF8091E80080FFE1CF8091C0
:1037B000F3002091F200382F6115710519F02830BF
:1037C000310558F091E02830310509F090E0809102
:1037D000E8008E778093E800CBCF84918093F1004E
:1037E0003196615071092F5F3F4FE6CF809195026E
:1037F000882341F0853041F08091E80083FFBDCF00
:1038000081E0089582E0089583E00895982F97302D
:1038100028F08F708093E90081E008959093E9008B
:10382000242F762F50E0981731F07091EC00209102
:10383000ED005091F00021FD02C09F5FE8CF309174
:10384000EB003E7F3093EB003091ED003D7F3093F5
:10385000ED003091EB0031603093EB007093EC00A1
:103860002093ED005093F0002091EE0027FDE5CF6E
:1038700080E008958091960287FF13C08091E80050
:1038800082FF06C08091E8008B778093E80004C037
:10389000809195028111F2CF08958091950288233D
:1038A000D9F38091E80080FFF8CF8091E8008E770F
:1038B000ECCF2091E4003091E50095E6A90120913C
:1038C000EC00822F817020FF06C08091E80080FF0D
:1038D00006C080E008952091E80022FD1AC0809182
:1038E0009502882389F0853089F08091EB0085FD71
:1038F0000FC02091E4003091E50042175307F9F220
:103900009150E1F684E0089582E0089583E00895FF
:1039100081E008950E94F81C0E94001DE0EEF0E096
:10392000808181608083E8EDF0E080818F77808303
:1039300019BCA7EDB0E08C918E7F8C9380818F7E37
:1039400080831092940208950F931F93CF93DF9377
:103950000E94F81C0E94001DC8EDD0E088818F777E
:10396000888388818068888388818F7D888319BC5B
:10397000109295021092910210929302109292026C
:1039800000EE10E0F80180818B7F80838881816068
:10399000888342E060E080E00E94061CE1EEF0E0F7
:1039A00080818E7F8083E2EEF0E080818160808381
:1039B000808188608083F80180818E7F8083888108
:1039C00080618883DF91CF911F910F910895E8ED79
:1039D000F0E080818F7E8083E7EDF0E08081816080
:1039E000808384E082BF81E0809394020C94A41CC5
:1039F000E8EDF0E080818E7F80831092E2000895F0
:103A00001092DA001092E10008951F920F920FB603
:103A10000F9211242F933F934F935F936F937F9354
:103A20008F939F93AF93BF93EF93FF938091E100A8
:103A300082FF0BC08091E20082FF07C08091E1000D
:103A40008B7F8093E1000E946F1F8091DA0080FFDE
:103A500019C08091D80080FF15C08091DA008E7F58
:103A60008093DA008091D90080FF96C080E189BD03
:103A700082E189BD09B400FEFDCF81E0809395020B
:103A80000E946A198091E10080FF19C08091E200D4
:103A900080FF15C08091E2008E7F8093E2008091CC
:103AA000E20080618093E2008091D8008062809380
:103AB000D80019BC85E0809395020E947C19809102
:103AC000E10084FF2BC08091E20084FF27C080E1E9
:103AD00089BD82E189BD89B5982F917080FFFBCFA8
:103AE0008091D8008F7D8093D8008091E1008F7EF7
:103AF0008093E1008091E2008F7E8093E2008091CC
:103B0000E20081608093E20080919102882309F4B1
:103B100049C084E0809395020E947D198091E10064
:103B200083FF29C08091E20083FF25C08091E100DE
:103B3000877F8093E10082E080939502109291024A
:103B40008091E1008E7F8093E1008091E2008E7F82
:103B50008093E2008091E20080618093E20042E085
:103B600060E080E00E94061C8091F00088608093F5
:103B7000F0000E947B19FF91EF91BF91AF919F914F
:103B80008F917F916F915F914F913F912F910F9006
:103B90000FBE0F901F90189519BC109295020E94AD
:103BA000781970CF8091E30087FD93E090939502A0
:103BB000B3CF1F920F920FB60F9211242F933F9302
:103BC0004F935F936F937F938F939F93AF93BF9325
:103BD000CF93DF93EF93FF93D091E900DF70809153
:103BE000EC00C82FC17080FDC0E81092E900809100
:103BF000F000877F8093F00078940E941D1E109241
:103C0000E9008091F00088608093F000CD2BCF70A8
:103C1000C093E900FF91EF91DF91CF91BF91AF91F8
:103C20009F918F917F916F915F914F913F912F91D4
:103C30000F900FBE0F901F9018951F93CF93DF9397
:103C4000CDB7DEB7AA970FB6F894DEBF0FBECDBFD3
:103C500086E992E02091F100FC012193CF01F2E08E
:103C60008E399F07B9F70E9488198091E80083FF79
:103C70001EC180919602909197029A3008F017C168
:103C8000E92FF0E0E55EFF4D0C949F1F803899F01E
:103C9000823809F00CC180919A028F70873008F049
:103CA00006C18093E9008091EB0085FB882780F9AD
:103CB0001092E90006C080919202909193029111B6
:103CC00082609091E800977F9093E8008093F100E4
:103CD0001092F1008091E8008E77E5C0882309F406
:103CE000D3C0823009F0E3C0809198028111D6C020
:103CF00080919A028F702FEF280F263008F0D7C0DE
:103D00008093E9002091EB0020FFC8C0933031F48C
:103D10008091EB0080628093EB00C0C09091EB003B
:103D200090619093EB0021E030E001C0220F8A9572
:103D3000EAF72093EA001092EA008091EB00886095
:103D4000EACF8111B4C0109198021F778091E300EF
:103D50008078812B8093E3008091E800877F8093B7
:103D6000E8000E943A1C8091E80080FFFCCF80911F
:103D7000E30080688093E30082E0111183E0809388
:103D8000950295C08058823008F091C080919802C9
:103D9000909199028C3D23E09207A1F583E08A83FC
:103DA0008AE289834FB7F894DE01139620E03EE063
:103DB00051E2E32FF0E050935700E49120FF03C05D
:103DC000E295EF703F5FEF708E2F90E0EA30C0F029
:103DD000C7968D939D932F5F243159F74FBF8091E4
:103DE000E800877F8093E8006AE270E0CE010196E8
:103DF0000E94491B8091E8008B778093E80057C0B0
:103E0000C096E7CF60919A0270919B02AE014F5F1E
:103E10005F4F0E948A1ABC01892B09F448C0909117
:103E2000E800977F9093E80089819A810E94A71B00
:103E3000E1CF8038E1F58091E800877F8093E8004A
:103E4000809191028093F10045CF811130C0909113
:103E50009802923060F58091E800877F8093E800B7
:103E6000909391020E943A1C80919102882311F054
:103E700084E005C08091E30087FDFACF81E0809364
:103E800095020E947E1913C080919802813079F4C6
:103E900081E0933009F080E0809393021092E90072
:103EA0008091E800877F8093E8000E943A1C80910F
:103EB000E80083FF0AC08091E800877F8093E800D4
:103EC0008091EB0080628093EB00AA960FB6F89485
:103ED000DEBF0FBECDBFDF91CF911F910895089532
:103EE000CF93809195028823A1F0C091E900CF7013
:103EF0009091EC00892F817090FD80E8C82B109282
:103F0000E9008091E80083FD0E941D1ECF70C093E0
:103F1000E900CF91089597FB072E16F4009407D07F
:103F200077FD09D00E94A51F07FC05D03EF49095AF
:103F300081959F4F0895709561957F4F0895EE0F7D
:103F4000FF1F0590F491E02D0994AA1BBB1B51E1C2
:103F500007C0AA1FBB1FA617B70710F0A61BB70BF9
:103F6000881F991F5A95A9F780959095BC01CD019E
:103F70000895F999FECF92BD81BDF89A992780B531
:103F80000895A8E1B0E042E050E00C94ED1F262F28
:103F9000F999FECF92BD81BDF89A019700B402163F
:103FA00039F01FBA20BD0FB6F894FA9AF99A0FBEED
:103FB00008950396272F0E94C81F0E94C71F252F10
:103FC0000E94C81F242F0C94C81F0196272F0E94FF
:103FD000C81F0C94C71FDC01CB01FC01F999FECF6F
:103FE00006C0F2BDE1BDF89A319600B40D92415081
:103FF0005040B8F70895F894FFCFCA0DCA0D220EAD
:10400000220E740E900EF70DF70D9B0E270F360F34
:10401000360F920FF70DF70D9B0F1010101019109F
:1040200019101B1019101910191010101010201051
:10403000191019102010461E6E1E571F6E1E571F96
:0A404000A11EC21E571F191F251FE5
:10404A002808641E140A321E3002CB182A190919CC
:10405A000519011901E200E900EA00B500B600B746
:10406A0000CD008301CC008A019201940121022330
:10407A000224022502260227022A02B300B4006F94
:10408A00007000818283F0F1C6676636943130375A
:10409A0035349796339091929395E200E900EA00BD
:1040AA00B500B600B700CD008301CC008A019201A9
:1040BA0094012102230224022502260227022A024F
:0C40CA00B300B4006F007000818283001E
:00000001FF
